:1000000000800020BD01000069A0000025A00000C4
:1000100025A0000025A0000025A0000025A00000CC
:1000200025A0000025A0000025A0000069A0000078
:1000300069A0000025A0000035950000399500005A
:1000400069A0000069A0000069A0000069A000008C
:1000500069A0000069A0000069A0000069A000007C
:1000600069A0000069A0000069A0000069A000006C
:1000700069A0000069A0000069A0000069A000005C
:1000800069A0000069A0000069A0000069A000004C
:100090007D24000069A0000069A0000069A00000A4
:1000A00069A0000069A0000069A0000069A000002C
:1000B00069A00000D58A0000E18A0000E58A0000FE
:1000C000F18A0000F58A0000F98A000069A00000AA
:1000D00069A0000069A0000069A0000069A00000FC
:1000E00069A0000069A0000069A0000069A00000EC
:1000F00069A0000069A0000069A000009DAF000099
:1001000069A00000C5B6000069A0000069A0000059
:1001100069A0000069A0000069A0000069A00000BB
:1001200069A0000069A0000069A0000069A00000AB
:1001300069A0000069A0000069A0000069A000009B
:1001400069A0000069A0000069A0000069A000008B
:1001500069A0000069A0000069A0000069A000007B
:1001600069A00000C9B9000069A0000069A00000F2
:1001700069A0000069A0000069A0000069A000005B
:1001800069A0000069A0000069A0000069A000004B
:1001900069A0000069A0000069A0000069A000003B
:1001A00069A0000069A0000069A0000069A000002B
:1001B00069A0000069A0000069A00000574B4CF244
:1001C000205210B5DA814DF62812DA8100BF00BF47
:1001D00009F04EFF524B4FF010621A63514A9A6376
:1001E000514ADA63514A136913F4807303D153619E
:1001F0004FF4A85313614E4B9A78110703D59A78A0
:1002000042F008029A704B4B4B482A221A704B4B13
:10021000DA1C121AC11E22F00302994288BF002282
:10022000474909F02BFE474B4748DA1C121AC11EFA
:1002300022F00302994288BF002200210DF0EEFF58
:10024000424943484FF4DE7209F018FE414B424ADE
:10025000802103F8011B9342FBD14FF0E0233C4A7D
:10026000C3F8082D3D4B8A221A70A3F5805324222F
:100270005A70A0221A709A799207FCD59A79D406FE
:10028000FCD4374B9A7902F00C02082AFAD10322E7
:100290001A7140225A719A799006FCD5304A9379A6
:1002A0005906FCD51E4B2F4959640221996420211F
:1002B0001170917901F00C010C29FAD12A4A5A6087
:1002C0004FF0E023294A5A6100229A6107221A61FD
:1002D000274AC3F8202D62B609F0FCFF134B5B6977
:1002E000DA0705D5234809F0E9FF234B234ADA61F1
:1002F000234B1B785B0609D51F4C204BE2699A42C1
:1003000004D11C4809F0DAFF0023E36109F0B6FECE
:100310000EF07AF809F0AAFDFEE700BF00200540C4
:1003200000800440823F04000100002B00D0034005
:1003300000D0074000E007402087FF1F6891FF1FA3
:10034000845C010010D9FF1F6891FF1F00000000AE
:100350000082FF1F00E400E05FE400E00050064080
:100360000040064000000301C0100500FF760100B8
:1003700000002020D4FC066600E00340A5C3945A88
:1003800000F00740FFFFFFFFFFFFFFFFFFFFFFFF42
:10039000FFFFFFFFFFFFFFFFFFFFFFFFFFFFFFFF6D
:1003A000FFFFFFFFFFFFFFFFFFFFFFFFFFFFFFFF5D
:1003B000FFFFFFFFFFFFFFFFFFFFFFFFFFFFFFFF4D
:1003C000FFFFFFFFFFFFFFFFFFFFFFFFFFFFFFFF3D
:1003D000FFFFFFFFFFFFFFFFFFFFFFFFFFFFFFFF2D
:1003E000FFFFFFFFFFFFFFFFFFFFFFFFFFFFFFFF1D
:1003F000FFFFFFFFFFFFFFFFFFFFFFFFFFFFFFFF0D
:10040000FFFFFFFFFFFFFFFFFFFFFFFFDEF9FFFF23
:100410000548064B1B1AD90F01EBA301491002D066
:10042000034B03B1184770476891FF1F6891FF1F86
:100430000000000008B5054B1BB105490548AFF3A6
:100440000080BDE80840FFF7E3BF00BF00000000E8
:100450006891FF1F845C010010B53422002104461E
:100460000DF0DCFE184904F1300304F1640243F896
:10047000041F9A42FBD13422002104F168000DF0E0
:10048000CDFE0023002211481149C4F89C30C4F865
:10049000A030C4F8A430C4F8A830C4F8B000C4F840
:1004A000B83047F23050012384F8DC20C4F8F00063
:1004B000C4F8AC10C4F8B410C4F8E420A4F8C42004
:1004C000C4F8F430204610BD0000A0400000C8C2AF
:1004D000000048430023C0F8E4308B7A91F809C04B
:1004E000CA7A1B0143EA1C1343EA0233C0F8E43022
:1004F000704700BF012A38B505460C4614D00223C8
:10050000C0F8F4304B7B087B1B01DBB243EA1010D0
:100510000CF0AEFD4FF07C510CF0FEFD2C490CF0C0
:10052000F1FCC5F8A00038BDC0F8F420CB7BFD2B52
:1005300049D0087ADE2828D9C87A0CF099FD4FF006
:100540007C510CF0E9FD23490CF0DCFCC5F8A0005F
:10055000207BEF282DD80CF08BFD4FF07C510CF058
:10056000DBFD1C490CF0CEFCC5F8A400607BEF2835
:1005700025D80CF07DFD4FF07C510CF0CDFD1549D8
:100580000CF0C0FCC5F8A80038BD0CF071FD4FF0B0
:100590007C510CF0C1FD0F490CF0B4FCC5F8A00073
:1005A000E27AA37A03EB0223C5F8E430207BEF283C
:1005B000D1D90020C5F8A400607BEF28D9D9002349
:1005C000C5F8A83038BD887AFD28A1D138BD00BF54
:1005D0000000204200002C4290F8CC00704700BF81
:1005E00090F8C800704700BF90F8D000704700BF77
:1005F00090F8D400704700BF0D2994BF50F8210037
:10060000002070472DE9F0410C4E8046051F00F197
:10061000300755F8044F314620460CF01BFF0346C7
:1006200020462BB1D8F8BC100CF032FF00B12646A2
:10063000BD42EED13046BDE8F08100BF0000204150
:100640002DE9F843D0F8BC800F4F4FF00009051F8B
:1006500000F1300655F8044F414620460CF018FFD3
:100660000346394620464BB10CF0F4FE034649469A
:1006700020461BB10CF00CFF00B1A146B542E9D1F8
:100680004846BDE8F88300BF0000A0402DE9F84FC0
:10069000D0F8BC90174F83460026051F00F13008A4
:1006A0004FF0000A55F8044F494620460CF0F0FE82
:1006B0000346394620464BB10CF0CCFE30B13046F3
:1006C00021460CF021FC0AF1010A06464545E9D114
:1006D000CBF8E0A0BAF1000F08D050460CF0C8FCEF
:1006E000014630460CF0CCFDBDE8F88F0020BDE897
:1006F000F88F00BF0000A040D0F8E000704700BFB6
:1007000038B5D0F8F430012B0ED1D0F8D8307BB901
:10071000D0F8A440D0F8A050214628460CF09AFE0C
:1007200020B92C46204638BDD0F8A040204638BD20
:10073000273350F82340204638BD00BFD0F8F430AE
:10074000012B2DE9F041044647D1D0F8D830002BD9
:1007500048D1D0F8A050D0F8A460284631460CF01B
:10076000D3FBD4F8A870394680460CF0CDFB5F4926
:100770000CF086FD4FF07C51044628460CF088FEB4
:100780004FF07C51002833D128460CF063FE30B185
:100790004FF07C5130460CF07BFE002872D14FF0B8
:1007A0007C5128460CF074FE002834D14FF07C5167
:1007B00030460CF06DFE38B14FF07C5138460CF0ED
:1007C00049FE002840F090804FF07C5138460CF0F4
:1007D0005FFE00286DD03C4601E0D0F8A0402046E6
:1007E000BDE8F081273350F823402046BDE8F08172
:1007F00030460CF04DFE4FF07C51002836D0384684
:100800000CF046FE0028EAD14FF07C5128460CF04F
:1008100021FE00284FD14FF07C5130460CF01AFEDB
:100820004FF07C5100283ED038460CF031FE0028B5
:1008300049D14FF07C5130460CF02AFE68B14FF0A0
:100840007C5138460CF006FE002846D14FF07C5112
:1008500030460CF0FFFD0028A8D04FF07C51384600
:100860000CF0F8FD0028A1D02C46B8E728460CF083
:10087000F1FD0028CFD04FF07C5130460CF008FE3F
:100880000028C8D04FF07C5138460CF001FE0028FB
:1008900085D0394630460CF037FB4FF07C510CF0D8
:1008A0003BFC04469BE730460CF0F2FD0028CDD01F
:1008B000C5E70F4C93E74FF07C5138460CF0E8FD4C
:1008C0000028A8D0E5E7394628460CF01DFB4FF07C
:1008D0007C510CF021FC044681E74FF07C514046EE
:1008E0000CF01AFC04467AE7344678E700004040F2
:1008F0000000A0C2D0F8F430012B70B5044620D11E
:10090000D0F8D8300BBBD0F8A0604FF07C51304607
:100910000CF0BEFDD4F8A450E0B9D4F8A8404FF0D4
:100920007C5128460CF0B4FD68B1314628460CF0E5
:1009300091FD40B1214628460CF08CFD18B12C46A3
:1009400001E0D0F8A040204670BD273350F8234086
:10095000204670BD304629460CF07CFDD4F8A840F6
:100960000028DCD0304621460CF074FD0028D6D09B
:100970003446E8E72DE9F041064684B014460329E1
:100980003ED8DFE811F004003201F800E700002350
:1009900080F8EC30907A537A000100EB131000F5E8
:1009A0007A700CF065FBAE490CF0B6FB3060207B32
:1009B000637B000900EB031000F57A700CF058FB24
:1009C000A7490CF0A9FBB060207BE37A000200F499
:1009D0007060184400F57A700CF04AFBA0490CF0E6
:1009E0009BFB7060E07BA37B000200F47060184406
:1009F00000F57A700CF03CFB99490CF08DFBF0602F
:100A00003046FFF777FFD6F8AC1004460CF022FD15
:100A100008B1C6F8AC40D6F8F430012B0FD1D6F8A7
:100A2000D830002B40F09280D6F8A050D6F8A440E1
:100A3000284621460CF00EFD18B92C4601E0D6F8E8
:100A4000A040D6F8B00021460CF004FD08B1C6F86D
:100A5000B040DFF81082341F06F13007A06B54F865
:100A6000045F29460CF014FD034628462BB1D6F846
:100A7000BC100CF003FD00B16563A16E28460CF0BC
:100A800007FD0346414628461BB10CF001FD00B1AD
:100A9000A566A742E2D196F8EC3043B9724B1B68C9
:100AA0000093009BC6F8E83004B0BDE8F0816E4CBE
:100AB000D6F8E83022680192019AD6F8F010D21ADE
:100AC0008A4232D222680292029A0B449B1A41F265
:100AD00087329342E8D8022164480BF03DFC644819
:100AE00008F0ECFE062163480BF036FC96F8DC10AB
:100AF0005F4800230A2208F0F9FE19215E480BF036
:100B00002BFC2168D6F8E830D6F8F0200391039C3E
:100B100057489918091B00230A2208F0E7FE544899
:100B200004B0BDE8F04108F0C9BE202200213046E3
:100B30000DF074FB0023C6F89C30C6F8A030C6F850
:100B4000A430C6F8A83004B0BDE8F081273356F8C9
:100B5000234076E7002380F8EC30907A537A000146
:100B600000EB131000F57A700CF082FA3C490CF09F
:100B7000D3FA306344E7002380F8EC30907A537A5C
:100B8000000100EB131000F57A700CF071FA344993
:100B90000CF0C2FA3062207B637B000900EB03108B
:100BA00000F57A700CF064FA2D490CF0B5FAB062D9
:100BB000207BE37A000200F47060184400F57A703C
:100BC0000CF056FA26490CF0A7FA7062E07BA37B82
:100BD000000200F47060184400F57A700CF048FAD6
:100BE0001F490CF099FAF0620AE7002380F8EC3014
:100BF000907A537A000100EB131000F57A700CF034
:100C000037FA17490CF088FA3061207B637B0009C2
:100C100000EB031000F57A700CF02AFA10490CF082
:100C20007BFAB061207BE37A000200F47060184424
:100C300000F57A700CF01CFA09490CF06DFA70613D
:100C4000E07BA37B000200F47060184400F57A702A
:100C50000CF00EFA02490CF05FFAF061D0E600BF2A
:100C60006F12833A0000A040C4D3FF1F90510100CF
:100C7000FC89FF1F4C3E0100543E01002DE9F04766
:100C80000026D0F8BC90104FC0F89C608246051F2B
:100C900000F1300855F8044F494620460CF0F8FBA7
:100CA00003463946204653B10CF0D4FB0346214697
:100CB000304623B10CF028F90646CAF89C00454599
:100CC000E8D13046BDE8F0870000A04002299ABF75
:100CD000283150F821000020704700BF3E2998BFFE
:100CE00080F8DC10704700BFD0F8F400704700BFF8
:100CF000D0F8E400704700BF90F8C400704700BF10
:100D000090F8C500704700BFC0F8D810704700BF0A
:100D100080F8C410704700BFC0F8C010704700BF13
:100D200080F8C510704700BF30B50F4CC0F8BC103C
:100D300083B020460D4608F0C1FD204608F0BEFDF8
:100D400028460BF0C5FF0B460221024600912046C3
:100D500008F0D6FD204608F0B1FD204603B0BDE8FE
:100D6000304008F0ABBD00BFFC89FF1F70B500F537
:100D70007455064600F12C0434352046F834FFF74C
:100D80006BFBAC42F9D106F592750124284600218F
:100D9000FFF7BEFF214628460134FFF79FFF3F2C97
:100DA00005F1F805F2D106F54053074830610021FE
:100DB0007161002205480649B061F16183F83E2D5A
:100DC0003046A3F83C2D70BD00007A440000484333
:100DD0000000C8C270B500F59274012500260DE030
:100DE000012620460021FFF79BFF294620460135BA
:100DF000FFF774FF3F2D04F1F8040FD02046FFF7F2
:100E00007BFF03462046002BEBD0FFF779FF064619
:100E10000028E5D101462046FFF77AFF304670BD35
:100E2000816270472DE9F04F00F5405383B093F88D
:100E30003E4D01933C2C00910ED9DFF89C8201239A
:100E400098F8062001996FF3000281F83E3D88F87A
:100E5000062003B0BDE8F08F0A2C40F27D81142CEF
:100E600005460ED9A4F11903DBB21E2B04D89B4A08
:100E700022FA03F3DA070CD4631CDFF85C82DBB2DE
:100E8000DEE7A4F10B02D2B240F21123D340DB071C
:100E9000F2D5019ADFF84082002382F83D3D05F546
:100EA0009276012705E001373F2F06F1F80600F0A2
:100EB00097803046FFF720FF0028F4D04FF0000B5A
:100EC0005C464FF00109A96AA8680CF01DF8594664
:100ED00082463046FFF790FB014650460CF0BAFAC6
:100EE00018B109FA0BF323439CB20BF1010BBBF1D0
:100EF0000D0FE8D11CB1019A012382F83D3D009B02
:100F0000012B00F0D0800023754AC8F80830C8F8DB
:100F10000C30994644FA09F303F0010309F1010981
:100F2000DB00B9F1080F02F8013FF3D107F1FF3BF5
:100F3000BBF10B0F0AD8DFE80BF096928E8AA6A2BF
:100F40009E9AAEAAB206674BC8F80030B8F80630D1
:100F50006149654803F0FE0343F4006343F0010375
:100F6000A8F8063007F0DAFB012009F011FC5F4910
:100F7000082044FA09F313F0010309F1010914BF31
:100F800008700B70B9F10D0F01F10101F1D1FE23D1
:100F900088F80D304FF6FE63A8F80E30BBF10B0F4A
:100FA0000AD8DFE80BF04C504844403C3834302C31
:100FB00028064F4BC8F80030B8F8063046494A4872
:100FC00003F0FE0343F4006343F001030137A8F884
:100FD000063007F0A3FB3F2F06F1F8067FF469AF58
:100FE000019A92F83D3D002B3FF429AF92F83E3D27
:100FF0000133DBB224E73F4BC8F80030DCE73E4B5F
:10100000C8F80030D8E73D4BC8F80030D4E73C4B77
:10101000C8F80030D0E73B4BC8F80030CCE73A4B7B
:10102000C8F80030C8E7394BC8F80030C4E7384B7F
:10103000C8F80030C0E7374BC8F80030BCE7364B83
:10104000C8F80030B8E7354BC8F80030B4E7344B87
:10105000C8F800307AE7334BC8F8003076E7324BF7
:10106000C8F8003072E7314BC8F800306EE7304BFB
:10107000C8F800306AE72F4BC8F8003066E72E4BFF
:10108000C8F8003062E72D4BC8F800305EE72C4B03
:10109000C8F800305AE72B4BC8F8003056E72A4B07
:1010A000C8F8003052E7294808F008FC0721284812
:1010B0000BF052F93946254808F0F8FB0321254882
:1010C0000BF04AF9002310222146204808F00EFCBC
:1010D0001E4808F0F3FB16E78091FF1F21841042A1
:1010E0008791FF1FAF54551AD0D1FF1F8891FF1F62
:1010F000B054551AAE54551AAC54551A1B54551ABF
:101100001954551A1754551A1554551A1354551A7B
:101110001154551A0F54551A0B54551A0D54551A8B
:101120001054551A0E54551A0C54551A0A54551A7F
:101130001854551A1654551A1454551A1254551A4F
:10114000AB54551A1A54551AAD54551AFC89FF1F41
:10115000703E0100783E0100012C7FF48DAEDFF877
:101160001C828748B8F8063003F0FE0343F400639E
:1011700043F0010300254146A8F80630814BC8F82A
:101180000030C8F80850C8F80C5007F0C7FA2046DD
:1011900009F0FEFA7C4B7A48C8F80030414607F067
:1011A000BDFA204609F0F4FA784B7548C8F80030CB
:1011B000414607F0B3FA204609F0EAFA744B70484A
:1011C000C8F80030414607F0A9FA204609F0E0FAD5
:1011D000704B6B48C8F80030414607F09FFA204634
:1011E00009F0D6FA6C4B6648C8F80030414607F063
:1011F00095FA204609F0CCFA684B6148C8F80030EF
:10120000414607F08BFA204609F0C2FA644B5C486D
:10121000C8F80030414607F081FA204609F0B8FAD4
:10122000604B5748C8F80030414607F077FA20462F
:1012300009F0AEFA5C4B5248C8F80030414607F05E
:101240006DFA204609F0A4FA584B4D48C8F8003012
:10125000414607F063FA204609F09AFA544B484891
:10126000C8F80030414607F059FA204609F090FAD4
:101270004FF0FE334146C8F80C3041484D4BC8F89A
:101280000030C8F8085007F049FA204609F080FA03
:10129000494B3B48C8F80030414607F03FFA20462A
:1012A00009F076FA454B3648C8F80030414607F059
:1012B00035FA204609F06CFA414B3148C8F8003045
:1012C000414607F02BFA204609F062FA3D4B2C48C4
:1012D000C8F80030414607F021FA204609F058FAD4
:1012E000394B2748C8F80030414607F017FA204626
:1012F00009F04EFA354B2248C8F80030414607F055
:101300000DFA204609F044FA314B1D48C8F8003068
:10131000414607F003FA204609F03AFA2D4B1848E7
:10132000C8F80030414607F0F9F9204609F030FAD4
:10133000294B1348C8F80030414607F0EFF9204622
:1013400009F026FA254B0E48C8F80030414607F050
:10135000E5F9204609F01CFA214B0948C8F800308D
:10136000414607F0DBF9204609F012FA019A92F89B
:101370003E3D82F83D5D0133DBB261E58091FF1FA8
:10138000D0D1FF1F0A54551A0C54551A0E54551A31
:101390001054551A1254551A1454551A1654551AF5
:1013A0001854551A1A54551AAB54551AAD54551AA7
:1013B000AF54551A0B54551A0D54551A0F54551A4B
:1013C0001154551A1354551A1554551A1754551AC1
:1013D0001954551A1B54551AAC54551AAE54551A73
:1013E000B054551A38B50C6804F00F0C15460CF1C2
:1013F000FF320D2A00D938BD0CEB0304C4EB4413B3
:1014000000EBC3002C30FFF765F8012DF3D106483F
:1014100008F054FA2146044808F048FABDE838407C
:1014200002480B210AF098BFFC89FF1F7C3E010097
:10143000F8B500F54057002300F57456C7F8403D55
:1014400000F59274343602E0F834B4420FD02046EE
:10145000FFF752FC0028F7D02046D7F8405DFFF791
:101460004BF9F8340544B442C7F8405DEFD1D7F8E2
:10147000400DF8BD012B2DE9F04105460E461746FB
:1014800008D0022B1C4603D14A7B0B68DF2A38D1D7
:10149000BDE8F08108685FFA80F8A8F10B03302BF3
:1014A0000ED800F00F000BF0E3FD4FF07C510BF075
:1014B00033FE4FF07E510BF027FD0BF0F3FF80461B
:1014C000C8EB481405EBC4042C3401212046FFF777
:1014D0001FFC01212046FFF723FC01223146204654
:1014E000FFF708F8012FD3D1184808F0E7F9414673
:1014F000164808F0DBF9BDE8F04115480D210AF067
:101500002BBF03F00F0808F10108C8EB481300EBEC
:10151000C3052C3501212846FFF7FAFB0121284697
:10152000FFF7FEFB224631462846FEF7E3FF012F78
:10153000AED1064808F0C2F94146044808F0B6F9B1
:10154000BDE8F04103480D210AF006BFFC89FF1FEA
:10155000883E0100983E010000F5405393F83D3D60
:1015600003B17047F0B50B68A3F5D87383B0054697
:101570000C463E2B2CD8DFE803F020504A4D535642
:10158000595C5F6265686B6E7174777A7D80838663
:10159000898C8F9295989B9EA1A4E3E9A7ECAAADB4
:1015A000E62BB0B3B62BB9BCBF2BC2C5C82BCBCE74
:1015B000D12BD4D7DA2BDDE02D0000270126A37A2A
:1015C000FF2B05D0637BFF2B02D0E37BFF2B06D1E3
:1015D00003B0F0BD02271026A37AFF2BF8D0012A12
:1015E00000F0BA80C6EB461605EBC6052C3528463A
:1015F0000121FFF78DFB28460121FFF791FB2246D1
:101600003946284603B0BDE8F040FFF7B3B90227DA
:101610000126E1E703270126DEE701273E46CEE764
:1016200000270226CBE701270226C8E702273E460D
:10163000D2E703270226CFE700270326BFE70127CB
:101640000326BCE702270326C6E703273E46C3E777
:1016500000270426B3E701270426B0E70227042663
:10166000BAE703270426B7E700270526A7E70127DF
:101670000526A4E702270526AEE703270526ABE7E4
:10168000002706269BE70127062698E7022706265D
:10169000A2E7032706269FE7002707268FE70127F3
:1016A00007268CE70227072696E70327072693E7F6
:1016B0000027082683E70127082680E70227082657
:1016C0008AE70327082687E70227092684E70027F9
:1016D0000A2674E701270A2671E700270B266EE722
:1016E00001270B266BE702270B2675E700270C2640
:1016F00065E701270C2662E702270C266CE7002726
:101700000D265CE701270D2659E702270D2663E722
:1017100000270E2653E701270E2650E702270E2644
:101720005AE700270F264AE701270F2647E7022737
:101730000F2651E70027102641E7012710263EE734
:10174000002709263BE702270A2645E70127092645
:1017500035E7032709263FE70A48019208F0AEF86B
:101760003146084808F0A2F8019A074811460AF0E5
:10177000F3FD3946034808F099F8032103480AF0BD
:10178000EBFD2FE7FC89FF1FA83E0100783E01001A
:101790002DE9F04F0023DFF86491DFF86481594FA1
:1017A000036083B0064600F59274012504E001351C
:1017B0003F2D04F1F80468D02046FFF79DFA002879
:1017C000F5D0484600F0B2FD2946404600F0AEFD97
:1017D0002046FFF753FA0BF07BFA02460B463846D9
:1017E00000F0A4FD2046FEF70DFF82462046FEF7DE
:1017F00027FF834650460BF06BFA02465846924646
:101800008B460BF065FA5B465246CDE900013E4837
:1018100000F08CFD00212046FFF758FA0121824696
:101820002046FFF753FA834650460BF051FA024622
:10183000584692468B460BF04BFA5246CDE90001D2
:101840005B46324800F072FD2046FFF717FA01466A
:1018500030680BF059FB30602046FFF74BF8B16958
:101860000BF0F8FD002833D12046FEF749FFF1695F
:101870000BF00EFE00289AD02046FEF741FF0135FE
:101880003F2DF06104F1F80496D170680BF0F0FB85
:10189000014630680BF0F4FC7169306004460BF0CF
:1018A000F7FD00B17461316920460BF0D3FD00B142
:1018B00034610B2008F002FF06F5405696F83C3DD7
:1018C00058B9B3B1012386F83C3D03B0BDE8F08FB1
:1018D0002046FFF70FF8B061C6E72BB9002386F862
:1018E0003C3D03B0BDE8F08F094800F031FD002316
:1018F000F5E7084800F040FDE4E700BF244501009B
:10190000AC3E0100E83E0100FC3E0100283F010022
:101910007C3F0100443F010070B5114B836000F52E
:101920007455064600F59274343502E0F834AC4242
:1019300013D02046FFF7E0F90028F7D02046FEF745
:1019400061FEB1680BF086FD0028EFD02046FEF75F
:1019500059FEF834AC42B060EBD1B06870BD00BF46
:101960000000A04070B5002300F574550646C36022
:1019700000F59274343502E0F834AC4213D02046BE
:10198000FFF7BAF90028F7D02046FEF759FEF168B4
:101990000BF07EFD0028EFD02046FEF751FEF83414
:1019A000AC42F060EBD1F06870BD00BF00687047DA
:1019B00000F54050D0F8380D704700BF41607047C7
:1019C0002DE9F04100F57455884617461E4600F58E
:1019D0009274343502E0F834AC4213D02046FFF75D
:1019E0008BF90028F7D020464146FFF78DF92046B5
:1019F0003946FFF799F920463146F834FFF78CF95C
:101A0000AC42EBD1BDE8F0812DE9F8432A4A2B4BDB
:101A1000DFF8AC90426200F574558046036200F531
:101A2000927434350026002702E0F834A54210D025
:101A30002046FFF761F90028F7D02046FEF77EFE2A
:101A400049460BF025FD88B9F834A54206F1010698
:101A5000EED108F54058D8F8380D801B0BF008FB84
:101A6000014638460BF00CFCBDE8F8832046FEF733
:101A700065FE014638460BF047FA07462046FEF75A
:101A80003FFED8F820100BF003FD70B92046FEF79A
:101A900031FFD8F824100BF0DDFC0028C5D020461B
:101AA000FEF728FFC8F82400BFE72046FEF728FE0F
:101AB000C8F82000EAE700BF00C0794400C079C43C
:101AC00000008CC2006A7047406A70472DE9F041FF
:101AD00000F540580026002300F57455C8F8383D3D
:101AE00000F592743435374602E0F834AC421DD02C
:101AF0002046FFF701F90028F7D02046FEF7C6FD83
:101B000039460BF0C5FC03462046002BEDD0FEF70E
:101B1000BDFD014630460BF0F7F9D8F8383DF834F2
:101B20000133AC420646C8F8383DE1D1D8F8380D4B
:101B30000BF09EFA014630460BF0A2FBBDE8F081A7
:101B40002DE9F04F91B00446A4480E9100F094FBAB
:101B5000A24800F091FB04F54058A04804F57457E2
:101B600000F08AFB04F5927500233437D8F838BDAD
:101B7000C8F8403D2E46B94602E0F836B1450FD0D0
:101B80003046FFF7B9F80028F7D03046D8F8407D46
:101B9000FEF7B2FDF8360744B145C8F8407DEFD1F5
:101BA000D8F8402D20680F920BF092F863680D93DF
:101BB000064620460F46FFF789FF80462046D4F8A8
:101BC0000890D4F80CA0FFF71FFF0BF081F8CDE9C7
:101BD0000A01494650460BF095F981490BF09CFAF1
:101BE0000BF076F8CDE9080150460BF071F8CDE91D
:101BF000060148460BF06CF8CDE9040140460BF0B5
:101C000067F80D9B0F9ACDE90201CDE90067754891
:101C1000754E594600F030FB704800F02DFB002354
:101C20004FF001080D9307E008F10108B8F13F0FEC
:101C300005F1F80500F09D802846FFF75DF80028C3
:101C4000F2D02846FEF7C8FC2846FEF7C9FC284615
:101C5000FEF7CAFC2846FEF7CBFC082163480AF0D1
:101C60007BFB4146304607F021FEB8F1090F40F3F7
:101C7000B08002215E48DFF87CA10AF06DFB2846A7
:101C8000FEF7FCFF0BF024F89DF83890CDF800909B
:101C90000B460246304607F033FE574801210AF052
:101CA0005BFB2B46DDF834B04D46002499461FE01F
:101CB000062152480AF050FB5946304607F0F6FD1F
:101CC00002214F480AF048FB21464846FEF794FCA3
:101CD0000AF0FEFF009502460B46304607F010FE64
:101CE0000134454801210AF037FB0D2C0AD0BB46D0
:101CF000BBF1090F0BF10107DADC012150460AF0B4
:101D00002BFBD5E7304607F0D9FD4846FEF7ECFF40
:101D10000D9B04460D33012C3A480D934D464FF070
:101D2000090129D00AF018FB00214846FEF7CEFF32
:101D30000AF0CEFF0B46022102460091304607F022
:101D4000DFFD0E2130480AF007FB2846FEF7D0FFE2
:101D5000002301461022304607F0C8FD08F10108B3
:101D6000304607F0ABFDB8F13F0F05F1F8057FF401
:101D700063AF11B0BDE8F08F0AF0EEFA00214846DB
:101D8000FEF7A4FF0AF0A4FF022702460B460097C5
:101D9000304607F0B5FD0A211C480AF0DDFA21465D
:101DA0004846FEF793FF0AF093FF009702460B4662
:101DB000304607F0A5FD0A2115480AF0CDFA39464C
:101DC0004846FEF783FF0AF083FF009702460B4662
:101DD000B4E7012107480AF0BFFA4AE724450100A9
:101DE00000007A442C420100FC89FF1FCC42010014
:101DF0009051010098430100D8420100DC420100EB
:101E000088430100E442010008430100F042010060
:101E1000FC4201002DE9F04F87B000F59274DFF825
:101E20004882DFF84892039104929B462646012798
:101E30000594924604E001373F2F06F1F80675D06D
:101E40003046FEF759FF0028F5D000230A220399F7
:101E5000404607F04BFD012148460AF07DFA504606
:101E60000AF036FF0B46002102460091404607F07B
:101E700047FD012148460AF06FFA5946404607F0EF
:101E800015FD012148460AF067FA3946404607F039
:101E90000DFD012148460AF05FFA00240225214683
:101EA0003046FEF7A9FB0AF013FF009502460B46E9
:101EB000404607F025FD0134012148460AF04CFA5E
:101EC000082CECD100213046FEF700FF0AF000FF9D
:101ED000009502460B46404607F012FD0121484698
:101EE0000AF03AFA01213046FEF7F0FE0AF0F0FE61
:101EF000009502460B46404607F002FD0121484688
:101F00000AF02AFA02213046FEF7E0FE0AF0E0FE6F
:101F1000009502460B46404607F0F2FC013740466A
:101F200007F0CCFC3F2F06F1F80689D1059C504FF5
:101F3000DFF8388101264FF0000A04E001363F2E19
:101F400004F1F8045CD02046FEF7D6FE0028F5D058
:101F500000230A220399384607F0C8FC01214046B5
:101F600008F0CCFE04980AF0B3FECDF800A00246BB
:101F70000B46384607F0C4FC0121404608F0BEFE7F
:101F80005946384607F092FC0121404608F0B6FE5B
:101F90003146384607F08AFC0121404608F0AEFE83
:101FA00000254FF0020929462046FEF725FB0AF0DE
:101FB0008FFECDF8009002460B46384607F0A0FC95
:101FC00001350121404608F099FE0D2DEBD1204648
:101FD000FEF78AFE0546012D4FF00001204612D083
:101FE000FEF774FE0AF074FE013602460B46CDF889
:101FF0000090384607F084FC3F2E04F1F804A2D18B
:1020000007B0BDE8F08FFEF761FE0AF061FECDF883
:10201000009002460B46384607F072FC29464046BF
:1020200008F06CFE29462046FEF750FE0AF050FEEE
:10203000CDF8009002460B46384607F061FC294671
:10204000404608F05BFE02212046FEF73FFE0AF004
:102050003FFECDF8009002460B46384607F050FC94
:10206000384607F02BFC69E7FC89FF1FA83E0100FA
:10207000BC88FF1F70B500F54054002300F574556F
:10208000C4F8443D00F59276343502E0F836B542A6
:102090001AD03046FEF730FE0028F7D03046FEF763
:1020A00027FE202310F0010F03F1FF334FEA500009
:1020B00004D0D4F8442D0132C4F8442D13F0FF03AA
:1020C000F0D1F836B542E4D1D4F8440D70BD00BF6C
:1020D000014B1870704700BF2488FF1F0278002A48
:1020E00000F0B8802DE9F0435C4FDFF874815D4E5D
:1020F00083B003460D46252A34D158785C1C00284D
:1021000038D0A0F12503552B2ED8DFE803F09F2D02
:102110002D2D2D2D2D2D2D2D2D2D2D2D2D2D2D2DEF
:102120002D2D2D2D2D2D2D2D2D2D2D932D2D2D2D79
:102130002D2D2D2D2D2D2D2D2D2D2D2D2D882D2D74
:102140002D7C2D2D2D2D2D2D2D2D2D7439392D5EE0
:102150002D2D392D2D392D2D2D2D2D2D493F2D2D69
:102160002D562D6918781C460AF07AF96278631C9E
:10217000002AC0D13C4803B0BDE8F04307F09EBB45
:1021800055F8041B384807F091FBEFE755F8041B9E
:1021900001290EBF3548012130460AF0DDF8E5E798
:1021A00055F8049BB9F1000FE0D048460CF068F9EF
:1021B000014648460AF0D0F8D8E755F8041B2A48EB
:1021C0000023102207F092FBD0E7073525F0070522
:1021D0000321F5E802232448009107F091FBC5E7AD
:1021E000073525F007050021F5E802231E48009178
:1021F00007F086FBBAE755F8041B1B4800230222B0
:1022000007F074FBB2E7022119480AF0A5F855F867
:10221000041B15480023102207F068FBA6E755F8B9
:10222000043B012B07BF04214046052138460AF034
:1022300093F89BE702210F480AF08EF855F8041B2B
:1022400009480023022207F051FB8FE725200AF0FE
:1022500007F98BE7044807F031BB00BF30430100AA
:102260002843010024430100FC89FF1F2043010093
:10227000184301001C4301000FB400B583B004A94A
:1022800051F8040B0191FFF729FF03B05DF804EB4F
:1022900004B07047F0B51C4B1C4F1B6883B004465C
:1022A0000193019B3B600D46164619460A22002306
:1022B000174807F01BFB032116480AF04DF8032CC2
:1022C00007D8DFE804F01B160211134807210AF0B3
:1022D00043F8022111480AF03FF83146284603B07E
:1022E000BDE8F040FFF7FABE05210D480AF034F8CA
:1022F000EFE704210B480AF02FF8EAE705210A4826
:102300000AF02AF8E5E700BFC4D3FF1F9091FF1F32
:10231000FC89FF1F384301004C4301008843010042
:1023200054430100444301003C4301000FB400B595
:10233000064B187883B020B905AA04990192FFF7DB
:10234000A9FF03B05DF804EB04B070472488FF1FB9
:102350000FB4084B00B51B78012B83B005D805AA34
:10236000049901920120FFF795FF03B05DF804EB9B
:1023700004B070472488FF1F0FB4084B00B51B78CA
:10238000032B83B005D805AA049901920320FFF717
:1023900081FF03B05DF804EB04B070472488FF1F91
:1023A00030B4074D074C084900232B7023600365A8
:1023B00030BC4365836580F85C300B60704700BFBC
:1023C0009891FF1F9491FF1F9C91FF1F70B51320E0
:1023D00008F074F958B9114C08F0BAF92268104B9A
:1023E000801A80B2188008F0B3F9206070BD0C4DDF
:1023F0000A4B2C881E6808F0ABF9A4B23444201AAA
:102400002A880849C0EB00139B0092B2A3F634035C
:10241000B3FBF2F39BB20B8070BD00BFD4D0FF1FA3
:10242000D4CFFF1FD891FF1FDDF800C0521AACEBCC
:10243000030C1CD0401ABCF1000F0CFB00F002EBA7
:10244000D27109DB00EB610000FB02F1002990FB77
:10245000F2F0184410DB7047A0EB610000FB02F1C2
:10246000002990FBF2F01844F5DB013070470CEBCB
:10247000DC7C03EB6C00704701387047114B10B5E2
:102480004FF47A701C7807F033FC844204D0214664
:102490004FF47A7007F046FC0B4B0C485A7842F028
:1024A00040025A701A7842F040021A7007F006FA99
:1024B0000748072109F050FFBDE81040034807F026
:1024C000FDB900BF2888FF1F00D00740FC89FF1F0F
:1024D0005C43010038B5044649B108460D460BF08F
:1024E000CFFF236802465B6829462046984720466E
:1024F000BDE8384007F0E2B92DE9F0474048414EC9
:10250000414CDFF80891DFF80881424FFFF7B4FE35
:10251000414B4249D9604249196142495961424996
:10252000596242499961DE624FF07C51002659643C
:1025300019651E634FF496713D4E196699665E6388
:1025400040F61C413B4ED9669E630A213A4E1967FC
:1025500040F2122541F204015E60384E1D80596739
:10256000374D1E625A21374EDC61002201209D62E8
:10257000DC6364250C2499679E643221324E83F813
:10258000402040F2012AC3F8D4005C659865596682
:10259000DE64DD652D4EA3F808A0DA67C3F8842059
:1025A000C3F8A820FF220224DFF8A4E0DFF8A4C0CB
:1025B000C3F8B400C3F89C10C3F8AC10C3F8B02043
:1025C00044F6206041F288314FF47A72C3F8C86053
:1025D000C3F88890C3F89080C3F894E0C3F8BC5067
:1025E000C3F8C070C3F8C4C0C3F88040C3F8B84093
:1025F000C3F88C00C3F89810C3F8A020BDE8F0879A
:1026000064430100000020C1CDCC4C3ED606D60666
:102610000000684288130500DCD0FF1F6666864014
:102620000000404033338340CDCCCC3DCDCC4C403A
:10263000000020420000A04020A107003333734077
:10264000000082429A9979400AD7233D0101F401A2
:1026500000C020449A99993EF8B5504D504C5148CD
:10266000E66800232B70FFF77DF9014630460AF03B
:10267000F1FE002814BF042308232B704948FFF7FC
:102680004BF921690AF0E6FE2B78002879D043F057
:1026900010032B704348FFF715FAA16A0AF0F8FE01
:1026A0002B78002876D043F0400300272B706F7002
:1026B0003C48FFF709FAE16A0AF0CCFEB84214BFC1
:1026C000012302236B70EF703648FFF74BF9064683
:1026D0003448FFF721F9014630460AF013FCE16B5C
:1026E000314E0AF0D5FEB84214BF01230223EB702D
:1026F0002C483770FFF736F9616A0546E0680AF042
:1027000001FC014628460AF0C3FEB84214BF042368
:10271000082333702348FFF7FFF8616A05462069F4
:102720000AF0F2FB014628460AF094FE337870B3B3
:1027300043F0100333701B48FFF7C4F9A16B054643
:10274000A06A0AF0DFFB014628460AF0A1FE3378B2
:10275000D0B143F040030022727033701148FFF78C
:10276000B3F9A16B0346E06A1C460AF0CDFB0146B3
:1027700020460AF06FFE002814BF01230223737065
:10278000F8BD43F0200384E743F08003E3E743F020
:102790002003CFE743F0800387E700BFE091FF1FEE
:1027A000DCD0FF1FF091FF1FC8D1FF1F2DE9F041C2
:1027B0007F4C2368012B82B049D0022B00F0C380EC
:1027C000032B03D02BB302B0BDE8F081794B7A4ED6
:1027D0004FF47A721A60D6F8AC000AF049FC05464C
:1027E000D6F8B0000AF044FC29460AF08BFB734986
:1027F0000AF092FC71490AF043FD29460AF084FB75
:102800000AF050FE0146062007F0B6FD2368002BB3
:10281000D9D1694B6A48D3F8AC10D3F8B02003681B
:102820006848521A002A02FB03F3C0F2B280323326
:1028300080FB0320DA17C2EB6012002B1144C0F2B8
:10284000B480062002B0BDE8F04107F095BD594FB5
:1028500038680A30B0F57A7F00F3968038600AF065
:1028600007FC59490AF058FC8046534ED6F8AC0094
:102870000AF0FEFB0546D6F8B0000AF0F9FB29463F
:102880000AF040FB41460AF047FC4C490AF0F8FCCC
:1028900029460AF039FB0AF005FE0146062007F03A
:1028A0006BFD0221494809F057FD494807F006F839
:1028B0000621484809F050FD38680AF0D9FB424922
:1028C0000AF02AFC0AF004FA4FF0020802460B460E
:1028D0003F48CDF8008007F013F80D213E4809F07D
:1028E0003BFDD6F8AC000AF0C3FB054638680AF099
:1028F000BFFB35490AF010FC0346D6F8B0001E466F
:102900000AF0B6FB29460AF0FDFA014630460AF005
:1029100003FC2A490AF0B4FC29460AF0F5FA0AF049
:10292000D7F9CDF800800B460246294806F0E8FFAB
:102930004146264809F010FD254806F0BFFF2368F0
:10294000022B7FF43DAF1B4B1B4E00221A60D6F8C2
:10295000AC000AF08DFB0546D6F8B0000AF088FB03
:1029600029460AF0CFFA00210AF0D6FB13490AF0F3
:1029700087FC29460AF0C8FA0AF094FD01460620B1
:1029800007F0FAFC23681BE700234FF000083B60C8
:102990006BE7323B80FB0320DA17C2EB6012002B9F
:1029A0001144FFF64EAF01314BE7013949E700BF53
:1029B000E0CFFF1FD091FF1FDCD0FF1F0000C842F7
:1029C0002888FF1F1F85EB51CDCCCC3D90510100D5
:1029D000FC89FF1F844301008C43010070B5AF48A0
:1029E000AF4C06F06BFFAD4806F068FFAB4806F051
:1029F00065FFAC480D2109F0AFFCD4F8A830012BDD
:102A000011D0A94CA548217800230A2206F06EFFB8
:102A10002378052B57D8DFE813F016011B0120019E
:102A200025012A0111010921A04809F095FCA048BF
:102A3000FEF772FF21690AF00DFD002840F07B814E
:102A40009B48FEF78FFFE1680AF022FD002840F066
:102A50007C819748FEF786FF05469548FEF75CFFA8
:102A6000014628460AF04EFAE16B0AF011FD0028F3
:102A700040F066818E48FEF7C7FFA16A0AF008FDA4
:102A8000002840F06C818A48FEF7BEFFE16A0AF038
:102A9000E1FC002840F05E81864B85481B68012BD5
:102AA00000F03A81FEF738FF21690AF0F1FC0028B6
:102AB00040F0E2800721804809F04EFC7F4B7748C8
:102AC000196806F0F3FE02217D4809F045FC12204A
:102AD00007F0F4FD012800F0AC80112007F0EEFDB6
:102AE000012800F0A180774B1B68012B00F090803B
:102AF00003217548754C09F02FFC754B6748196820
:102B000006F0D4FE0821734809F026FC724B634896
:102B1000198806F0CBFE614806F0D0FE04216F480C
:102B200009F01AFC0B2007F0C9FD002301460A2218
:102B30005A4806F0DBFE0C2007F0C0FD00230146DA
:102B40000A22564806F0D2FE142007F0B7FD0023F3
:102B500001460A22514806F0C9FE152007F0AEFDD5
:102B60000A22014600234D4806F0C0FE06215C48BB
:102B700009F0F2FB2368D8074BBF01210121594816
:102B8000594809F0E9FB236899074BBF012101214E
:102B90005448554809F0E0FB23685A074BBF012110
:102BA00001215048504809F0D7FB23681B074BBF51
:102BB000012101214B484C4809F0CEFB04214B4830
:102BC00009F0CAFB112007F079FD002301460A2213
:102BD000324806F08BFE102007F070FD00230146FE
:102BE0000A222E4806F082FE122007F067FD00231D
:102BF00001460A22294806F079FE132007F05EFDFF
:102C0000BDE870400146002324480A2206F06EBE4B
:102C10001421374809F0A0FB2548FFF72BFA01469D
:102C20001E4806F043FE63E70A21324809F094FB90
:102C300059E70E21304809F08FFB4EE707212F4856
:102C400009F08AFB3FE706212D4809F085FB3AE7AA
:102C500007212C4809F080FB35E707212A4809F0B5
:102C60007BFB30E70821294809F076FB2BE70B2195
:102C7000274809F071FB26E70D48FEF773FEE1686F
:102C80000AF0E8FB00283FF415AF074B1B78052B33
:102C90006AD10A211F4809F05FFB0BE7FC89FF1F7F
:102CA000DCD0FF1F9C43010038CFFF1FAC43010065
:102CB000F091FF1FB4D1FF1F3C440100B091FF1FF2
:102CC00090510100E891FF1FB0440100B8CFFF1FF1
:102CD00040CFFF1FB44401002C88FF1FC0440100F7
:102CE000C8440100D0440100D4440100D84401008C
:102CF000984401008C4401007C44010074440100AC
:102D0000444401004C440100604401006844010057
:102D10005444010024440100FEF7FEFD216A0AF03C
:102D2000B7FB08B31621134809F016FB0A21124815
:102D300009F012FBBEE60F21104809F00DFB7FE6FB
:102D400011210F4809F008FB94E60E210D4809F007
:102D500003FB7EE60D210C4809F0FEFA9CE60C21EF
:102D60000A4809F0F9FA8EE60821094809F0F4FA50
:102D7000A0E600BF0C44010024440100B843010058
:102D8000D8430100C8430100FC430100EC430100AB
:102D9000304401002DE9F047B54CD4F88060012E95
:102DA0008CB000F04481032E5CD0DFF8C882B24FB3
:102DB000B24EE36FB248012B09BF3168316801F1AF
:102DC0000041316006F01EFB3B68002B40F015818E
:102DD000AB4806F0EBFA3B68C8F800000546002B4C
:102DE00040F0FB80D4F88030012B00F0BA80A54978
:102DF00028460AF04DFB30B9A34928460AF02AFBC1
:102E0000002800F0E081DFF884A2DFF88492DAF88D
:102E100000300A930A98D9F800309E4FC01A0AF081
:102E200023F929460AF078F99B490AF029FA9A49C8
:102E30000AF026FA39680AF067F8DAF800300993E0
:102E4000099B3860C9F80030D4F8B4000AF010F9D2
:102E500029460AF061F90023C8F8000033600CB07D
:102E6000BDE8F0878D4D8E4F2A68DFF80882D2F8D2
:102E7000840001230F213B6006F082F93B687E4FFE
:102E8000012B3B6800F02C81002B40F0AF812B68B8
:102E9000DFF81092D3F88400436B1E69B6B2C9F80C
:102EA000006005F0B5FEB4F88A2040F6E44306FB66
:102EB00003F3B3FBF0F0801A00B20AF0D9F87A49B4
:102EC0000646D4F890000AF027F9014630460AF089
:102ED000D7F9D9F80030694E632B306000F37A815E
:102EE000002333603B68002B3FF463AF02216F483F
:102EF00009F032FA2B68D9F80050D3F8840040F674
:102F0000E44303FB05F505F083FEB5FBF0F00AF0A2
:102F1000ABF80546B4F88A000AF0AAF8014628463C
:102F200009F0F0FF09F0D4FE022502460B46009599
:102F30005F4806F0E5FC29465C4809F00DFA306868
:102F400009F0C6FE009502460B46594806F0D8FC2B
:102F50002946584809F000FA2946544809F0FCF976
:102F600027E74F4B1B68012B00F07581022B7FF484
:102F70006BAFD4F88C7038460AF07AF829460AF01C
:102F800069FA40B978420AF073F829460AF080FAE3
:102F9000002800F0CE81DFF8F4A0DFF8F490DAF832
:102FA000003007930798D9F800303A4FC01A0AF05A
:102FB0005BF829460AF0B0F837490AF061F936495A
:102FC0000AF05EF9396809F09FFFDAF800300693DD
:102FD000069B3860C9F8003036E709F079FE0B46E9
:102FE000022102460091324806F08AFC3248042150
:102FF00009F0B2F9D8F80050F4E6214806F0D6F905
:1030000009F066FE0B46022102460091284806F0B0
:1030100077FC0321294809F09FF9D4F88C10244843
:1030200006F044FC0321254809F096F9D0E6DFF8C4
:103030004480D4F88C70D8F8005038460AF018F85C
:1030400029460AF025FA00283AD078420AF010F80A
:10305000014628460AF01CFA90B3104D104F28681C
:103060003E604FF0FF320F2105F07CFD06E700BF08
:10307000DCD0FF1FC8CFFF1FCCCFFF1FC091FF1FA9
:1030800010D0FF1F0000FA430000FAC3C4D3FF1F93
:1030900004D0FF1FE491FF1F00007A44DC91FF1F62
:1030A0007888FF1FBCD1FF1FACC5273790510100A6
:1030B000FC89FF1F1C45010020450100783E0100EE
:1030C0009F4FA04D02233B602B680E21D3F8840054
:1030D00006F056F83B689C4F012B3B687FF4D4AE5A
:1030E000002B40F0E5802B68DFF86092D3F8840075
:1030F000436B1E69B6B2C9F8006005F089FDB4F8EB
:10310000883040F6E44A0AFB06F6B6FBF0F6F01A01
:1031100000B209F0ADFF8E490646D4F8940009F0DC
:10312000FBFF014630460AF0ABF82B68894E024699
:10313000D3F88400D9F8003032600AFB03FA05F0B6
:1031400067FDB4F88820BAFBF0F31BB29B1A002B82
:10315000B4F8C220B8BF5B429A42C4BF00233360B8
:103160003B68002B3FF425AE02217B4809F0F4F8C0
:103170002B68D9F80050D3F8840040F6E44303FBF1
:1031800005F505F045FDB4F88810B5FBF0F52DB256
:10319000691A724806F08AFB02216F4809F0DCF8D0
:1031A000306809F095FD022502460B4600956B48F4
:1031B00006F0A6FB03216A4809F0CEF829466648C6
:1031C00009F0CAF8F5E5674B1B680B93664B0B9A41
:1031D0001A6039E62B68D3F8840005F019FDD9F898
:1031E000003064389842FFF47BAE7BE65B48DFF842
:1031F0005C9106F063FB0C215C4809F0ADF85C487B
:103200000C2109F0A9F82B683A68D3F88400436BC5
:103210001E69B6B2C9F80060002A3FF442AE05F05C
:10322000F7FC40F6E442002306FB02F2B2FBF0F1A9
:103230000A224A4806F05AFB0221474809F08CF856
:10324000B4F88A10454806F031FB2B68D9F80060C5
:10325000D3F8840025E6474928460AF019F928B929
:10326000454928460AF0F6F800285BD0DFF8F4A0BC
:10327000DFF8F490DAF8003004930498D9F80030BD
:103280003E4FC01A09F0F0FE294609F045FF3C49BF
:1032900009F0F6FF3A4909F0F3FF396809F034FE06
:1032A000DAF800300393039B3860C9F80030CBE5AF
:1032B0002A48DFF8989006F001FBD4F88030012B03
:1032C0000CBF304830480B2109F046F828480C2143
:1032D00009F042F82A683B68D2F88400426B16690C
:1032E000B6B2C9F80060002B3FF407AF05F090FCC0
:1032F00040F6E44306FB03F30A22B3FBF0F100239C
:10330000164806F0F3FA0121204809F025F8B4F830
:103310008810124806F0CAFA2B68D9F80060D3F872
:103320008400EAE60F4B1B6805930F4B059A1A6061
:103330008AE50C4B1B6808930B4B089A1A6083E5CF
:103340007888FF1FDC91FF1FCCCFFF1FBCD1FF1F70
:10335000ACC52737C091FF1F90510100FC89FF1FAA
:1033600008450100C4D3FF1F04D0FF1F0C45010016
:10337000F84401000000FA430000FAC3E491FF1F83
:1033800000007A44E0440100EC440100984301004D
:103390002DE9F04FA94DAA4C2B68012B87B000F006
:1033A0000A81A84EA84FDFF8A492D9F80030002B6C
:1033B00000F0A680D4F85CB0A56DDFF89482A54932
:1033C000386809F0A9FE05FB0BF581464FF47A70C9
:1033D00005FB00F009F04CFE0146484609F050FF9D
:1033E0009D4909F099FE0AF05DF8D4F88430306008
:1033F000012B054656D0D4F88030002B52D0632DD7
:1034000073DDA36DE06D03FB00F04FF47A7303FBF3
:1034100000F009F02DFE8F4909F032FF642333607C
:10342000D8F800303860002B67D0D4F88030012BFA
:1034300000F0E880032B00F0F380022B00F0F9800D
:103440000221864808F088FF854B186809F040FC87
:10345000022402460B460094824806F051FA2146A7
:10346000814808F079FF21467C4808F075FF3168F3
:103470007C4806F01BFA06217C4808F06DFF38688E
:10348000744909F049FE09F023FC009402460B46FA
:10349000744806F035FA7648032107B0BDE8F04FCE
:1034A00008F05ABF7348FEF737FA734909F034FE43
:1034B0000AF01EF8A56F626FE16E236F009580B26F
:1034C000FEF7B2FF05463060E06DA36D05FB00F02E
:1034D00003FB00F000EB8000400009F0C9FD5D49EE
:1034E00009F0CEFE632D38608BDC002DBCBF0023BD
:1034F0003360D8F80030002B97D107B0BDE8F08FCB
:10350000DFF878A1DAF80030002B37D0D4F85CB0BF
:10351000A56DDFF83C81012B7FF451AF306800FBD3
:103520000BF005FB00F000EB8000554D400009F06A
:103530009FFD484909F0A4FE2B680493049A386063
:1035400042F228339A4200F2E2802B680593059AF2
:1035500042F210739A420DD9D8F800300122C9F80E
:103560000020002B40F0DB80D4F8A830012B04BFF2
:10357000444A1370D4F85CB0A56D20E7404D2A682A
:103580000292029A42F228339A4200F2B8802B68E3
:103590000393039A42F210739A427FD8D9F800300D
:1035A000D4F85CB0A56DDFF8A880002B7FF407AFDE
:1035B000DAF80030AFE72F48FEF7AEF92E49666F14
:1035C000276F09F0A9FD09F093FF3246A66FE16E5F
:1035D00000963B4680B2FEF727FF1A4EE36D30603F
:1035E00003FB00F0A36D184F03FB00F000EB80001D
:1035F000400009F03DFD174909F042FE0023386004
:103600002B60D0E6204B1B68012B0CBF1F482048C5
:103610000A2108F0A1FED4F88030032B7FF40DAF0F
:103620001C48102108F098FED4F88030022B7FF45B
:1036300007AF0721184808F08FFE01E7C891FF1F68
:10364000DCD0FF1F2888FF1FE491FF1FCC91FF1FD4
:103650004C88FF1FE4388E3E0000C84290510100A4
:10366000C8CFFF1FFC89FF1F1C450100B8450100A2
:10367000C0450100F091FF1F00007A44C491FF1F74
:10368000C4D3FF1F38CFFF1F7888FF1F8445010078
:10369000904501009C450100B04501003448DFF829
:1036A000D480FEF739F9344909F036FD09F020FFDE
:1036B000A56F236F626FE16E009580B2FEF7B4FED6
:1036C000D4F85CB0A56D30600BFB00F005FB00F09A
:1036D00000EB8000400009F0CBFC284909F0D0FD48
:1036E000D8F8003038600122C9F8002033BBD4F884
:1036F000A830012B7FF463AE214A13705FE6236D7F
:10370000626C94F840101A48FEF75AF93FE7236DAF
:10371000626C94F840101648FEF752F915E7022142
:10372000184808F019FE184806F0C8F8592117483B
:1037300008F012FE144806F0C1F815E702211148FE
:1037400008F00AFE104806F0B9F859210F4808F0B1
:1037500003FE0D4806F0B2F8D4F8A830D4F85CB0F7
:10376000A56D012B04BF064A1370D9F800301CE781
:10377000F091FF1F4C88FF1F00007A44E4388E3E12
:1037800038CFFF1F90510100FC89FF1F2845010021
:1037900030B5112083B006F091FF012804D012202B
:1037A00006F08CFF012822D10121152006F060FFD0
:1037B0002A4B2B4A2B4C1B682B4D1168019302227C
:1037C000D4F898302A60019A0B44934208D8D4F870
:1037D000A00009F04DFC254B196809F03BFED0B163
:1037E00001210C2003B0BDE8304006F041BF0021AC
:1037F0000B2006F03DFF00210C2006F039FF0021D0
:10380000152006F035FF1A49174B012000220870D9
:103810001A6003B030BD01210B2006F029FF94F897
:10382000C83003242C604BB1114B02221A700021C6
:103830000C2003B0BDE8304006F01ABF122006F09D
:103840003DFF012808BF0A4B4FF0110008BF1C7054
:1038500006F034FF0128EAD1E6E700BFC4D3FF1F1A
:10386000B891FF1FDCD0FF1FB4CFFF1FC8CFFF1FD1
:1038700038CFFF1FF0B5714E714C33682568AB42ED
:1038800087B02DD013F001014BD013F002015FD0AF
:1038900013F0040151D0DA070ED52268D7070BD4F4
:1038A000684D2A68002A00F09380674B1B680193DB
:1038B000019B93427FD833689D0714D4590722D5C2
:1038C000226852070DD4614F3A68002A00F09E80AA
:1038D0005D4B1B680593059B934200F2868035681B
:1038E000A5B107B0F0BD226890073DD4584D2A68B5
:1038F000002A49D0544B1B680393039B9A4236D34A
:1039000033685907DCD41D46002DEAD1294616201C
:1039100006F032FD2946172007B0BDE8F04006F05A
:103920002BBD162006F028FD2268336802F0FE0247
:1039300013F002012260ABD10AE0052006F01CFD65
:103940002268336802F0FB022260DA07B4D5A4E7EC
:10395000172006F011FD2268336802F0FD0213F013
:103960000401226097D1E8E75B07AAD4B9E7394B95
:103970001720D3F89C1006F0FFFC2368002243F0C8
:10398000020323602A60BBE7334805F097FF0C2150
:10399000324808F0E1FC304805F090FFFF21172085
:1039A00006F0EAFC284B2E491A680292029A09682E
:1039B0000A442A609FE7274B1620D3F89C1006F094
:1039C000DBFC2368002243F0010323602A6072E7D6
:1039D000FF21162006F0D0FC1B4B21491A680092EB
:1039E000009A09680A442A6060E71A4B0520D3F858
:1039F0009C1006F0C1FC23683568002243F00403E4
:103A000023603A60002D7FF46CAF7FE7124805F029
:103A100055FF0C21134808F09FFC0F4805F04EFF9E
:103A2000FF21052006F0A8FC074B0D491A680492F7
:103A3000049A09680A443A604BE700BFB4CFFF1FFD
:103A4000B8CFFF1FBCCFFF1FC4D3FF1FC4CFFF1FC2
:103A5000C0CFFF1FDCD0FF1FFC89FF1FC445010042
:103A60006888FF1FD44501002DE9F84F544EDFF858
:103A700054A13368DFF85091D3F88400534D0F21DF
:103A800005F07EFB0123CAF80030514800232221B3
:103A9000C9F8003008F060FCD9F80030132B21DCA5
:103AA0004C4F40F6E4483368B5F888B0D3F884004A
:103AB000436B1C6905F0ACF8A4B2012108FB04F4C7
:103AC000B4FBF0F43846A344A5F888B008F044FCF1
:103AD000642006F05DFED9F800300133132BC9F8DD
:103AE0000030E0DDB5F888303B493C48A1FB0321BC
:103AF0005B1A01EB5301C1F30F11A5F8881005F013
:103B0000D5FE1D21364808F027FC0221354808F073
:103B100023FC324805F0D2FE0023C9F80030336898
:103B20000E21D3F8840005F02BFB02232848CAF8A5
:103B30000030222108F010FCD9F80030132B22DCD1
:103B4000DFF8908040F6E4473368B5F88AA0D3F8F0
:103B50008400436B1C6905F05BF8A4B2012107FBEC
:103B600004F4B4FBF0F44046A244A5F88AA008F09F
:103B7000F3FB642006F00CFED9F800300133132B60
:103B8000C9F80030E0DDB5F88A3013491348A1FBCD
:103B900003215B1A01EB5301C1F30F11A5F88A1041
:103BA00005F084FE1D21104808F0D6FB0D480221C7
:103BB00008F0D2FBBDE8F84F084805F07FBE00BF13
:103BC000DC91FF1F7888FF1FCCD1FF1FDCD0FF1FC7
:103BD000E44501000846010087611886FC89FF1F43
:103BE0000C460100905101002C460100F8B59F4D94
:103BF000D5F8B830072B00F05D819D4B9D4C1B68BC
:103C0000686D40F2513108222160E271002B00F012
:103C1000288109F02DFA296A064609F07DFA9649AD
:103C200009F07AFA09F064FCC2B22272934AA969D7
:103C3000C0F30723637213886381914B30461B885E
:103C4000A38109F069FA8C4909F066FA09F050FC81
:103C5000884903468B48E38104F060FD8A4A89481D
:103C600013681288228103EB8303884A08265B00CD
:103C700040F255311288216000277E492373334179
:103C800062816373E671E78104F048FD40F25633C8
:103C90007F482360E671FDF789FE7E4909F03CFA12
:103CA00009F026FC20727A48FDF780FE794909F078
:103CB00033FA09F01DFC784B7649C0F30720607297
:103CC000186809F0DDFA09F0EDFB60817048FDF736
:103CD0009BFE694909F020FA09F0E4FB20736C4867
:103CE000FDF792FE644909F017FA09F0DBFB40F397
:103CF0000720604960736348E78104F00FFD0220EC
:103D000006F046FD40F25A332360644B59491B6864
:103D1000A360634B5B481B68E360E67104F0FEFC44
:103D200040F25E3323605F4B52491A6855485B6826
:103D3000A260E360E67104F0F1FC022006F028FDC9
:103D40004FF45C732360584B4A491A684D485B68CE
:103D5000A260E360E67104F0E1FC022006F018FDC9
:103D600040F273334A482360E671FDF7D5FD4F49B1
:103D700009F0D2F909F0BCFB20724548FDF7CCFDF3
:103D80004A4909F0C9F909F0B3FBC0F30720607292
:103D90003F48FDF7E7FD454909F0BEF909F0A8FBEA
:103DA000A0723B48FDF7DEFD404909F0B5F909F086
:103DB0009FFBC0F30720E0723548FDF785FE3C49C4
:103DC00009F0A2F809F094FB20733148FDF77CFE5E
:103DD000374909F099F809F08BFBC0F307206073AD
:103DE0002B48FDF76FFE324909F08EF809F080FB91
:103DF000A0732748FDF766FE2D4909F085F809F004
:103E000077FBC0F307201B49E0731E4804F086FCD3
:103E1000022006F0BDFC40F27933EA6D2360AB6D01
:103E200013FB02F302202372C3F30723E0716372D2
:103E300006F0AEFC40F2723315482360E671FDF7E0
:103E4000B7FD034612482372FDF7B2FD40FA06F3B0
:103E500063726781E76007490A48BDE8F84004F0EB
:103E60005DBC09F005F96969D6E600BFDCD0FF1F2B
:103E7000B4D1FF1F38D0FF1F0000204144CFFF1FE7
:103E8000D0CFFF1FD0D1FF1F2888FF1F2C88FF1F16
:103E9000F091FF1F0000C842C8CFFF1FE091FF1F35
:103EA000C8D1FF1F3888FF1F3088FF1F00007A44E9
:103EB00033938843644C654BE36040F259320023EE
:103EC0000826214662482260A360E67104F026FCC1
:103ED000022006F05DFC5F4B686D1B68E67140F2E6
:103EE00051322260002B00F0AA8009F0C1F8296A43
:103EF00009F012F9584909F00FF909F0F9FA574A8F
:103F0000574B12881B886281C1B2C0F3072000257D
:103F1000217260724C494E48A381E58104F0FEFB9A
:103F2000022006F035FC4F48FDF71CFD06464D48C3
:103F3000FDF7F2FC0146304608F0E4FF4A4909F07B
:103F4000EBF809F0D5FA6FF0630283B202FB03F3DA
:103F5000464A3F48E560FA3B82FB0312DB174449BF
:103F6000C3EB62136433434A0B8040F2553112882D
:103F700021600826344922816381E67104F0CEFB7A
:103F8000022006F005FC40F2563336482360E67105
:103F9000FDF70CFD384909F0BFF809F0A9FA03460E
:103FA00030482372FDF702FD334909F0B5F809F0F6
:103FB0009FFA324A30490346C3F3072310686372FD
:103FC00009F05EF909F06EFA034626486381FDF7B1
:103FD0001BFD214909F0A0F809F064FA03462148C5
:103FE0002373FDF711FD1C4909F096F809F05AFA00
:103FF0001549E58140F307231548637304F08EFBF0
:10400000022006F0C5FB4FF4577302250E492360CA
:104010000F48E571C023238104F080FB284606F099
:10402000B7FB174B174AE57140F25E3121602272EF
:10403000637205490648BDE8F84004F06FBB09F01B
:1040400017F8696954E700BF38D0FF1F01504E00D0
:10405000D0D1FF1FB4D1FF1F0000204144CFFF1F6C
:10406000D0CFFF1FF091FF1F00007A44D34D6210A4
:104070002C88FF1F2888FF1F0000C842C8CFFF1FE1
:104080004C460100204301002DE9F041A64CA74D0C
:1040900082B008F0F3F823682860042B5DD0022B6F
:1040A00040F06681A0F13102422A4AD8DFE812F0DE
:1040B0009E041A055005270541056A0577055D052B
:1040C00049004900490049004900490049004900A8
:1040D0004900490049004900490049004900490098
:1040E0004900490049004900490049004900490088
:1040F0004900490049004900490049004900490078
:104100004900490049004900490049004900490067
:10411000490049005C014900490049004900490043
:104120004900490049004900490049004900490047
:10413000450049008505712803D1002373202360C1
:104140002860002B08BF73280CBF01230023002B1D
:1041500040F08C8002B0BDE8F081A0F13102402A2D
:10416000EFD801A151F822F0E9490000DB48000036
:104170006549000081490000854900009F49000011
:10418000BF490000C3490000C74900004341000087
:10419000434100004341000043410000434100000F
:1041A00043410000434100004341000043410000FF
:1041B00043410000434100004341000043410000EF
:1041C00043410000434100004341000043410000DF
:1041D00043410000434100004341000043410000CF
:1041E00043410000434100004341000043410000BF
:1041F00043410000434100004341000043410000AF
:10420000434100004341000043410000434100009E
:10421000434100004341000043410000434100008E
:10422000434100004341000043410000414700007A
:10423000434100004341000043410000434100006E
:10424000434100004341000043410000434100005E
:10425000434100004341000043410000434100004E
:1042600043410000434100003B410000304E3148D3
:1042700005F024FB0421304808F06EF82D4805F0C5
:104280001DFB10212D4808F067F82A4805F016FBA1
:1042900013212B4808F060F82A4B2648196805F0CE
:1042A00005FB244805F00AFB1421274808F054F8C0
:1042B000204805F003FB1E21244808F04DF81D4856
:1042C00005F0FCFA1521224808F046F8194805F0D7
:1042D000F5FA1E211F4808F03FF8164805F0EEFADF
:1042E00020211D4808F038F8124805F0E7FA192196
:1042F0001A4808F031F80F4805F0E0FA1221184882
:1043000008F02AF80B4805F0D9FA0D21154808F0F5
:1043100023F8084805F0D2FA002201233260236016
:1043200002B0BDE8F08100BF34D0FF1FF8CFFF1FFF
:104330004C88FF1FFC89FF1F1C5001002450010006
:10434000385001005888FF1F4C5001006450010094
:10435000845001009C500100BC500100E05001005D
:10436000FC50010010510100FFF77EFB2368286814
:10437000082B71D1322868D071283FF4DEAE312885
:104380007FF4DFAE07F0B6FF002800F3C581974E3B
:1043900096F84010336D726C032984BF002186F8B3
:1043A00040109348FDF70CFB0122692322602B602B
:1043B00001E007F063FF07F09DFF05460028F8D1F4
:1043C0008C4805F07BFA8B4805F078FA894805F0AF
:1043D00075FA884805F072FA864805F06FFA1521DB
:1043E000854807F0B9FF834805F068FA182183482B
:1043F00007F0B2FF2B460A2296F840107D4805F0E0
:1044000075FA7C4805F05AFA28217D4807F0A4FF88
:10441000706C7C4908F080FE08F05AFC00950B4651
:104420000246744805F06CFA0221774807F094FFC1
:10443000704805F043FA1321744807F08DFF6D486A
:1044400005F03CFA0823236084E607F053FF0028B8
:1044500000F3538123682868072B14D134283FF7D1
:104460006AAE30287FF76DAE3238022801F29384AD
:10447000DFE800F09802AC0007F03CFF002800F3F2
:10448000538123682868062B40F0AC83A0F13003E9
:10449000412B00F2748601A252F823F02F50000045
:1044A000DB4E0000D74B00005B510000375100008D
:1044B0001B510000FB500000E55000007F51000040
:1044C000B55000007F5100007F5100007F51000077
:1044D0007F5100007F5100007F5100007F5100009C
:1044E0007F5100007F5100007F5100007F5100008C
:1044F0007F5100007F5100007F5100007F5100007C
:104500007F5100007F5100007F5100007F5100006B
:104510007F5100007F5100007F5100007F5100005B
:104520007F5100007F5100007F5100007F5100004B
:104530007F5100007F5100007F5100007F5100003B
:104540007F5100007F5100007F5100007F5100002B
:104550007F5100007F5100007F5100007F5100001B
:104560007F5100007F5100007F5100007F5100000B
:104570007F5100007F5100007F5100007F510000FB
:104580007F5100007F5100007F5100007F510000EB
:104590007F5100007F5100007F5100007F510000DB
:1045A0003B41000007F0A6FE00287FF76AAF1148E4
:1045B0000E4E05F0E1FA08F05BFD154908F0ACFD80
:1045C000012323606123F0632B6025E007F092FE56
:1045D00000287FF756AF0748044E05F0CDFA0123B7
:1045E00023606123A6F8CA002B6015E0DCD0FF1F12
:1045F000F091FF1FFC89FF1FE45001007446010089
:104600009046010000007A44BC460100C04601000B
:104610006F12833A07F032FE07F06CFE0546002861
:10462000F8D1AF4805F04AF9AD4805F047F9AC4874
:1046300005F044F9AA4805F041F9A94805F03EF90A
:104640001F21A84807F088FEA54805F037F91C216E
:10465000A54807F081FE706AA44908F05DFD08F0E6
:1046600037FB009502460B469D4805F049F90221AB
:104670009F4807F071FE9A4805F020F923219D48D4
:1046800007F06AFEF06B994908F046FD08F020FB40
:10469000009502460B46924805F032F902219448F3
:1046A00007F05AFE8E4805F009F91921924807F0E3
:1046B00053FEB06B08F00CFB02250B46024600953A
:1046C000874805F01DF929468C4807F045FE8448C7
:1046D00005F0F4F822218A4807F03EFEB6F8CA1029
:1046E0007F4805F0E3F80321864807F035FE7C4853
:1046F00005F0E4F8072323602CE57948824E05F0A5
:104700003BFA08F0B5FC814908F006FD336D96F8D8
:1047100040107064024644E671487B4E05F02CFA66
:10472000C1B286F8401035E66D48774E05F024FAA0
:1047300008F09EFC012323606123B0632B606BE7CC
:10474000734A1368B3FA83F3642001215B09216083
:1047500013602860A0F152031F2B00F2BC80DFE839
:1047600013F0B405BA00BA00BA00BA00BA00BA0031
:10477000BA00BA00BA00BA00BA00BA00BA00BA0069
:10478000B105B605030B2200FA0ABA00BA00BA0056
:10479000F70ABA00060BBA00BA00BA00BA00BA00AB
:1047A000A10507F06BFD07F0A5FD0028F9D14C48E5
:1047B00005F084F84A4805F081F8494805F07EF88C
:1047C000474805F07BF8464805F078F81321514832
:1047D00007F0C2FD424805F071F80D214E4807F080
:1047E000BBFD3F4805F06AF80F214C4807F0B4FDC7
:1047F0004B4B3B48196805F059F8394805F05EF80D
:104800001321484807F0A8FD474B3548196805F0C3
:104810004DF8334805F052F81221444807F09CFD4A
:10482000434B2F48196805F041F82D4805F046F82C
:104830001121404807F090FD3F4B2948196805F0C9
:1048400035F8274805F03AF80E213C4807F084FD7A
:104850002D4B2348D3F8A81005F028F8204805F080
:104860002DF81921364807F077FD364B1C4819689A
:1048700005F01CF81A4805F021F81121324807F01C
:104880006BFD324B1648196805F010F8144805F016
:1048900015F810212E4807F05FFD2E4B10481968BF
:1048A00005F004F80E4805F009F81C212A4807F025
:1048B00053FD2A4B0A48196804F0F8FF084804F031
:1048C000FDFF1321264807F047FD054804F0F6FFD9
:1048D000042323603EE4236833E4134A31E700BF36
:1048E000FC89FF1FA8480100C848010000007A4465
:1048F000BC460100E84801000C4901008448010061
:10490000284901004C490100DCD0FF1F6F12833A97
:10491000EC91FF1F5C4A0100704A0100804A0100CF
:104920003CCFFF1F904A0100CCCFFF1FA44A0100DB
:10493000C8D0FF1FB84A0100FCCFFF1FCC4A0100BE
:10494000DC4A010040CFFF1FF84A0100E0CFFF1F03
:104950000C4B0100A491FF1F204B01005088FF1F4A
:10496000C0460100A94B1A680121002A0CBF0A4663
:10497000002221601A6041F0508164202860E9E63D
:10498000A34ADEE6A34ED6F8A830B3FA83F3642038
:1049900001225B092260C6F8A8302860DAE601230C
:1049A0009D482360FCF744FD9C4B642218602368FB
:1049B0002A60082B40F023876420FFF7C2BB984A87
:1049C000BFE6984ABDE60123236007F093FC002868
:1049D00001F31481944B18680428C4BF02221A60A2
:1049E000642223682A60E4E7904AAAE6894EF36FBE
:1049F000B3FA83F35B090122F367632322602B6020
:104A000001E007F03BFC07F075FC0028F9D188486D
:104A100004F054FF864804F051FF854804F04EFF2F
:104A2000834804F04BFF824804F048FF1F2181486F
:104A300007F092FC7E4804F041FF1E217E4807F0FB
:104A40008BFC7B4804F03AFF7C481A2107F084FC79
:104A5000D6F88030022B01F00A81032B01F0FE8092
:104A6000012B01F0F2807648092107F075FC7048AF
:104A700004F024FF1421734807F06EFCF16F6C48BA
:104A800004F014FF6A4804F019FF1C216E4807F077
:104A900063FCD6F88410664804F008FF644804F00C
:104AA0000DFF1C21694807F057FCD6F8B410604888
:104AB00004F0FCFE5E4804F001FFD6F8805025F0BB
:104AC0000207012F00F0B786022D01F0D9801321D3
:104AD0005F4807F041FC564804F0F0FE02232360D3
:104AE000FFF738BB4B4ED6F88430B3FA83F35B093B
:104AF0000122C6F88430632322602B6083E7012300
:104B0000236007F0F7FB002807DD4948414E05F018
:104B100033F808F0ADFAC6F8940023686320072B39
:104B200028603FF40EAB052B41F018810523FFF7F9
:104B300008BB0123236007F0DDFB0028EDDD3C48C6
:104B4000344E05F019F808F093FAC6F89000E4E73F
:104B50000123236007F0CEFB002801F356802D4E81
:104B60000122632322602B604DE70123236007F0BD
:104B7000C1FB0028F3DD2E48264E04F0FDFFC6F8E9
:104B80008C00EDE70123236007F0B4FB0028C4DDAF
:104B90002748204E04F0F0FFA6F8C200BDE71D4EE6
:104BA000D6F8D43001221344052BA8BF1346226047
:104BB0006322C6F8D4302A6025E7164ED6F8803036
:104BC00001221344042B2260A8BF00236322C6F8ED
:104BD00080302A6017E707F08DFB002800F3FE877E
:104BE00023682868052B3CD1362800F3CD85302872
:104BF0007FF7A7AA3238042801F2BC80DFE810F062
:104C00005D014001C2002A00500100BFC8D0FF1F53
:104C1000FCCFFF1FDCD0FF1FF091FF1F40CFFF1F15
:104C2000E0CFFF1FA491FF1F5088FF1F3CCFFF1F45
:104C3000FC89FF1F404B0100604B0100804B0100CD
:104C4000F84B0100044C01001C4C01003C4C0100DD
:104C5000C046010007F04EFB002800F35B86236886
:104C60002868032B40F0C685A0F13002422A3FF6A7
:104C700068AA01A151F822F0835A0000AD5A000041
:104C8000635A0000A95B00008F5B00006F5B0000AF
:104C9000355B00001F5B0000035B0000E35A00006F
:104CA00043410000434100004341000043410000F4
:104CB00043410000434100004341000043410000E4
:104CC00043410000434100004341000043410000D4
:104CD00043410000434100004341000043410000C4
:104CE00043410000434100004341000043410000B4
:104CF00043410000434100004341000043410000A4
:104D00004341000043410000434100004341000093
:104D10004341000043410000434100004341000083
:104D20004341000043410000434100004341000073
:104D3000434100004341000043410000CD5A0000C0
:104D4000E957000057590000835900006D590000D1
:104D5000F55900009F570000C35700004341000071
:104D6000C35B0000415A0000434100004341000082
:104D7000434100004341000043410000335A00001A
:104D80002959000007F0B6FA00287FF768AFB44849
:104D9000B44E04F0F1FEB44BC6F8AC0002221A6027
:104DA000FDF704FD01226B2322602B6001E007F078
:104DB00065FA07F09FFA0028F9D1A94804F07EFDB2
:104DC000A74804F07BFDA64804F078FDA44804F051
:104DD00075FDA34804F072FD2121A44807F0BCFA38
:104DE0009F4804F06BFD1521A14807F0B5FAD6F8ED
:104DF00098109B4804F05AFD02219E4807F0ACFA37
:104E0000974804F05BFD1E219B4807F0A5FAD6F8F1
:104E1000A010934804F04AFD0321984807F09CFA3B
:104E20008F4804F04BFD1E21954807F095FAD6F8FF
:104E30009C108B4804F03AFD894804F03FFD1D2189
:104E4000904807F089FAD6F8AC10854804F02EFD9A
:104E5000834804F033FD1E218B4807F07DFAD6F815
:104E6000B0107F4804F022FD7D4804F027FDD6F8FD
:104E7000A830012B00F0198705232360FFF76AB9DA
:104E800007F038FA00287FF7EAAE7548754E04F04F
:104E900073FE012323606B23C6F89C002B6088E718
:104EA000704E96F8C9300122B3FA83F322605B0991
:104EB0006B2286F8C9302A607BE707F01BFA0028CE
:104EC0007FF7CDAE6648674E04F056FE012323609F
:104ED0006B23C6F8A0002B606BE707F00BFA0028E5
:104EE0007FF77EAE5E485F4E04F046FE08F0C0F8E5
:104EF000664908F0C5F901232360652370612B60C2
:104F000001E007F0BBF907F0F5F905460028F8D1F4
:104F1000534804F0D3FC524804F0D0FC504804F04D
:104F2000CDFC4F4804F0CAFC4D4804F0C7FC1121E9
:104F3000574807F011FA4A4804F0C0FC28215548A8
:104F400007F00AFA7069514908F0E6F807F0C0FE68
:104F5000009502460B46424804F0D2FC02214E481E
:104F600007F0FAF93E4804F0A9FC16214B4807F077
:104F7000F3F9F069454908F0CFF807F0A9FE00956C
:104F80000B460246364804F0BBFC0221424807F0BB
:104F9000E3F9334804F092FCD6F8B830002B32DD48
:104FA0001D213F4807F0D8F9306E08F061F83D49FF
:104FB00008F0B2F807F08CFE022502460B4628489E
:104FC000009504F09DFC0121374807F0C5F92448FD
:104FD00004F074FC1F21354807F0BEF9706E08F02C
:104FE00047F8304908F098F807F072FE009502463D
:104FF0000B461B4804F084FC2B48012107F0ACF958
:10500000174804F05BFC2A48112107F0A5F9D6F8EF
:10501000B830082B00F2BA80DFE813F03A013F0104
:10502000350130012B01260121011C01B40007F0DC
:1050300061F900287FF7D4AD09480A4E04F09CFDC1
:1050400000EB8000326E43001BB29342A6F8D030D2
:10505000C8BFA6F8D0206523012222602B6052E74A
:10506000FC89FF1FDCD0FF1FE0CFFF1F504901006C
:1050700074490100184801008C49010008450100ED
:10508000AC490100CC490100EC49010000007A4420
:1050900088500100D4460100BC46010000470100D1
:1050A00018470100CDCCCC3D804C010038470100B1
:1050B0005847010007F01EF900287FF791AD854899
:1050C000854E04F059FD07F0D3FFF76A3946804654
:1050D00008F0C0F900B94746012323606523376310
:1050E0002B6010E77C4E96F8C830012253402260B6
:1050F000652286F8C8302A6005E707F0FBF800282B
:105100007FF76EAD7348744E04F036FD01232360C3
:105110006523C6F8BC002B60F5E66F4ED6F8B830B4
:1051200001221344092B2260A8BF00236522C6F880
:10513000B8302A60E7E607F0DDF800287FF750ADC9
:105140006448654E04F018FD00EB80004000012229
:105150006523706622602B60D5E607F0CBF8002847
:105160007FF73EAD5B485C4E04F006FD00EB80002F
:10517000400001226523306622602B60C3E60623CF
:10518000FEF7DFBF5548112107F0E6F8514804F05B
:1051900095FBD6F8B830002B12DD1821504807F0E7
:1051A000DBF8D6F8BC104B4804F080FB02214D48D8
:1051B00007F0D2F8474804F081FB464804F07EFB34
:1051C00049481B2107F0C8F896F8C830002B40F07A
:1051D00023834648122107F0BFF83E4804F06EFBD7
:1051E0001F21434807F0B8F8306B07F071FD022526
:1051F00002460B463748009504F082FB29463D489D
:1052000007F0AAF8334804F059FB1E213A4807F08A
:10521000A3F8B6F9D00007F02BFF384907F07CFF60
:1052200007F056FD00950B4602462A4804F068FB3D
:105230000121334807F090F8264804F03FFB132182
:10524000304807F089F8234804F038FB0623236030
:10525000FEF780BF14212C4807F07EF896E7042162
:105260002A4807F079F891E70B21294807F074F8EC
:105270008CE70D21274807F06FF887E70D212648B6
:1052800007F06AF882E70C21244807F065F87DE70B
:105290000D21234807F060F878E70C21214807F03A
:1052A0005BF873E7D82200210B481F4E04F060FD25
:1052B0002B6800210122732B216032607EF44AAFFB
:1052C000FEF7D5BF044EFFF7A7B906F07BFB024EF1
:1052D0002EE000BFFC89FF1FDCD0FF1FE847010064
:1052E000FC470100184801001C4801003848010033
:1052F000644801008448010088480100CDCCCC3DC1
:10530000804C0100C0460100D0470100C8470100A1
:10531000BC470100AC4701009C4701008C470100DD
:105320006C4701007C4701004C88FF1F06F0A6FF78
:1053300006F0E0FF05460028F8D1C24804F0BEFAA6
:10534000C04804F0BBFABF4804F0B8FABD4804F006
:10535000B5FABC4804F0B2FA1521BB4806F0FCFFD0
:10536000B84804F0ABFA1421B84806F0F5FFB54888
:1053700004F0A4FA1B21B64806F0EEFFB14804F091
:105380009DFA1321B34806F0E7FFAE4804F096FA01
:10539000AC4804F093FAAB4804F090FA2021AE48F0
:1053A00006F0DAFFF068AD4907F0B6FE07F090FCB2
:1053B000009502460B46A34804F0A2FA0221A84831
:1053C00006F0CAFF0221A74806F0C6FF9D4804F078
:1053D00075FA2121A44806F0BFFF30699F4907F004
:1053E0009BFE07F075FC009502460B46954804F0BD
:1053F00087FA02219A4806F0AFFF0221994806F089
:10540000ABFF904804F05AFA1F21984806F0A4FF19
:10541000B06A07F05DFC022702460B4689480097F8
:1054200004F06EFA0121924806F096FF39468D4845
:1054300006F092FF834804F041FA20218D4806F0DF
:105440008BFFF06A07F044FC009702460B467D484C
:1054500004F056FA0121864806F07EFF394681485D
:1054600006F07AFF774804F029FA2321824806F0F3
:1054700073FFB06C794907F04FFE07F029FC0095E7
:1054800002460B466F4804F03BFA3946744806F072
:1054900063FF3946734806F05FFF6A4804F00EFA6E
:1054A0001F21764806F058FFF06C6C4907F034FE77
:1054B00007F00EFC009502460B46624804F020FA05
:1054C0003946674806F048FF3946664806F044FF0B
:1054D0005C4804F0F3F91921694806F03DFFF16DCD
:1054E000584804F0E3F93946664806F035FF394676
:1054F0005C4806F031FF534804F0E0F91821624897
:1055000006F02AFFB06E07F0B3FD604907F004FE15
:1055100007F0DEFB009702460B464A4804F0F0F91C
:1055200001215B4806F018FF39464E4806F014FF8B
:10553000444804F0C3F92B21564806F00DFFB0692A
:10554000464907F0E9FD07F0C3FB009502460B460C
:105550003C4804F0D5F93946414806F0FDFE39468D
:10556000404806F0F9FE374804F0A8F91F214A48E0
:1055700006F0F2FEB16D334804F098F93946394827
:1055800006F0EAFE2F4804F099F92021434806F07E
:10559000E3FE716D2B4804F089F93946314806F075
:1055A000DBFE284804F08AF910213D4806F0D4FEBD
:1055B000F16E244804F07AF93946294806F0CCFE09
:1055C0003946284806F0C8FE1E4804F077F9132132
:1055D000344806F0C1FE316F1A4804F067F9012122
:1055E000314806F0B9FE39461E4806F0B5FE1548AA
:1055F00004F064F910212D4806F0AEFE716F1148D9
:1056000004F054F93946164806F0A6FE3946154806
:1056100006F0A2FE0B4804F051F91421244806F0CC
:105620009BFEB16F074804F041F901211E4806F0C6
:1056300093FE39460B4806F08FFE024804F03EF90F
:10564000162137E0FC89FF1F644D01007C4D0100ED
:10565000944D0100C0460100B04D010000007A44A5
:10566000BC46010090510100D44D0100F84D0100ED
:10567000184E01001C4E0100404E0100644E010016
:10568000844E0100A04E0100A44E0100CDCCCC3DC3
:10569000804C0100C04E0100EC4E01000C4F010097
:1056A000304F0100444F0100584F01005C4F010092
:1056B000704F0100B84806F04FFE306AB74907F056
:1056C0002BFD07F005FB009502460B46B44804F09D
:1056D00017F93946B34806F03FFE3946B24806F09E
:1056E0003BFEAF4804F0EAF82421B04806F034FE4F
:1056F000D6F8C400A94907F00FFD07F0E9FA0095B4
:1057000002460B46A64804F0FBF83946A54806F0C9
:1057100023FE3946A44806F01FFEA14804F0CEF847
:105720002B21A34806F018FE706B07F0D1FA009702
:1057300002460B469A4804F0E3F801219D4806F022
:105740000BFE3946984806F007FE954804F0B6F877
:105750002721994806F000FED6F8CC008F4907F0C3
:10576000DBFC07F0B5FA00950B4602468C4804F0C6
:10577000C7F839468B4806F0EFFD894804F09EF8DB
:1057800003232360FEF7E6BC71287FF4CFA98B4A80
:1057900000237320136023602860FEF7D2BC06F05C
:1057A000A9FD00280DDD7E48854E04F0E5F907F0DF
:1057B0005FFC7A4907F064FD0122622330622260B7
:1057C0002B6006F097FD00280EDD75487C4E04F036
:1057D000D3F907F04DFC714907F052FD0122622315
:1057E000C6F8C40022602B6006F084FD002818DC97
:1057F00023682868012B7EF4A4ACFEF7ABBF072B0F
:105800003FF4DAA8062B4FF064003FF4B8AC052B48
:105810003FF48CA9FFF725BA14216A4806F09CFDD5
:10582000DBE45F48664E04F0A7F9F06601226223CC
:1058300022602B607CE51C21634806F08DFDD6F8C4
:105840009400624907F068FC07F042FA00970246AC
:105850000B46534804F054F805215D4806F07CFDE2
:105860004F4804F02BF8D6F88050012D19D11D2196
:10587000584806F071FDD6F89000544907F04CFCEA
:1058800007F026FA009502460B46454804F038F822
:1058900005214F4806F060FD414804F00FF8D6F8A6
:1058A000805025F00203012B7FF40EA91C214A48E9
:1058B00006F052FDB6F8C210394803F0F7FF032195
:1058C000464806F049FD364803F0F8FFD6F8805008
:1058D000012D7FF4F9A81F21414806F03DFDD6F8BF
:1058E0008C0007F0C5FB3F4907F016FC07F0F0F904
:1058F000022502460B460095294804F001F8294686
:10590000394806F029FD264803F0D8FFD6F8805024
:10591000FFF7DAB822482A4E04F02EF9274BC6F8D2
:10592000B0000322FFF73BBA304B1F48022101228F
:105930001A6006F011FD1A4803F0C0FF2C480B2135
:1059400006F00AFD022118481D4E06F005FD144818
:1059500003F0B4FF6AE706F0CDFC00287FF748AFFC
:105960000F48174E04F008F930675FE706F0C2FCF5
:1059700000287FF73DAF0A48114E04F0FDF8B067EC
:1059800054E706F0B7FC00287FF732AF04480C4E0E
:1059900004F0F2F8706749E7884F010000007A448C
:1059A000FC89FF1FBC46010090510100A04F01007F
:1059B000C84F0100184E0100F44F0100E0CFFF1F57
:1059C000DCD0FF1F4C4801005C4C0100CDCCCC3D2D
:1059D0007C4C0100844C0100A44C0100C44C01002B
:1059E000C84C01006F12833AE84C0100C891FF1FB8
:1059F00068460100FCF780FD0221B84806F0ACFCC7
:105A0000B74803F05BFF0221B44806F0A5FCB44898
:105A100003F054FF0221B14806F09EFCB04803F0A9
:105A20004DFF1721AF4806F097FCAD4803F046FF45
:105A300088E700227323AC4E22602B60FEF717BC70
:105A400006F058FC00287FF7D3AEA548A74E04F017
:105A500093F807F00DFBA64907F012FCC6F8CC003E
:105A6000E4E606F047FC00287FF7C2AE9C489F4E54
:105A700004F082F807F0FCFA9D4907F001FC306160
:105A8000D4E606F037FC00287FF7B2AE9448974E74
:105A900004F072F80123014623609648B165622341
:105AA0002B60FBF78BFF23682868A3E606F022FC37
:105AB00000287FF79DAE8A488C4E04F05DF807F011
:105AC000D7FA8B4907F0DCFBF060AFE606F012FC7A
:105AD00000287FF78DAE8248844E04F04DF8706543
