:1000000000800020BD010000799F0000359F0000A6
:10001000359F0000359F0000359F0000359F000090
:10002000359F0000359F0000359F0000799F00003C
:10003000799F0000359F0000419400004594000026
:10004000799F0000799F0000799F0000799F000050
:10005000799F0000799F0000799F0000799F000040
:10006000799F0000799F0000799F0000799F000030
:10007000799F0000799F0000799F0000799F000020
:10008000799F0000799F0000799F0000799F000010
:1000900025240000799F0000799F0000799F0000CF
:1000A000799F0000799F0000799F0000799F0000F0
:1000B000799F0000E1890000ED890000F1890000CE
:1000C000FD890000018A0000058A0000799F000078
:1000D000799F0000799F0000799F0000799F0000C0
:1000E000799F0000799F0000799F0000799F0000B0
:1000F000799F0000799F0000799F0000ADAE00005D
:10010000799F0000D5B50000799F0000799F00001D
:10011000799F0000799F0000799F0000799F00007F
:10012000799F0000799F0000799F0000799F00006F
:10013000799F0000799F0000799F0000799F00005F
:10014000799F0000799F0000799F0000799F00004F
:10015000799F0000799F0000799F0000799F00003F
:10016000799F0000D9B80000799F0000799F0000B6
:10017000799F0000799F0000799F0000799F00001F
:10018000799F0000799F0000799F0000799F00000F
:10019000799F0000799F0000799F0000799F0000FF
:1001A000799F0000799F0000799F0000799F0000EF
:1001B000799F0000799F0000799F0000574B4CF217
:1001C000205210B5DA814DF62812DA8100BF00BF47
:1001D00009F0D6FE524B4FF010621A63514A9A63EF
:1001E000514ADA63514A136913F4807303D153619E
:1001F0004FF4A85313614E4B9A78110703D59A78A0
:1002000042F008029A704B4B4B482A221A704B4B13
:10021000DA1C121AC11E22F00302994288BF002282
:10022000474909F0B3FD474B4748DA1C121AC11E73
:1002300022F00302994288BF002200210DF076FFD0
:10024000424943484FF4DE7209F0A0FD414B424A57
:10025000802103F8011B9342FBD14FF0E0233C4A7D
:10026000C3F8082D3D4B8A221A70A3F5805324222F
:100270005A70A0221A709A799207FCD59A79D406FE
:10028000FCD4374B9A7902F00C02082AFAD10322E7
:100290001A7140225A719A799006FCD5304A9379A6
:1002A0005906FCD51E4B2F4959640221996420211F
:1002B0001170917901F00C010C29FAD12A4A5A6087
:1002C0004FF0E023294A5A6100229A6107221A61FD
:1002D000274AC3F8202D62B609F084FF134B5B69EF
:1002E000DA0705D5234809F071FF234B234ADA6169
:1002F000234B1B785B0609D51F4C204BE2699A42C1
:1003000004D11C4809F062FF0023E36109F03EFEBE
:100310000EF002F809F032FDFEE700BF00200540B4
:1003200000800440823F04000100002B00D0034005
:1003300000D0074000E007402087FF1F6891FF1FA3
:10034000645B01000CD9FF1F6891FF1F00000000D3
:100350000082FF1F00E400E05FE400E00050064080
:100360000040064000000301C0100500FF760100B8
:10037000000020205AC2066600E00340A5C3945A3C
:1003800000F00740FFFFFFFFFFFFFFFFFFFFFFFF42
:10039000FFFFFFFFFFFFFFFFFFFFFFFFFFFFFFFF6D
:1003A000FFFFFFFFFFFFFFFFFFFFFFFFFFFFFFFF5D
:1003B000FFFFFFFFFFFFFFFFFFFFFFFFFFFFFFFF4D
:1003C000FFFFFFFFFFFFFFFFFFFFFFFFFFFFFFFF3D
:1003D000FFFFFFFFFFFFFFFFFFFFFFFFFFFFFFFF2D
:1003E000FFFFFFFFFFFFFFFFFFFFFFFFFFFFFFFF1D
:1003F000FFFFFFFFFFFFFFFFFFFFFFFFFFFFFFFF0D
:10040000FFFFFFFFFFFFFFFFFFFFFFFFDEF9FFFF23
:100410000548064B1B1AD90F01EBA301491002D066
:10042000034B03B1184770476891FF1F6891FF1F86
:100430000000000008B5054B1BB105490548AFF3A6
:100440000080BDE80840FFF7E3BF00BF00000000E8
:100450006891FF1F645B010010B53422002104463F
:100460000DF064FE184904F1300304F1640243F80E
:10047000041F9A42FBD13422002104F168000DF0E0
:1004800055FE0023002211481149C4F89C30C4F8DD
:10049000A030C4F8A430C4F8A830C4F8B000C4F840
:1004A000B83047F23050012384F8DC20C4F8F00063
:1004B000C4F8AC10C4F8B410C4F8E420A4F8C42004
:1004C000C4F8F430204610BD0000A0400000C8C2AF
:1004D000000048430023C0F8E4308B7A91F809C04B
:1004E000CA7A1B0143EA1C1343EA0233C0F8E43022
:1004F000704700BF012A38B505460C4614D00223C8
:10050000C0F8F4304B7B087B1B01DBB243EA1010D0
:100510000CF036FD4FF07C510CF086FD2C490CF0B0
:1005200079FCC5F8A00038BDC0F8F420CB7BFD2BCA
:1005300049D0087ADE2828D9C87A0CF021FD4FF07E
:100540007C510CF071FD23490CF064FCC5F8A0004F
:10055000207BEF282DD80CF013FD4FF07C510CF0D0
:1005600063FD1C490CF056FCC5F8A400607BEF2825
:1005700025D80CF005FD4FF07C510CF055FD1549C8
:100580000CF048FCC5F8A80038BD0CF0F9FC4FF0A1
:100590007C510CF049FD0F490CF03CFCC5F8A00063
:1005A000E27AA37A03EB0223C5F8E430207BEF283C
:1005B000D1D90020C5F8A400607BEF28D9D9002349
:1005C000C5F8A83038BD887AFD28A1D138BD00BF54
:1005D0000000204200002C4290F8CC00704700BF81
:1005E00090F8C800704700BF90F8D000704700BF77
:1005F00090F8D400704700BF0D2994BF50F8210037
:10060000002070472DE9F0410C4E8046051F00F197
:10061000300755F8044F314620460CF0A3FE034640
:1006200020462BB1D8F8BC100CF0BAFE00B126461B
:10063000BD42EED13046BDE8F08100BF0000204150
:100640002DE9F843D0F8BC800F4F4FF00009051F8B
:1006500000F1300655F8044F414620460CF0A0FE4C
:100660000346394620464BB10CF07CFE0346494612
:1006700020461BB10CF094FE00B1A146B542E9D171
:100680004846BDE8F88300BF0000A0402DE9F84FC0
:10069000D0F8BC90174F83460026051F00F13008A4
:1006A0004FF0000A55F8044F494620460CF078FEFA
:1006B0000346394620464BB10CF054FE30B130466B
:1006C00021460CF0A9FB0AF1010A06464545E9D18D
:1006D000CBF8E0A0BAF1000F08D050460CF050FC67
:1006E000014630460CF054FDBDE8F88F0020BDE80F
:1006F000F88F00BF0000A040D0F8E000704700BFB6
:1007000038B5D0F8F430012B0ED1D0F8D8307BB901
:10071000D0F8A440D0F8A050214628460CF022FE84
:1007200020B92C46204638BDD0F8A040204638BD20
:10073000273350F82340204638BD00BFD0F8F430AE
:10074000012B2DE9F041044647D1D0F8D830002BD9
:1007500048D1D0F8A050D0F8A460284631460CF01B
:100760005BFBD4F8A870394680460CF055FB5F4916
:100770000CF00EFD4FF07C51044628460CF010FEA4
:100780004FF07C51002833D128460CF0EBFD30B1FE
:100790004FF07C5130460CF003FE002872D14FF030
:1007A0007C5128460CF0FCFD002834D14FF07C51E0
:1007B00030460CF0F5FD38B14FF07C5138460CF066
:1007C000D1FD002840F090804FF07C5138460CF06D
:1007D000E7FD00286DD03C4601E0D0F8A04020465F
:1007E000BDE8F081273350F823402046BDE8F08172
:1007F00030460CF0D5FD4FF07C51002836D03846FD
:100800000CF0CEFD0028EAD14FF07C5128460CF0C8
:10081000A9FD00284FD14FF07C5130460CF0A2FDCD
:100820004FF07C5100283ED038460CF0B9FD00282E
:1008300049D14FF07C5130460CF0B2FD68B14FF019
:100840007C5138460CF08EFD002846D14FF07C518B
:1008500030460CF087FD0028A8D04FF07C51384678
:100860000CF080FD0028A1D02C46B8E728460CF0FB
:1008700079FD0028CFD04FF07C5130460CF090FD30
:100880000028C8D04FF07C5138460CF089FD002874
:1008900085D0394630460CF0BFFA4FF07C510CF051
:1008A000C3FB04469BE730460CF07AFD0028CDD010
:1008B000C5E70F4C93E74FF07C5138460CF070FDC4
:1008C0000028A8D0E5E7394628460CF0A5FA4FF0F5
:1008D0007C510CF0A9FB044681E74FF07C51404667
:1008E0000CF0A2FB04467AE7344678E7000040406B
:1008F0000000A0C2D0F8F430012B70B5044620D11E
:10090000D0F8D8300BBBD0F8A0604FF07C51304607
:100910000CF046FDD4F8A450E0B9D4F8A8404FF04C
:100920007C5128460CF03CFD68B1314628460CF05D
:1009300019FD40B1214628460CF014FD18B12C4693
:1009400001E0D0F8A040204670BD273350F8234086
:10095000204670BD304629460CF004FDD4F8A8406E
:100960000028DCD0304621460CF0FCFC0028D6D014
:100970003446E8E72DE9F041064684B014460329E1
:100980003ED8DFE811F004003201F800E700002350
:1009900080F8EC30907A537A000100EB131000F5E8
:1009A0007A700CF0EDFAAE490CF03EFB3060207B23
:1009B000637B000900EB031000F57A700CF0E0FA9D
:1009C000A7490CF031FBB060207BE37A000200F411
:1009D0007060184400F57A700CF0D2FAA0490CF05F
:1009E00023FB7060E07BA37B000200F4706018447E
:1009F00000F57A700CF0C4FA99490CF015FBF06020
:100A00003046FFF777FFD6F8AC1004460CF0AAFC8E
:100A100008B1C6F8AC40D6F8F430012B0FD1D6F8A7
:100A2000D830002B40F09280D6F8A050D6F8A440E1
:100A3000284621460CF096FC18B92C4601E0D6F861
:100A4000A040D6F8B00021460CF08CFC08B1C6F8E6
:100A5000B040DFF81082341F06F13007A06B54F865
:100A6000045F29460CF09CFC034628462BB1D6F8BF
:100A7000BC100CF08BFC00B16563A16E28460CF035
:100A80008FFC0346414628461BB10CF089FC00B19F
:100A9000A566A742E2D196F8EC3043B9724B1B68C9
:100AA0000093009BC6F8E83004B0BDE8F0816E4CBE
:100AB000D6F8E83022680192019AD6F8F010D21ADE
:100AC0008A4232D222680292029A0B449B1A41F265
:100AD00087329342E8D8022164480BF0C5FB644892
:100AE00008F072FE062163480BF0BEFB96F8DC109E
:100AF0005F4800230A2208F07FFE19215E480BF0B0
:100B0000B3FB2168D6F8E830D6F8F0200391039CB7
:100B100057489918091B00230A2208F06DFE544813
:100B200004B0BDE8F04108F04FBE2022002130465D
:100B30000DF0FCFA0023C6F89C30C6F8A030C6F8C9
:100B4000A430C6F8A83004B0BDE8F081273356F8C9
:100B5000234076E7002380F8EC30907A537A000146
:100B600000EB131000F57A700CF00AFA3C490CF017
:100B70005BFA306344E7002380F8EC30907A537AD4
:100B8000000100EB131000F57A700CF0F9F934490C
:100B90000CF04AFA3062207B637B000900EB031003
:100BA00000F57A700CF0ECF92D490CF03DFAB062CA
:100BB000207BE37A000200F47060184400F57A703C
:100BC0000CF0DEF926490CF02FFA7062E07BA37B73
:100BD000000200F47060184400F57A700CF0D0F94F
:100BE0001F490CF021FAF0620AE7002380F8EC308C
:100BF000907A537A000100EB131000F57A700CF034
:100C0000BFF917490CF010FA3061207B637B0009B3
:100C100000EB031000F57A700CF0B2F910490CF0FB
:100C200003FAB061207BE37A000200F4706018449C
:100C300000F57A700CF0A4F909490CF0F5F970612F
:100C4000E07BA37B000200F47060184400F57A702A
:100C50000CF096F902490CF0E7F9F061D0E600BF1C
:100C60006F12833A0000A040C0D3FF1F7C500100E8
:100C7000FC89FF1F4C3D0100543D01002DE9F04768
:100C80000026D0F8BC90104FC0F89C608246051F2B
:100C900000F1300855F8044F494620460CF080FB1F
:100CA00003463946204653B10CF05CFB034621460F
:100CB000304623B10CF0B0F80646CAF89C00454512
:100CC000E8D13046BDE8F0870000A04002299ABF75
:100CD000283150F821000020704700BF3E2998BFFE
:100CE00080F8DC10704700BFD0F8F400704700BFF8
:100CF000D0F8E400704700BF90F8C400704700BF10
:100D000090F8C500704700BFC0F8D810704700BF0A
:100D100080F8C410704700BFC0F8C010704700BF13
:100D200080F8C510704700BF30B50F4CC0F8BC103C
:100D300083B020460D4608F047FD204608F044FDEC
:100D400028460BF04DFF0B4602210246009120463B
:100D500008F05EFD204608F037FD204603B0BDE8F0
:100D6000304008F031BD00BFFC89FF1F70B500F5B1
:100D70007455064600F12C0434352046F834FFF74C
:100D80006BFBAC42F9D106F592750124284600218F
:100D9000FFF7BEFF214628460134FFF79FFF3F2C97
:100DA00005F1F805F2D106F54053074830610021FE
:100DB0007161002205480649B061F16183F83E2D5A
:100DC0003046A3F83C2D70BD00007A440000484333
:100DD0000000C8C270B500F59274012500260DE030
:100DE000012620460021FFF79BFF294620460135BA
:100DF000FFF774FF3F2D04F1F8040FD02046FFF7F2
:100E00007BFF03462046002BEBD0FFF779FF064619
:100E10000028E5D101462046FFF77AFF304670BD35
:100E2000816270472DE9F04F00F5405383B093F88D
:100E30003E4D01933C2C00910ED9DFF89C8201239A
:100E400098F8062001996FF3000281F83E3D88F87A
:100E5000062003B0BDE8F08F0A2C40F27D81142CEF
:100E600005460ED9A4F11903DBB21E2B04D89B4A08
:100E700022FA03F3DA070CD4631CDFF85C82DBB2DE
:100E8000DEE7A4F10B02D2B240F21123D340DB071C
:100E9000F2D5019ADFF84082002382F83D3D05F546
:100EA0009276012705E001373F2F06F1F80600F0A2
:100EB00097803046FFF720FF0028F4D04FF0000B5A
:100EC0005C464FF00109A96AA8680BF0A5FF5946D6
:100ED00082463046FFF790FB014650460CF042FA3E
:100EE00018B109FA0BF323439CB20BF1010BBBF1D0
:100EF0000D0FE8D11CB1019A012382F83D3D009B02
:100F0000012B00F0D0800023754AC8F80830C8F8DB
:100F10000C30994644FA09F303F0010309F1010981
:100F2000DB00B9F1080F02F8013FF3D107F1FF3BF5
:100F3000BBF10B0F0AD8DFE80BF096928E8AA6A2BF
:100F40009E9AAEAAB206674BC8F80030B8F80630D1
:100F50006149654803F0FE0343F4006343F0010375
:100F6000A8F8063007F060FB012009F099FB5F4903
:100F7000082044FA09F313F0010309F1010914BF31
:100F800008700B70B9F10D0F01F10101F1D1FE23D1
:100F900088F80D304FF6FE63A8F80E30BBF10B0F4A
:100FA0000AD8DFE80BF04C504844403C3834302C31
:100FB00028064F4BC8F80030B8F8063046494A4872
:100FC00003F0FE0343F4006343F001030137A8F884
:100FD000063007F029FB3F2F06F1F8067FF469AFD2
:100FE000019A92F83D3D002B3FF429AF92F83E3D27
:100FF0000133DBB224E73F4BC8F80030DCE73E4B5F
:10100000C8F80030D8E73D4BC8F80030D4E73C4B77
:10101000C8F80030D0E73B4BC8F80030CCE73A4B7B
:10102000C8F80030C8E7394BC8F80030C4E7384B7F
:10103000C8F80030C0E7374BC8F80030BCE7364B83
:10104000C8F80030B8E7354BC8F80030B4E7344B87
:10105000C8F800307AE7334BC8F8003076E7324BF7
:10106000C8F8003072E7314BC8F800306EE7304BFB
:10107000C8F800306AE72F4BC8F8003066E72E4BFF
:10108000C8F8003062E72D4BC8F800305EE72C4B03
:10109000C8F800305AE72B4BC8F8003056E72A4B07
:1010A000C8F8003052E7294808F08EFB072128488D
:1010B0000BF0DAF83946254808F07EFB0321254875
:1010C0000BF0D2F8002310222146204808F094FBB0
:1010D0001E4808F079FB16E78091FF1F218410421B
:1010E0008791FF1FAF54551ACCD1FF1F8891FF1F66
:1010F000B054551AAE54551AAC54551A1B54551ABF
:101100001954551A1754551A1554551A1354551A7B
:101110001154551A0F54551A0B54551A0D54551A8B
:101120001054551A0E54551A0C54551A0A54551A7F
:101130001854551A1654551A1454551A1254551A4F
:10114000AB54551A1A54551AAD54551AFC89FF1F41
:10115000703D0100783D0100012C7FF48DAEDFF879
:101160001C828748B8F8063003F0FE0343F400639E
:1011700043F0010300254146A8F80630814BC8F82A
:101180000030C8F80850C8F80C5007F04DFA204657
:1011900009F086FA7C4B7A48C8F80030414607F0DF
:1011A00043FA204609F07CFA784B7548C8F80030BD
:1011B000414607F039FA204609F072FA744B70483C
:1011C000C8F80030414607F02FFA204609F068FAC7
:1011D000704B6B48C8F80030414607F025FA2046AE
:1011E00009F05EFA6C4B6648C8F80030414607F0DB
:1011F0001BFA204609F054FA684B6148C8F80030E1
:10120000414607F011FA204609F04AFA644B5C485F
:10121000C8F80030414607F007FA204609F040FAC6
:10122000604B5748C8F80030414607F0FDF92046AA
:1012300009F036FA5C4B5248C8F80030414607F0D6
:10124000F3F9204609F02CFA584B4D48C8F8003005
:10125000414607F0E9F9204609F022FA544B484884
:10126000C8F80030414607F0DFF9204609F018FAC7
:101270004FF0FE334146C8F80C3041484D4BC8F89A
:101280000030C8F8085007F0CFF9204609F008FAF6
:10129000494B3B48C8F80030414607F0C5F92046A5
:1012A00009F0FEF9454B3648C8F80030414607F0D2
:1012B000BBF9204609F0F4F9414B3148C8F8003039
:1012C000414607F0B1F9204609F0EAF93D4B2C48B8
:1012D000C8F80030414607F0A7F9204609F0E0F9C8
:1012E000394B2748C8F80030414607F09DF92046A1
:1012F00009F0D6F9354B2248C8F80030414607F0CE
:1013000093F9204609F0CCF9314B1D48C8F800305C
:10131000414607F089F9204609F0C2F92D4B1848DB
:10132000C8F80030414607F07FF9204609F0B8F9C7
:10133000294B1348C8F80030414607F075F920469C
:1013400009F0AEF9254B0E48C8F80030414607F0C9
:101350006BF9204609F0A4F9214B0948C8F8003080
:10136000414607F061F9204609F09AF9019A92F88E
:101370003E3D82F83D5D0133DBB261E58091FF1FA8
:10138000CCD1FF1F0A54551A0C54551A0E54551A35
:101390001054551A1254551A1454551A1654551AF5
:1013A0001854551A1A54551AAB54551AAD54551AA7
:1013B000AF54551A0B54551A0D54551A0F54551A4B
:1013C0001154551A1354551A1554551A1754551AC1
:1013D0001954551A1B54551AAC54551AAE54551A73
:1013E000B054551A38B50C6804F00F0CBCF10D0F51
:1013F00000D938BD0CF1010C0CEB0304C4EB441311
:1014000000EBC30015462C30FFF764F8012DF0D136
:10141000064808F0D9F92146044808F0CDF9BDE89E
:10142000384003480B210AF01FBF00BFFC89FF1F93
:101430007C3D0100F8B500F54057002300F57456D7
:10144000C7F8403D00F59274343602E0F834B442F7
:101450000FD02046FFF750FC0028F7D02046D7F8E1
:10146000405DFFF749F9F8340544B442C7F8405DE0
:10147000EFD1D7F8400DF8BD012B2DE9F04105461D
:101480000E46174608D0022B1C4603D14A7B0B6838
:10149000DF2A38D1BDE8F08108685FFA80F8A8F14A
:1014A0000B03302B0ED800F00F000BF069FD4FF04E
:1014B0007C510BF0B9FD4FF07E510BF0ADFC0BF001
:1014C00079FF8046C8EB481405EBC4042C34012195
:1014D0002046FFF71DFC01212046FFF721FC0122D9
:1014E00031462046FFF706F8012FD3D1184808F0FF
:1014F0006BF94146164808F05FF9BDE8F041154820
:101500000D210AF0B1BE03F00F0808F10108C8EB85
:10151000481300EBC3052C3501212846FFF7F8FBE3
:1015200001212846FFF7FCFB224631462846FEF7FC
:10153000E1FF012FAED1064808F046F941460448C4
:1015400008F03AF9BDE8F04103480D210AF08CBEDD
:10155000FC89FF1F883D0100983D010000F54053C4
:1015600093F83D3D03B17047F0B50B68A3F5D87310
:1015700083B005460C463E2B2CD8DFE803F0205004
:101580004A4D5356595C5F6265686B6E7174777A29
:101590007D808386898C8F9295989B9EA1A4E3E998
:1015A000A7ECAAADE62BB0B3B62BB9BCBF2BC2C516
:1015B000C82BCBCED12BD4D7DA2BDDE02D000027E2
:1015C0000126A37AFF2B05D0637BFF2B02D0E37BA0
:1015D000FF2B06D103B0F0BD02271026A37AFF2B04
:1015E000F8D0012A00F0BA80C6EB461605EBC60516
:1015F0002C3528460121FFF78BFB28460121FFF7F8
:101600008FFB22463946284603B0BDE8F040FFF77D
:10161000B1B902270126E1E703270126DEE701270A
:101620003E46CEE700270226CBE701270226C8E781
:1016300002273E46D2E703270226CFE700270326EC
:10164000BFE701270326BCE702270326C6E70327D7
:101650003E46C3E700270426B3E701270426B0E788
:1016600002270426BAE703270426B7E70027052642
:10167000A7E701270526A4E702270526AEE70327EB
:101680000526ABE7002706269BE70127062698E7F5
:1016900002270626A2E7032706269FE7002707263C
:1016A0008FE7012707268CE70227072696E70327FF
:1016B000072693E70027082683E70127082680E707
:1016C000022708268AE70327082687E70227092634
:1016D00084E700270A2674E701270A2671E7002716
:1016E0000B266EE701270B266BE702270B2675E713
:1016F00000270C2665E701270C2662E702270C2647
:101700006CE700270D265CE701270D2659E7022725
:101710000D2663E700270E2653E701270E2650E724
:1017200002270E265AE700270F264AE701270F2631
:1017300047E702270F2651E70027102641E7012738
:1017400010263EE7002709263BE702270A2645E741
:101750000127092635E7032709263FE70A480192B2
:1017600008F032F83146084808F026F8019A074890
:1017700011460AF079FD3946034808F01DF80321A7
:1017800003480AF071FD2FE7FC89FF1FA83D010007
:10179000783D01002DE9F04F0023DFF86491DFF878
:1017A0006481594F036083B0064600F592740125A9
:1017B00004E001353F2D04F1F80468D02046FFF71E
:1017C0009BFA0028F5D0484600F084FD29464046A3
:1017D00000F080FD2046FFF751FA0BF001FA0246B7
:1017E0000B46384600F076FD2046FEF70BFF82469A
:1017F0002046FEF725FF834650460BF0F1F90246DE
:10180000584692468B460BF0EBF95B465246CDE9C3
:1018100000013E4800F05EFD00212046FFF756FA29
:10182000012182462046FFF751FA834650460BF0CD
:10183000D7F90246584692468B460BF0D1F95246EC
:10184000CDE900015B46324800F044FD2046FFF739
:1018500015FA014630680BF0DFFA30602046FFF7DA
:1018600049F8B1690BF07EFD002833D12046FEF720
:1018700047FFF1690BF094FD00289AD02046FEF74F
:101880003FFF01353F2DF06104F1F80496D17068F7
:101890000BF076FB014630680BF07AFC7169306022
:1018A00004460BF07DFD00B17461316920460BF0F8
:1018B00059FD00B134610B2008F088FE06F5405652
:1018C00096F83C3D58B9B3B1012386F83C3D03B0CE
:1018D000BDE8F08F2046FFF70DF8B061C6E72BB9E1
:1018E000002386F83C3D03B0BDE8F08F094800F0C6
:1018F00003FD0023F5E7084800F012FDE4E700BF10
:1019000010440100AC3D0100E83D0100FC3D010038
:10191000283E01007C3E0100443E010070B5114BA1
:10192000836000F57455064600F59274343502E084
:10193000F834AC4213D02046FFF7DEF90028F7D088
:101940002046FEF75FFEB1680BF00CFD0028EFD0DB
:101950002046FEF757FEF834AC42B060EBD1B068D9
:1019600070BD00BF0000A04070B5002300F57455A5
:101970000646C36000F59274343502E0F834AC4298
:1019800013D02046FFF7B8F90028F7D02046FEF71D
:1019900057FEF1680BF004FD0028EFD02046FEF75B
:1019A0004FFEF834AC42F060EBD1F06870BD00BF80
:1019B0000068704700F54050D0F8380D704700BF00
:1019C000416070472DE9F04100F57455884617468F
:1019D0001E4600F59274343502E0F834AC4213D060
:1019E0002046FFF789F90028F7D020464146FFF747
:1019F0008BF920463946FFF797F920463146F834EF
:101A0000FFF78AF9AC42EBD1BDE8F0812DE9F8434C
:101A10002A4A2B4BDFF8AC90426200F574558046A1
:101A2000036200F5927434350026002702E0F83492
:101A3000A54210D02046FFF75FF90028F7D02046D6
:101A4000FEF77CFE49460BF0ABFC88B9F834A542A2
:101A500006F10106EED108F54058D8F8380D801B84
:101A60000BF08EFA014638460BF092FBBDE8F88386
:101A70002046FEF763FE014638460BF0CDF90746D7
:101A80002046FEF73DFED8F820100BF089FC70B917
:101A90002046FEF72FFFD8F824100BF063FC002837
:101AA000C5D02046FEF726FFC8F82400BFE7204631
:101AB000FEF726FEC8F82000EAE700BF00C0794420
:101AC00000C079C400008CC2006A7047406A704749
:101AD0002DE9F04100F540580026002300F574552B
:101AE000C8F8383D00F592743435374602E0F834D2
:101AF000AC421DD02046FFF7FFF80028F7D0204663
:101B0000FEF7C4FD39460BF04BFC03462046002B84
:101B1000EDD0FEF7BBFD014630460BF07DF9D8F85D
:101B2000383DF8340133AC420646C8F8383DE1D1BF
:101B3000D8F8380D0BF024FA014630460BF028FB9C
:101B4000BDE8F0812DE9F04F91B00446A4480E9114
:101B500000F066FBA24800F063FB04F54058A04883
:101B600004F5745700F05CFB04F5927500233437DC
:101B7000D8F838BDC8F8403D2E46B94602E0F836E0
:101B8000B1450FD03046FFF7B7F80028F7D0304600
:101B9000D8F8407DFEF7B0FDF8360744B145C8F8E7
:101BA000407DEFD1D8F8402D20680F920BF018F847
:101BB00063680D93064620460F46FFF789FF80466F
:101BC0002046D4F80890D4F80CA0FFF71FFF0BF0C4
:101BD00007F8CDE90A01494650460BF01BF9814947
:101BE0000BF022FA0AF0FCFFCDE9080150460AF09A
:101BF000F7FFCDE9060148460AF0F2FFCDE90401FE
:101C000040460AF0EDFF0D9B0F9ACDE90201CDE9A8
:101C100000677548754E594600F002FB704800F0A9
:101C2000FFFA00234FF001080D9307E008F10108C7
:101C3000B8F13F0F05F1F80500F09D802846FFF749
:101C40005BF80028F2D02846FEF7C6FC2846FEF7CF
:101C5000C7FC2846FEF7C8FC2846FEF7C9FC082149
:101C600063480AF001FB4146304607F0A5FDB8F194
:101C7000090F40F3B08002215E48DFF87CA10AF032
:101C8000F3FA2846FEF7FAFF0AF0AAFF9DF838900B
:101C9000CDF800900B460246304607F0B9FD574894
:101CA00001210AF0E1FA2B46DDF834B04D4600245C
:101CB00099461FE0062152480AF0D6FA59463046A6
:101CC00007F07AFD02214F480AF0CEFA2146484635
:101CD000FEF792FC0AF084FF009502460B46304660
:101CE00007F096FD0134454801210AF0BDFA0D2C9C
:101CF0000AD0BB46BBF1090F0BF10107DADC012169
:101D000050460AF0B1FAD5E7304607F05DFD484687
:101D1000FEF7EAFF0D9B04460D33012C3A480D9364
:101D20004D464FF0090129D00AF09EFA002148469D
:101D3000FEF7CCFF0AF054FF0B4602210246009149
:101D4000304607F065FD0E2130480AF08DFA28462E
:101D5000FEF7CEFF002301461022304607F04CFD6F
:101D600008F10108304607F02FFDB8F13F0F05F1EB
:101D7000F8057FF463AF11B0BDE8F08F0AF074FA94
:101D800000214846FEF7A2FF0AF02AFF022702467A
:101D90000B460097304607F03BFD0A211C480AF02D
:101DA00063FA21464846FEF791FF0AF019FF0097B3
:101DB00002460B46304607F02BFD0A2115480AF073
:101DC00053FA39464846FEF781FF0AF009FF0097AB
:101DD00002460B46B4E7012107480AF045FA4AE7F4
:101DE0001044010000007A442C410100FC89FF1FCF
:101DF000CC4101007C50010098420100D841010013
:101E0000DC41010088420100E44101000842010078
:101E1000F0410100FC4101002DE9F04F87B000F5D1
:101E20009274DFF84882DFF84892039104929B464F
:101E3000264601270594924604E001373F2F06F11C
:101E4000F80675D03046FEF757FF0028F5D000237E
:101E50000A220399404607F0CFFC012148460AF0C8
:101E600003FA50460AF0BCFE0B46002102460091E0
:101E7000404607F0CDFC012148460AF0F5F95946E5
:101E8000404607F099FC012148460AF0EDF9394631
:101E9000404607F091FC012148460AF0E5F900248C
:101EA000022521463046FEF7A7FB0AF099FE009571
:101EB00002460B46404607F0ABFC01340121484680
:101EC0000AF0D2F9082CECD100213046FEF7FEFED4
:101ED0000AF086FE009502460B46404607F098FC45
:101EE000012148460AF0C0F901213046FEF7EEFE16
:101EF0000AF076FE009502460B46404607F088FC45
:101F0000012148460AF0B0F902213046FEF7DEFE14
:101F10000AF066FE009502460B46404607F078FC44
:101F20000137404607F050FC3F2F06F1F80689D1F3
:101F3000059C504FDFF8388101264FF0000A04E07D
:101F400001363F2E04F1F8045CD02046FEF7D4FEA3
:101F50000028F5D000230A220399384607F04CFCEC
:101F60000121404608F052FE04980AF039FECDF8EF
:101F700000A002460B46384607F04AFC01214046C5
:101F800008F044FE5946384607F016FC0121404649
:101F900008F03CFE3146384607F00EFC0121404671
:101FA00008F034FE00254FF0020929462046FEF7CE
:101FB00023FB0AF015FECDF8009002460B4638468A
:101FC00007F026FC01350121404608F01FFE0D2DCB
:101FD000EBD12046FEF788FE0546012D4FF00001AB
:101FE000204612D0FEF772FE0AF0FAFD01360246D4
:101FF0000B46CDF80090384607F00AFC3F2E04F15E
:10200000F804A2D107B0BDE8F08FFEF75FFE0AF03A
:10201000E7FDCDF8009002460B46384607F0F8FB86
:102020002946404608F0F2FD29462046FEF74EFEBE
:102030000AF0D6FDCDF8009002460B46384607F070
:10204000E7FB2946404608F0E1FD02212046FEF765
:102050003DFE0AF0C5FDCDF8009002460B4638461D
:1020600007F0D6FB384607F0AFFB69E7FC89FF1F96
:10207000A83D0100BC88FF1F014B1870704700BFCE
:102080002488FF1F0278002A00F0B8802DE9F04371
:102090005C4FDFF874815D4E83B003460D46252A00
:1020A00034D158785C1C002838D0A0F12503552B7A
:1020B0002ED8DFE803F09F2D2D2D2D2D2D2D2D2D2C
:1020C0002D2D2D2D2D2D2D2D2D2D2D2D2D2D2D2D40
:1020D0002D2D2D932D2D2D2D2D2D2D2D2D2D2D2DCA
:1020E0002D2D2D2D2D882D2D2D7C2D2D2D2D2D2D76
:1020F0002D2D2D7439392D5E2D2D392D2D392D2D68
:102100002D2D2D2D493F2D2D2D562D6918781C462E
:102110000AF02EF96278631C002AC0D13C4803B053
:10212000BDE8F04307F050BB55F8041B384807F0F2
:1021300043FBEFE755F8041B01290EBF3548012189
:1021400030460AF091F8E5E755F8049BB9F1000F25
:10215000E0D048460CF014F9014648460AF084F8ED
:10216000D8E755F8041B2A480023102207F044FB47
:10217000D0E7073525F007050321F5E802232448B9
:10218000009107F045FBC5E7073525F0070500215D
:10219000F5E802231E48009107F03AFBBAE755F82C
:1021A000041B1B480023022207F026FBB2E7022192
:1021B00019480AF059F855F8041B15480023102255
:1021C00007F01AFBA6E755F8043B012B07BF0421D3
:1021D0004046052138460AF047F89BE702210F48A0
:1021E0000AF042F855F8041B09480023022207F0C0
:1021F00003FB8FE725200AF0BBF88BE7044807F0C4
:10220000E3BA00BF3042010028420100244201002D
:10221000FC89FF1F20420100184201001C420100FE
:102220000FB400B583B004A951F8040B0191FFF776
:1022300029FF03B05DF804EB04B07047F0B51C4B08
:102240001C4F1B6883B004460193019B3B600D4605
:10225000164619460A220023174807F0CDFA032133
:1022600016480AF001F8032C07D8DFE804F01B1623
:1022700002111348072109F0F7FF0221114809F064
:10228000F3FF3146284603B0BDE8F040FFF7FABE41
:1022900005210D4809F0E8FFEFE704210B4809F09C
:1022A000E3FFEAE705210A4809F0DEFFE5E700BFA2
:1022B000C0D3FF1F9091FF1FFC89FF1F3842010010
:1022C0004C42010088420100544201004442010096
:1022D0003C4201000FB400B5064B187883B020B91A
:1022E00005AA04990192FFF7A9FF03B05DF804EB7A
:1022F00004B070472488FF1F0FB4084B00B51B784B
:10230000012B83B005D805AA049901920120FFF79B
:1023100095FF03B05DF804EB04B070472488FF1FFD
:102320000FB4084B00B51B78032B83B005D805AA62
:10233000049901920320FFF781FF03B05DF804EBDD
:1023400004B070472488FF1F30B4074D074C08497C
:1023500000232B702360036530BC4365836580F8E0
:102360005C300B60704700BF9891FF1F9491FF1F76
:102370009C91FF1F70B5132008F028F958B9114C33
:1023800008F06EF92268104B801A80B2188008F0AD
:1023900067F9206070BD0C4D0A4B2C881E6808F050
:1023A0005FF9A4B23444201A2A880849C0EB00130C
:1023B0009B0092B2A3F63403B3FBF2F39BB20B8003
:1023C00070BD00BFD0D0FF1FD0CFFF1FD891FF1F1F
:1023D000DDF800C0521AACEB030C1CD0401ABCF163
:1023E000000F0CFB00F002EBD27109DB00EB610087
:1023F00000FB02F1002990FBF2F0184410DB70475B
:10240000A0EB610000FB02F1002990FBF2F0184400
:10241000F5DB013070470CEBDC7C03EB6C007047A4
:1024200001387047114B10B54FF47A701C7807F0E3
:10243000E7FB844204D021464FF47A7007F0FAFBA0
:102440000B4B0C485A7842F040025A701A7842F00E
:1024500040021A7007F0B8F90748072109F004FF95
:10246000BDE81040034807F0AFB900BF2888FF1F40
:1024700000D00740FC89FF1F5C42010038B50446CC
:1024800049B108460D460BF07BFF236802465B68A6
:102490002946204698472046BDE8384007F094B9C1
:1024A0002DE9F0474048414E414CDFF80891DFF8F4
:1024B0000881424FFFF7B4FE414B4249D96042497F
:1024C0001961424959614249596242499961DE6242
:1024D0004FF07C510026596419651E634FF49671C4
:1024E0003D4E196699665E6340F61C413B4ED966C7
:1024F0009E630A213A4E196740F2122541F2040107
:102500005E60384E1D805967374D1E625A21374E26
:10251000DC61002201209D62DC6364250C24996744
:102520009E643221324E83F8402040F2012AC3F8E3
:10253000D4005C6598655966DE64DD652D4EA3F8B0
:1025400008A0DA67C3F88420C3F8A820FF22022479
:10255000DFF8A4E0DFF8A4C0C3F8B400C3F89C100F
:10256000C3F8AC10C3F8B02044F6206041F28831C3
:102570004FF47A72C3F8C860C3F88890C3F89080AB
:10258000C3F894E0C3F8BC50C3F8C070C3F8C4C02B
:10259000C3F88040C3F8B840C3F88C00C3F8981063
:1025A000C3F8A020BDE8F08764420100000020C10C
:1025B000CDCC4C3ED606D6060000684288130500F6
:1025C000D8D0FF1F6666864000004040333383400A
:1025D000CDCCCC3DCDCC4C40000020420000A040F2
:1025E00020A1070033337340000082429A9979405A
:1025F0000AD7233D0101F40100C020449A99993E75
:10260000F8B5504D504C5148E66800232B70FFF749
:10261000ABF9014630460AF0A5FE002814BF04239A
:1026200008232B704948FFF779F921690AF09AFECF
:102630002B78002879D043F010032B704348FFF724
:1026400043FAA16A0AF0ACFE2B78002876D043F05A
:10265000400300272B706F703C48FFF737FAE16AA0
:102660000AF080FEB84214BF012302236B70EF70A2
:102670003648FFF779F906463448FFF74FF9014627
:1026800030460AF0C7FBE16B314E0AF089FEB842D2
:1026900014BF01230223EB702C483770FFF764F955
:1026A000616A0546E0680AF0B5FB014628460AF073
:1026B00077FEB84214BF0423082333702348FFF782
:1026C0002DF9616A054620690AF0A6FB01462846F5
:1026D0000AF048FE337870B343F0100333701B48A0
:1026E000FFF7F2F9A16B0546A06A0AF093FB0146D9
:1026F00028460AF055FE3378D0B143F0400300225B
:10270000727033701148FFF7E1F9A16B0346E06A7C
:102710001C460AF081FB014620460AF023FE0028F1
:1027200014BF012302237370F8BD43F0200384E734
:1027300043F08003E3E743F02003CFE743F0800357
:1027400087E700BFE091FF1FD8D0FF1FF091FF1F68
:10275000C4D1FF1F2DE9F0417F4C2368012B82B0CB
:1027600049D0022B00F0C380032B03D02BB302B05F
:10277000BDE8F081794B7A4E4FF47A721A60D6F840
:10278000AC000AF0FDFB0546D6F8B0000AF0F8FBF5
:1027900029460AF03FFB73490AF046FC71490AF0EA
:1027A000F7FC29460AF038FB0AF004FE0146062031
:1027B00007F06AFD2368002BD9D1694B6A48D3F82A
:1027C000AC10D3F8B02003686848521A002A02FB04
:1027D00003F3C0F2B280323380FB0320DA17C2EB7E
:1027E0006012002B1144C0F2B480062002B0BDE894
:1027F000F04107F049BD594F38680A30B0F57A7F8B
:1028000000F3968038600AF0BBFB59490AF00CFCD3
:102810008046534ED6F8AC000AF0B2FB0546D6F817
:10282000B0000AF0ADFB29460AF0F4FA41460AF07E
:10283000FBFB4C490AF0ACFC29460AF0EDFA0AF021
:10284000B9FD0146062007F01FFD0221494809F0A5
:102850000BFD494806F0B8FF0621484809F004FD81
:1028600038680AF08DFB42490AF0DEFB0AF0B8F93D
:102870004FF0020802460B463F48CDF8008006F0B4
:10288000C7FF0D213E4809F0EFFCD6F8AC000AF076
:1028900077FB054638680AF073FB35490AF0C4FB3C
:1028A0000346D6F8B0001E460AF06AFB29460AF035
:1028B000B1FA014630460AF0B7FB2A490AF068FC33
:1028C00029460AF0A9FA0AF08BF9CDF800800B46E8
:1028D0000246294806F09CFF4146264809F0C4FC00
:1028E000254806F071FF2368022B7FF43DAF1B4B98
:1028F0001B4E00221A60D6F8AC000AF041FB0546D8
:10290000D6F8B0000AF03CFB29460AF083FA002111
:102910000AF08AFB13490AF03BFC29460AF07CFACC
:102920000AF048FD0146062007F0AEFC23681BE7CD
:1029300000234FF000083B606BE7323B80FB032035
:10294000DA17C2EB6012002B1144FFF64EAF0131D3
:102950004BE7013949E700BFDCCFFF1FD091FF1FD4
:10296000D8D0FF1F0000C8422888FF1F1F85EB51E9
:10297000CDCCCC3D7C500100FC89FF1F844201007E
:102980008C42010070B5B248B24C06F01DFFB04851
:1029900006F01AFFAE4806F017FFAF480D2109F008
:1029A00063FCD4F8A830012B11D0AC4CA848217896
:1029B00000230A2206F020FF2378052B57D8DFE8F2
:1029C00013F006010B01100115011A010101092183
:1029D000A34809F049FCA348FEF7A0FF21690AF0CB
:1029E000C1FC002840F02E819E48FEF7BDFFE16843
:1029F0000AF0D6FC002840F06C819A48FEF7B4FF3C
:102A000005469848FEF78AFF014628460AF002FA72
:102A1000E16B0AF0C5FC002840F056819148FEF7B2
:102A2000F5FFA16A0AF0BCFC002840F05C818D48EB
:102A3000FEF7ECFFE16A0AF095FC002840F04E81B9
:102A4000894B88481B68012B00F0EC80FEF766FF7D
:102A500021690AF0A5FC002840F0D28007218348B4
:102A600009F002FC824B7A48196806F0A5FE0221A3
:102A7000804809F0F9FB122007F0A8FD012800F0BA
:102A80009C80112007F0A2FD012800F091807A4B74
:102A90001B68012B00F0878002217648774C09F0F3
:102AA000E3FB774B6A48196806F086FE684806F033
:102AB0008BFE0421734809F0D7FB0B2007F086FD3D
:102AC000002301460A22624806F096FE0C2007F019
:102AD0007DFD002301460A225D4806F08DFE14208C
:102AE00007F074FD002301460A22594806F084FECF
:102AF000152007F06BFD0A2201460023544806F01A
:102B00007BFE0621604809F0AFFB2368D8074BBF66
:102B1000012101215D485E4809F0A6FB2368990761
:102B20004BBF012101215948594809F09DFB2368F9
:102B30005A074BBF012101215448554809F094FB25
:102B400023681B074BBF012101215048504809F061
:102B50008BFB04214F4809F087FB112007F036FD5D
:102B6000002301460A223A4806F046FE102007F0EC
:102B70002DFD002301460A22354806F03DFE1220B5
:102B800007F024FD002301460A22314806F034FEF6
:102B9000132007F01BFDBDE87040014600232C48C0
:102BA0000A2206F029BE11213B4809F05DFB73E7BC
:102BB0000A213A4809F058FB69E70E21384809F024
:102BC00053FB5EE70721374809F04EFB4FE706212C
:102BD000354809F049FB4AE70721344809F044FB2E
:102BE00045E70721324809F03FFB40E7082131481B
:102BF00009F03AFB3BE70B212F4809F035FB36E79C
:102C00001848FEF7B1FEE1680AF0ACFB00283FF47B
:102C100025AF124B1B78052B6AD10A21274809F0F2
:102C200023FB1BE7FEF77AFE216A0AF0B9FB0028B6
:102C30005ED01621224809F017FB0A211F4809F02F
:102C400013FB0BE70F211F4809F00EFBCCE600BF7A
:102C5000FC89FF1FD8D0FF1F9C42010034CFFF1F0B
:102C6000AC420100F091FF1FB0D1FF1F3C430100B7
:102C7000B091FF1F7C500100E891FF1FB4CFFF1FF0
:102C80003CCFFF1FAC430100B4430100BC43010033
:102C9000C0430100C4430100984301008C4301007C
:102CA0007C43010074430100444301004C43010094
:102CB00060430100684301005443010024430100C4
:102CC0000C430100B842010011210C4809F0CCFA74
:102CD000A4E60E210A4809F0C7FA8EE60D2109483C
:102CE00009F0C2FAACE60C21074809F0BDFA9EE6ED
:102CF0000821064809F0B8FAB0E600BFD842010042
:102D0000C8420100FC420100EC42010030430100D6
:102D10002DE9F047B54CD4F88060012E8CB000F05E
:102D20004481032E5CD0DFF8C882B24FB24EE36F0D
:102D3000B248012B09BF3168316801F100413160AF
:102D400006F0E6FA3B68002B40F01581AB4806F030
:102D5000B3FA3B68C8F800000546002B40F0FB8042
:102D6000D4F88030012B00F0BA80A54928460AF03B
:102D700017FB30B9A34928460AF0F4FA002800F0FE
:102D8000E081DFF884A2DFF88492DAF800300A9359
:102D90000A98D9F800309E4FC01A0AF0EDF829467B
:102DA0000AF042F99B490AF0F3F99A490AF0F0F95E
:102DB00039680AF031F8DAF800300993099B386075
:102DC000C9F80030D4F8B4000AF0DAF829460AF05D
:102DD0002BF90023C8F8000033600CB0BDE8F08781
:102DE0008D4D8E4F2A68DFF80882D2F884000123C7
:102DF0000F213B6006F04AF93B687E4F012B3B6890
:102E000000F02C81002B40F0AF812B68DFF810928E
:102E1000D3F88400436B1E69B6B2C9F8006005F0B0
:102E20007DFEB4F88A2040F6E44306FB03F3B3FBCF
:102E3000F0F0801A00B20AF0A3F87A490646D4F8F6
:102E400090000AF0F1F8014630460AF0A1F9D9F8ED
:102E50000030694E632B306000F37A8100233360C9
:102E60003B68002B3FF463AF02216F4809F0FCF987
:102E70002B68D9F80050D3F8840040F6E44303FBF4
:102E800005F505F04BFEB5FBF0F00AF075F80546C8
:102E9000B4F88A000AF074F80146284609F0BAFF2F
:102EA00009F09EFE022502460B4600955F4806F09B
:102EB000AFFC29465C4809F0D7F9306809F090FE6C
:102EC000009502460B46594806F0A2FC2946584890
:102ED00009F0CAF92946544809F0C6F927E74F4BCB
:102EE0001B68012B00F07581022B7FF46BAFD4F8C7
:102EF0008C7038460AF044F829460AF033FA40B993
:102F000078420AF03DF829460AF04AFA002800F013
:102F1000CE81DFF8F4A0DFF8F490DAF80030079300
:102F20000798D9F800303A4FC01A0AF025F8294618
:102F30000AF07AF837490AF02BF936490AF028F9ED
:102F4000396809F069FFDAF800300693069B3860AB
:102F5000C9F8003036E709F043FE0B46022102466D
:102F60000091324806F054FC3248042109F07CF903
:102F7000D8F80050F4E6214806F09EF909F030FE3A
:102F80000B46022102460091284806F041FC03212D
:102F9000294809F069F9D4F88C10244806F00CFC93
:102FA0000321254809F060F9D0E6DFF84480D4F821
:102FB0008C70D8F80050384609F0E2FF29460AF034
:102FC000EFF900283AD0784209F0DAFF01462846A6
:102FD0000AF0E6F990B3104D104F28683E604FF0AC
:102FE000FF320F2105F044FD06E700BFD8D0FF1FD8
:102FF000C4CFFF1FC8CFFF1FC091FF1F0CD0FF1F02
:103000000000FA430000FAC3C0D3FF1F00D0FF1F27
:10301000E491FF1F00007A44DC91FF1F7888FF1FB6
:10302000B8D1FF1FACC527377C500100FC89FF1FBA
:10303000084401000C440100783D01009F4FA04D61
:1030400002233B602B680E21D3F8840006F01EF8A3
:103050003B689C4F012B3B687FF4D4AE002B40F0C3
:10306000E5802B68DFF86092D3F88400436B1E691B
:10307000B6B2C9F8006005F051FDB4F8883040F6EA
:10308000E44A0AFB06F6B6FBF0F6F01A00B209F0C5
:1030900077FF8E490646D4F8940009F0C5FF014633
:1030A00030460AF075F82B68894E0246D3F8840042
:1030B000D9F8003032600AFB03FA05F02FFDB4F8AE
:1030C0008820BAFBF0F31BB29B1A002BB4F8C22085
:1030D000B8BF5B429A42C4BF002333603B68002BF9
:1030E0003FF425AE02217B4809F0BEF82B68D9F8E1
:1030F0000050D3F8840040F6E44303FB05F505F0E7
:103100000DFDB4F88810B5FBF0F52DB2691A7248C0
:1031100006F052FB02216F4809F0A6F8306809F06A
:103120005FFD022502460B4600956B4806F070FBDA
:1031300003216A4809F098F82946664809F094F88E
:10314000F5E5674B1B680B93664B0B9A1A6039E6E3
:103150002B68D3F8840005F0E1FCD9F8003064381E
:103160009842FFF47BAE7BE65B48DFF85C9106F0AB
:103170002BFB0C215C4809F077F85C480C2109F026
:1031800073F82B683A68D3F88400436B1E69B6B2B3
:10319000C9F80060002A3FF442AE05F0BFFC40F6DB
:1031A000E442002306FB02F2B2FBF0F10A224A4895
:1031B00006F022FB0221474809F056F8B4F88A10BD
:1031C000454806F0F9FA2B68D9F80060D3F8840076
:1031D00025E6474928460AF0E3F828B94549284634
:1031E0000AF0C0F800285BD0DFF8F4A0DFF8F49014
:1031F000DAF8003004930498D9F800303E4FC01A32
:1032000009F0BAFE294609F00FFF3C4909F0C0FF5A
:103210003A4909F0BDFF396809F0FEFDDAF80030DF
:103220000393039B3860C9F80030CBE52A48DFF8E8
:10323000989006F0C9FAD4F88030012B0CBF3048C2
:1032400030480B2109F010F828480C2109F00CF83F
:103250002A683B68D2F88400426B1669B6B2C9F896
:103260000060002B3FF407AF05F058FC40F6E44344
:1032700006FB03F30A22B3FBF0F10023164806F025
:10328000BBFA0121204808F0EFFFB4F8881012487B
:1032900006F092FA2B68D9F80060D3F88400EAE6C9
:1032A0000F4B1B6805930F4B059A1A608AE50C4B70
:1032B0001B6808930B4B089A1A6083E57888FF1FF8
:1032C000DC91FF1FC8CFFF1FB8D1FF1FACC5273748
:1032D000C091FF1F7C500100FC89FF1FF4430100D7
:1032E000C0D3FF1F00D0FF1FF8430100E4430100DB
:1032F0000000FA430000FAC3E491FF1F00007A4483
:10330000CC430100D8430100984201002DE9F04F61
:10331000A94DAA4C2B68012B87B000F00A81A84E5A
:10332000A84FDFF8A492D9F80030002B00F0A68057
:10333000D4F85CB0A56DDFF89482A549386809F02F
:1033400073FE05FB0BF581464FF47A7005FB00F028
:1033500009F016FE0146484609F01AFF9D4909F09A
:1033600063FE0AF027F8D4F884303060012B05465C
:1033700056D0D4F88030002B52D0632D73DDA36D6E
:10338000E06D03FB00F04FF47A7303FB00F009F0EB
:10339000F7FD8F4909F0FCFE64233360D8F8003054
:1033A0003860002B67D0D4F88030012B00F0E88023
:1033B000032B00F0F380022B00F0F98002218648F5
:1033C00008F052FF854B186809F00AFC02240246F7
:1033D0000B460094824806F01BFA2146814808F00B
:1033E00043FF21467C4808F03FFF31687C4806F0E7
:1033F000E3F906217C4808F037FF3868744909F082
:1034000013FE09F0EDFB009402460B46744806F0EB
:10341000FFF97648032107B0BDE8F04F08F024BF5C
:103420007348FEF77BFA734909F0FEFD09F0E8FFE7
:10343000A56F626FE16E236F009580B2FEF7C8FF43
:1034400005463060E06DA36D05FB00F003FB00F066
:1034500000EB8000400009F093FD5D4909F098FE03
:10346000632D38608BDC002DBCBF00233360D8F89F
:103470000030002B97D107B0BDE8F08FDFF878A1BE
:10348000DAF80030002B37D0D4F85CB0A56DDFF847
:103490003C81012B7FF451AF306800FB0BF005FB42
:1034A00000F000EB8000554D400009F069FD4849EF
:1034B00009F06EFE2B680493049A386042F22833B8
:1034C0009A4200F2E2802B680593059A42F210734B
:1034D0009A420DD9D8F800300122C9F80020002BFB
:1034E00040F0DB80D4F8A830012B04BF444A1370AD
:1034F000D4F85CB0A56D20E7404D2A680292029A8C
:1035000042F228339A4200F2B8802B680393039A60
:1035100042F210739A427FD8D9F80030D4F85CB0E8
:10352000A56DDFF8A880002B7FF407AFDAF8003034
:10353000AFE72F48FEF7F2F92E49666F276F09F0C3
:1035400073FD09F05DFF3246A66FE16E00963B46C3
:1035500080B2FEF73DFF1A4EE36D306003FB00F0D2
:10356000A36D184F03FB00F000EB8000400009F052
:1035700007FD174909F00CFE002338602B60D0E6E8
:10358000204B1B68012B0CBF1F4820480A2108F064
:103590006BFED4F88030032B7FF40DAF1C48102154
:1035A00008F062FED4F88030022B7FF407AF0721C9
:1035B000184808F059FE01E7C891FF1FD8D0FF1F37
:1035C0002888FF1FE491FF1FCC91FF1F4C88FF1F2D
:1035D000E4388E3E0000C8427C500100C4CFFF1F7B
:1035E000FC89FF1F08440100A4440100AC44010011
:1035F000F091FF1F00007A44C491FF1FC0D3FF1F4A
:1036000034CFFF1F7888FF1F704401007C44010005
:10361000884401009C4401003448DFF8D480FEF760
:103620007DF9344909F000FD09F0EAFEA56F236F2A
:10363000626FE16E009580B2FEF7CAFED4F85CB00E
:10364000A56D30600BFB00F005FB00F000EB800087
:10365000400009F095FC284909F09AFDD8F800309F
:1036600038600122C9F8002033BBD4F8A830012B00
:103670007FF463AE214A13705FE6236D626C94F8A9
:1036800040101A48FEF79EF93FE7236D626C94F8EC
:1036900040101648FEF796F915E70221184808F081
:1036A000E3FD184806F090F85921174808F0DCFDB2
:1036B000144806F089F815E70221114808F0D4FDF6
:1036C000104806F081F859210F4808F0CDFD0D484B
:1036D00006F07AF8D4F8A830D4F85CB0A56D012BC8
:1036E00004BF064A1370D9F800301CE7F091FF1FA1
:1036F0004C88FF1F00007A44E4388E3E34CFFF1F11
:103700007C500100FC89FF1F1444010030B51120DA
:1037100083B006F05BFF012804D0122006F056FFAC
:10372000012822D10121152006F02AFF2A4B2B4A1D
:103730002B4C1B682B4D116801930222D4F8983052
:103740002A60019A0B44934208D8D4F8A00009F0EB
:1037500017FC254B196809F005FED0B101210C209A
:1037600003B0BDE8304006F00BBF00210B2006F08F
:1037700007FF00210C2006F003FF0021152006F0B2
:10378000FFFE1A49174B0120002208701A6003B08F
:1037900030BD01210B2006F0F3FE94F8C83003245D
:1037A0002C604BB1114B02221A7000210C2003B087
:1037B000BDE8304006F0E4BE122006F007FF012805
:1037C00008BF0A4B4FF0110008BF1C7006F0FEFE48
:1037D0000128EAD1E6E700BFC0D3FF1FB891FF1F61
:1037E000D8D0FF1FB0CFFF1FC4CFFF1F34CFFF1FA4
:1037F000F0B5714E714C33682568AB4287B02DD05F
:1038000013F001014BD013F002015FD013F004015B
:1038100051D0DA070ED52268D7070BD4684D2A6835
:10382000002A00F09380674B1B680193019B934231
:103830007FD833689D0714D4590722D522685207D0
:103840000DD4614F3A68002A00F09E805D4B1B68E2
:103850000593059B934200F286803568A5B107B0B9
:10386000F0BD226890073DD4584D2A68002A49D0FF
:10387000544B1B680393039B9A4236D33368590712
:10388000DCD41D46002DEAD12946162006F0FCFCAA
:103890002946172007B0BDE8F04006F0F5BC162019
:1038A00006F0F2FC2268336802F0FE0213F0020117
:1038B0002260ABD10AE0052006F0E6FC22683368FE
:1038C00002F0FB022260DA07B4D5A4E7172006F065
:1038D000DBFC2268336802F0FD0213F00401226071
:1038E00097D1E8E75B07AAD4B9E7394B1720D3F89B
:1038F0009C1006F0C9FC2368002243F002032360F9
:103900002A60BBE7334805F05FFF0C21324808F01E
:10391000ABFC304805F058FFFF21172006F0B4FC3F
:10392000284B2E491A680292029A09680A442A60B2
:103930009FE7274B1620D3F89C1006F0A5FC2368C0
:10394000002243F0010323602A6072E7FF21162062
:1039500006F09AFC1B4B21491A680092009A0968EC
:103960000A442A6060E71A4B0520D3F89C1006F041
:103970008BFC23683568002243F0040323603A601F
:10398000002D7FF46CAF7FE7124805F01DFF0C217E
:10399000134808F069FC0F4805F016FFFF210520C9
:1039A00006F072FC074B0D491A680492049A0968E4
:1039B0000A443A604BE700BFB0CFFF1FB4CFFF1FF0
:1039C000B8CFFF1FC0D3FF1FC0CFFF1FBCCFFF1F4B
:1039D000D8D0FF1FFC89FF1FB04401006888FF1F7B
:1039E000C04401002DE9F84F544EDFF854A133686C
:1039F000DFF85091D3F88400534D0F2105F046FBBA
:103A00000123CAF80030514800232221C9F80030B0
:103A100008F02AFCD9F80030132B21DC4C4F40F67B
:103A2000E4483368B5F888B0D3F88400436B1C6968
:103A300005F074F8A4B2012108FB04F4B4FBF0F41F
:103A40003846A344A5F888B008F00EFC642006F0C0
:103A500027FED9F800300133132BC9F80030E0DD20
:103A6000B5F888303B493C48A1FB03215B1A01EBC8
:103A70005301C1F30F11A5F8881005F09DFE1D211B
:103A8000364808F0F1FB0221354808F0EDFB3248DA
:103A900005F09AFE0023C9F8003033680E21D3F8F0
:103AA000840005F0F3FA02232848CAF800302221E6
:103AB00008F0DAFBD9F80030132B22DCDFF8908015
:103AC00040F6E4473368B5F88AA0D3F88400436B26
:103AD0001C6905F023F8A4B2012107FB04F4B4FB30
:103AE000F0F44046A244A5F88AA008F0BDFB64208B
:103AF00006F0D6FDD9F800300133132BC9F8003099
:103B0000E0DDB5F88A3013491348A1FB03215B1AA5
:103B100001EB5301C1F30F11A5F88A1005F04CFE1B
:103B20001D21104808F0A0FB0D48022108F09CFB65
:103B3000BDE8F84F084805F047BE00BFDC91FF1F05
:103B40007888FF1FC8D1FF1FD8D0FF1FD0440100C5
:103B5000F444010087611886FC89FF1FF8440100C6
:103B60007C50010018450100F8B59F4DD5F8B830DC
:103B7000072B00F05D819D4B9D4C1B68686D40F2EA
:103B8000513108222160E271002B00F0288109F0F8
:103B9000F7F9296A064609F047FA964909F044FA06
:103BA00009F02EFCC2B22272934AA969C0F307231E
:103BB000637213886381914B30461B88A38109F09F
:103BC00033FA8C4909F030FA09F01AFC88490346A7
:103BD0008B48E38104F028FD8A4A894813681288DB
:103BE000228103EB8303884A08265B0040F25531AB
:103BF0001288216000277E492373334162816373F9
:103C0000E671E78104F010FD40F256337F482360EF
:103C1000E671FDF7CDFE7E4909F006FA09F0F0FBEA
:103C200020727A48FDF7C4FE794909F0FDF909F0E0
:103C3000E7FB784B7649C0F307206072186809F0FB
:103C4000A7FA09F0B7FB60817048FDF7DFFE69490C
:103C500009F0EAF909F0AEFB20736C48FDF7D6FED7
:103C6000644909F0E1F909F0A5FB40F30720604938
:103C700060736348E78104F0D7FC022006F010FD72
:103C800040F25A332360644B59491B68A360634B6D
:103C90005B481B68E360E67104F0C6FC40F25E33EB
:103CA00023605F4B52491A6855485B68A260E36025
:103CB000E67104F0B9FC022006F0F2FC4FF45C73EC
:103CC0002360584B4A491A684D485B68A260E3601C
:103CD000E67104F0A9FC022006F0E2FC40F2733326
:103CE0004A482360E671FDF719FE4F4909F09CF937
:103CF00009F086FB20724548FDF710FE4A4909F09D
:103D000093F909F07DFBC0F3072060723F48FDF78F
:103D10002BFE454909F088F909F072FBA0723B4877
:103D2000FDF722FE404909F07FF909F069FBC0F375
:103D30000720E0723548FDF7C9FE3C4909F06CF8F0
:103D400009F05EFB20733148FDF7C0FE374909F0EA
:103D500063F809F055FBC0F3072060732B48FDF7AB
:103D6000B3FE324909F058F809F04AFBA07327481E
:103D7000FDF7AAFE2D4909F04FF809F041FBC0F309
:103D800007201B49E0731E4804F04EFC022006F099
:103D900087FC40F27933EA6D2360AB6D13FB02F3CD
:103DA00002202372C3F30723E071637206F078FCEC
:103DB00040F2723315482360E671FDF7FBFD0346C0
:103DC00012482372FDF7F6FD40FA06F3637267812D
:103DD000E76007490A48BDE8F84004F025BC09F04F
:103DE000CFF86969D6E600BFD8D0FF1FB0D1FF1F5A
:103DF00034D0FF1F0000204140CFFF1FCCCFFF1F5A
:103E0000CCD1FF1F2888FF1F2C88FF1FF091FF1FB8
:103E10000000C842C4CFFF1FE091FF1FC4D1FF1FA5
:103E20003888FF1F3088FF1F00007A44339388438F
:103E3000554C564BE36040F2593200230826214688
:103E400053482260A360E67104F0EEFB022006F006
:103E500027FC504B686D1B68E67140F251322260BE
:103E6000002B00F08D8009F08BF8296A09F0DCF84E
:103E7000494909F0D9F809F0C3FA484A484B128871
:103E80001B886281C1B2C0F30720002521726072D5
:103E90003D493F48A381E58104F0C6FB022006F0BE
:103EA000FFFB404B404A1B88128837496381082634
:103EB00040F25533364822812360E560E67104F014
:103EC000B3FB022006F0ECFB40F256333748236088
:103ED000E671FDF76DFD364909F0A6F809F090FA94
:103EE000034632482372FDF763FD314909F09CF81F
:103EF00009F086FA2F4A2E490346C3F307231068B8
:103F0000637209F045F909F055FA034627486381C1
:103F1000FDF77CFD204909F087F809F04BFA0346CC
:103F200022482373FDF772FD1B4909F07DF809F063
:103F300041FA1549E58140F307231548637304F0FE
:103F400073FB022006F0ACFB4FF4577302250E49B9
:103F500023600F48E571C023238104F065FB2846E8
:103F600006F09EFB144B154AE57140F25E3121606C
:103F70002272637204490648BDE8F84004F054BB5D
:103F800008F0FEFF696971E734D0FF1F01504E0051
:103F9000CCD1FF1FB0D1FF1F0000204140CFFF1F39
:103FA000CCCFFF1F2C88FF1F2888FF1FF091FF1F19
:103FB0000000C842C4CFFF1F384501002042010065
:103FC0002DE9F041A64CA74D82B008F0DFF8236838
:103FD0002860042B5DD0022B40F06681A0F13102F5
:103FE000422A4AD8DFE812F09E041A055005270538
:103FF00041056A0577055D0549004900490049000A
:104000004900490049004900490049004900490068
:104010004900490049004900490049004900490058
:104020004900490049004900490049004900490048
:104030004900490049004900490049004900490038
:104040004900490049004900490049005C01490014
:104050004900490049004900490049004900490018
:10406000490049004900490045004900850571287B
:1040700003D10023732023602860002B08BF73281E
:104080000CBF01230023002B40F08C8002B0BDE860
:10409000F081A0F13102402AEFD801A151F822F0BD
:1040A00021490000134800009D480000B948000065
:1040B000BD480000D7480000F7480000FB4800005A
:1040C000FF4800007B4000007B4000007B40000078
:1040D0007B4000007B4000007B4000007B400000F4
:1040E0007B4000007B4000007B4000007B400000E4
:1040F0007B4000007B4000007B4000007B400000D4
:104100007B4000007B4000007B4000007B400000C3
:104110007B4000007B4000007B4000007B400000B3
:104120007B4000007B4000007B4000007B400000A3
:104130007B4000007B4000007B4000007B40000093
:104140007B4000007B4000007B4000007B40000083
:104150007B4000007B4000007B4000007B40000073
:104160007B400000794600007B4000007B4000005F
:104170007B4000007B4000007B4000007B40000053
:104180007B4000007B4000007B4000007B40000043
:104190007B4000007B4000007B4000007B40000033
:1041A00073400000304E314805F00EFB04213048CA
:1041B00008F05AF82D4805F007FB10212D4808F0AB
:1041C00053F82A4805F000FB13212B4808F04CF85F
:1041D0002A4B2648196805F0EFFA244805F0F4FA4E
:1041E0001421274808F040F8204805F0EDFA1E2178
:1041F000244808F039F81D4805F0E6FA1521224850
:1042000008F032F8194805F0DFFA1E211F4808F0BF
:104210002BF8164805F0D8FA20211D4808F024F89C
:10422000124805F0D1FA19211A4808F01DF80F4874
:1042300005F0CAFA1221184808F016F80B4805F0E4
:10424000C3FA0D21154808F00FF8084805F0BCFA2C
:10425000002201233260236002B0BDE8F08100BF7C
:1042600030D0FF1FF4CFFF1F4C88FF1FFC89FF1FBA
:10427000084F0100104F0100244F01005888FF1F14
:10428000384F0100504F0100704F0100884F01006E
:10429000A84F0100CC4F0100E84F0100FC4F010086
:1042A000FFF7A0FB23682868082B71D1322868D05B
:1042B00071283FF4DEAE31287FF4DFAE07F0A2FFB5
:1042C000002800F3C581974E96F84010336D726C4C
:1042D000032984BF002186F840109348FDF772FB44
:1042E0000122692322602B6001E007F04FFF07F0F5
:1042F00089FF05460028F8D18C4805F065FA8B48FF
:1043000005F062FA894805F05FFA884805F05CFA22
:10431000864805F059FA1521854807F0A5FF83481E
:1043200005F052FA1821834807F09EFF2B460A2217
:1043300096F840107D4805F05FFA7C4805F044FA95
:1043400028217D4807F090FF706C7C4908F06CFED6
:1043500008F046FC00950B460246744805F058FAF2
:104360000221774807F080FF704805F02DFA1321ED
:10437000744807F079FF6D4805F026FA082323609A
:1043800084E607F03FFF002800F353812368286884
:10439000072B14D134283FF76AAE30287FF76DAE73
:1043A0003238022801F29384DFE800F09802AC0072
:1043B00007F028FF002800F3538123682868062BA4
:1043C00040F0AC83A0F13003412B00F2748601A2CF
:1043D00052F823F0674F0000134E00000F4B00000F
:1043E000935000006F500000535000003350000005
:1043F0001D500000B7500000ED4F0000B750000006
:10440000B7500000B7500000B7500000B750000090
:10441000B7500000B7500000B7500000B750000080
:10442000B7500000B7500000B7500000B750000070
:10443000B7500000B7500000B7500000B750000060
:10444000B7500000B7500000B7500000B750000050
:10445000B7500000B7500000B7500000B750000040
:10446000B7500000B7500000B7500000B750000030
:10447000B7500000B7500000B7500000B750000020
:10448000B7500000B7500000B7500000B750000010
:10449000B7500000B7500000B7500000B750000000
:1044A000B7500000B7500000B7500000B7500000F0
:1044B000B7500000B7500000B7500000B7500000E0
:1044C000B7500000B7500000B7500000B7500000D0
:1044D000B7500000B75000007340000007F092FE94
:1044E00000287FF76AAF11480E4E05F0CDFA08F0AC
:1044F00047FD154908F098FD012323606123F0630F
:104500002B6025E007F07EFE00287FF756AF0748B6
:10451000044E05F0B9FA012323606123A6F8CA000E
:104520002B6015E0D8D0FF1FF091FF1FFC89FF1F03
:10453000D04F0100604501007C45010000007A4435
:10454000A8450100AC4501006F12833A07F01EFE3A
:1045500007F058FE05460028F8D1AF4805F034F9B9
:10456000AD4805F031F9AC4805F02EF9AA4805F040
:104570002BF9A94805F028F91F21A84807F074FE77
:10458000A54805F021F91C21A54807F06DFE706AC9
:10459000A44908F049FD08F023FB009502460B46AC
:1045A0009D4805F035F902219F4807F05DFE9A48C5
:1045B00005F00AF923219D4807F056FEF06B994952
:1045C00008F032FD08F00CFB009502460B469248BD
:1045D00005F01EF90221944807F046FE8E4805F0CA
:1045E000F3F81921924807F03FFEB06B08F0F8FA93
:1045F00002250B4602460095874805F009F9294631
:104600008C4807F031FE844805F0DEF822218A4804
:1046100007F02AFEB6F8CA107F4805F0CDF803214E
:10462000864807F021FE7C4805F0CEF8072323607A
:104630002CE57948824E05F027FA08F0A1FC814963
:1046400008F0F2FC336D96F840107064024644E6C0
:1046500071487B4E05F018FAC1B286F8401035E675
:104660006D48774E05F010FA08F08AFC01232360AC
:104670006123B0632B606BE7734A1368B3FA83F36B
:10468000642001215B09216013602860A0F15203BE
:104690001F2B00F2BC80DFE813F0B405BA00BA00AB
:1046A000BA00BA00BA00BA00BA00BA00BA00BA003A
:1046B000BA00BA00BA00BA00B105B605030B220071
:1046C000FA0ABA00BA00BA00F70ABA00060BBA0032
:1046D000BA00BA00BA00BA00A10507F057FD07F00A
:1046E00091FD0028F9D14C4805F06EF84A4805F0D4
:1046F0006BF8494805F068F8474805F065F8464802
:1047000005F062F81321514807F0AEFD424805F06C
:104710005BF80D214E4807F0A7FD3F4805F054F81F
:104720000F214C4807F0A0FD4B4B3B48196805F0A2
:1047300043F8394805F048F81321484807F094FD3C
:10474000474B3548196805F037F8334805F03CF811
:104750001221444807F088FD434B2F48196805F0A3
:104760002BF82D4805F030F81121404807F07CFD6A
:104770003F4B2948196805F01FF8274805F024F831
:104780000E213C4807F070FD2D4B2348D3F8A810AC
:1047900005F012F8204805F017F81921364807F0FF
:1047A00063FD364B1C48196805F006F81A4805F0F9
:1047B0000BF81121324807F057FD324B16481968A3
:1047C00004F0FAFF144804F0FFFF10212E4807F010
:1047D0004BFD2E4B1048196804F0EEFF0E4804F014
:1047E000F3FF1C212A4807F03FFD2A4B0A481968AD
:1047F00004F0E2FF084804F0E7FF1321264807F021
:1048000033FD054804F0E0FF042323603EE4236801
:1048100033E4134A31E700BFFC89FF1F94470100CE
:10482000B447010000007A44A8450100D4470100C4
:10483000F8470100704701001448010038480100A2
:10484000D8D0FF1F6F12833AEC91FF1F4849010037
:104850005C4901006C49010038CFFF1F7C49010011
:10486000C8CFFF1F90490100C4D0FF1FA449010019
:10487000F8CFFF1FB8490100C84901003CCFFF1F16
:10488000E4490100DCCFFF1FF8490100A491FF1F9C
:104890000C4A01005088FF1FAC450100A94B1A6863
:1048A0000121002A0CBF0A46002221601A6041F053
:1048B000508164202860E9E6A34ADEE6A34ED6F8DC
:1048C000A830B3FA83F3642001225B092260C6F8A2
:1048D000A8302860DAE601239D482360FCF7AAFD92
:1048E0009C4B6422186023682A60082B40F02387C1
:1048F0006420FFF7C2BB984ABFE6984ABDE6012391
:10490000236007F07FFC002801F31481944B1868A2
:104910000428C4BF02221A60642223682A60E4E7E4
:10492000904AAAE6894EF36FB3FA83F35B0901223A
:10493000F367632322602B6001E007F027FC07F098
:1049400061FC0028F9D1884804F03EFF864804F055
:104950003BFF854804F038FF834804F035FF824868
:1049600004F032FF1F21814807F07EFC7E4804F0EE
:104970002BFF1E217E4807F077FC7B4804F024FFC4
:104980007C481A2107F070FCD6F88030022B01F029
:104990000A81032B01F0FE80012B01F0F2807648A2
:1049A000092107F061FC704804F00EFF14217348E0
:1049B00007F05AFCF16F6C4804F0FEFE6A4804F000
:1049C00003FF1C216E4807F04FFCD6F884106648A0
:1049D00004F0F2FE644804F0F7FE1C21694807F079
:1049E00043FCD6F8B410604804F0E6FE5E4804F0DC
:1049F000EBFED6F8805025F00207012F00F0B786B5
:104A0000022D01F0D98013215F4807F02DFC564894
:104A100004F0DAFE02232360FFF738BB4B4ED6F8D2
:104A20008430B3FA83F35B090122C6F88430632330
:104A300022602B6083E70123236007F0E3FB00285B
:104A400007DD4948414E05F01FF808F099FAC6F80D
:104A5000940023686320072B28603FF40EAB052BDE
:104A600041F018810523FFF708BB0123236007F0FD
:104A7000C9FB0028EDDD3C48344E05F005F808F090
:104A80007FFAC6F89000E4E70123236007F0BAFB41
:104A9000002801F356802D4E0122632322602B60F3
:104AA0004DE70123236007F0ADFB0028F3DD2E481E
:104AB000264E04F0E9FFC6F88C00EDE701232360E1
:104AC00007F0A0FB0028C4DD2748204E04F0DCFFDF
:104AD000A6F8C200BDE71D4ED6F8D430012213441B
:104AE000052BA8BF134622606322C6F8D4302A6083
:104AF00025E7164ED6F8803001221344042B22609D
:104B0000A8BF00236322C6F880302A6017E707F0A9
:104B100079FB002800F3FE8723682868052B3CD129
:104B2000362800F3CD8530287FF7A7AA323804282D
:104B300001F2BC80DFE810F05D014001C2002A00F4
:104B4000500100BFC4D0FF1FF8CFFF1FD8D0FF1FF8
:104B5000F091FF1F3CCFFF1FDCCFFF1FA491FF1F71
:104B60005088FF1F38CFFF1FFC89FF1F2C4A010010
:104B70004C4A01006C4A0100E44A0100F04A01007D
:104B8000084B0100284B0100AC45010007F03AFB3F
:104B9000002800F35B8623682868032B40F0C68555
:104BA000A0F13002422A3FF668AA01A151F822F092
:104BB000BB590000E55900009B590000E15A000074
:104BC000C75A0000A75A00006D5A0000575A00004B
:104BD0003B5A00001B5A00007B4000007B40000055
:104BE0007B4000007B4000007B4000007B400000D9
:104BF0007B4000007B4000007B4000007B400000C9
:104C00007B4000007B4000007B4000007B400000B8
:104C10007B4000007B4000007B4000007B400000A8
:104C20007B4000007B4000007B4000007B40000098
:104C30007B4000007B4000007B4000007B40000088
:104C40007B4000007B4000007B4000007B40000078
:104C50007B4000007B4000007B4000007B40000068
:104C60007B4000007B4000007B4000007B40000058
:104C70007B400000055A0000215700008F580000BB
:104C8000BB580000A55800002D590000D756000061
:104C9000FB5600007B400000FB5A000079590000E1
:104CA0007B4000007B4000007B4000007B40000018
:104CB0007B4000006B5900006158000007F0A2FA29
:104CC00000287FF768AFB448B44E04F0DDFEB44B63
:104CD000C6F8AC0002221A60FDF73CFD01226B23EE
:104CE00022602B6001E007F051FA07F08BFA0028F0
:104CF000F9D1A94804F068FDA74804F065FDA6486D
:104D000004F062FDA44804F05FFDA34804F05CFDDC
:104D10002121A44807F0A8FA9F4804F055FD152169
:104D2000A14807F0A1FAD6F898109B4804F044FD7A
:104D300002219E4807F098FA974804F045FD1E218D
:104D40009B4807F091FAD6F8A010934804F034FD80
:104D50000321984807F088FA8F4804F035FD1E219A
:104D6000954807F081FAD6F89C108B4804F024FD92
:104D7000894804F029FD1D21904807F075FAD6F8FE
:104D8000AC10854804F018FD834804F01DFD1E2179
:104D90008B4807F069FAD6F8B0107F4804F00CFD94
:104DA0007D4804F011FDD6F8A830012B00F01987DA
:104DB00005232360FFF76AB907F024FA00287FF77C
:104DC000EAAE7548754E04F05FFE012323606B2345
:104DD000C6F89C002B6088E7704E96F8C930012217
:104DE000B3FA83F322605B096B2286F8C9302A602C
:104DF0007BE707F007FA00287FF7CDAE6648674EDD
:104E000004F042FE012323606B23C6F8A0002B6050
:104E10006BE707F0F7F900287FF77EAE5E485F4E3C
:104E200004F032FE08F0ACF8664908F0B1F901234D
:104E30002360652370612B6001E007F0A7F907F09C
:104E4000E1F905460028F8D1534804F0BDFC52486A
:104E500004F0BAFC504804F0B7FC4F4804F0B4FC2E
:104E60004D4804F0B1FC1121574807F0FDF94A48BC
:104E700004F0AAFC2821554807F0F6F97069514959
:104E800008F0D2F807F0ACFE009502460B46424807
:104E900004F0BEFC02214E4807F0E6F93E4804F05B
:104EA00093FC16214B4807F0DFF9F069454908F0FB
:104EB000BBF807F095FE00950B460246364804F015
:104EC000A7FC0221424807F0CFF9334804F07CFCEC
:104ED000D6F8B830002B32DD1D213F4807F0C4F969
:104EE000306E08F04DF83D4908F09EF807F078FE66
:104EF000022502460B462848009504F089FC012152
:104F0000374807F0B1F9244804F05EFC1F2135480A
:104F100007F0AAF9706E08F033F8304908F084F809
:104F200007F05EFE009502460B461B4804F070FC3D
:104F30002B48012107F098F9174804F045FC2A484E
:104F4000112107F091F9D6F8B830082B00F2BA8099
:104F5000DFE813F03A013F01350130012B01260152
:104F600021011C01B40007F04DF900287FF7D4ADF2
:104F700009480A4E04F088FD00EB8000326E4300C1
:104F80001BB29342A6F8D030C8BFA6F8D020652344
:104F9000012222602B6052E7FC89FF1FD8D0FF1F3F
:104FA000DCCFFF1F3C4801006048010004470100BE
:104FB00078480100F443010098480100B848010016
:104FC000D848010000007A44744F0100C045010038
:104FD000A8450100EC45010004460100CDCCCC3DC4
:104FE0006C4B0100244601004446010007F00AF919
:104FF00000287FF791AD8548854E04F045FD07F008
:10500000BFFFF76A3946804608F0ACF900B9474659
:1050100001232360652337632B6010E77C4E96F8ED
:10502000C830012253402260652286F8C8302A60C9
:1050300005E707F0E7F800287FF76EAD7348744E78
:1050400004F022FD012323606523C6F8BC002B6019
:10505000F5E66F4ED6F8B83001221344092B2260D2
:10506000A8BF00236522C6F8B8302A60E7E607F03B
:10507000C9F800287FF750AD6448654E04F004FD80
:1050800000EB8000400001226523706622602B60E7
:10509000D5E607F0B7F800287FF73EAD5B485C4ED9
:1050A00004F0F2FC00EB8000400001226523306632
:1050B00022602B60C3E60623FEF7DFBF55481121AF
:1050C00007F0D2F8514804F07FFBD6F8B830002B37
:1050D00012DD1821504807F0C7F8D6F8BC104B482D
:1050E00004F06AFB02214D4807F0BEF8474804F07F
:1050F0006BFB464804F068FB49481B2107F0B4F8F5
:1051000096F8C830002B40F023834648122107F060
:10511000ABF83E4804F058FB1F21434807F0A4F8C1
:10512000306B07F05DFD022502460B4637480095BF
:1051300004F06EFB29463D4807F096F8334804F02A
:1051400043FB1E213A4807F08FF8B6F9D00007F06C
:1051500017FF384907F068FF07F042FD00950B463E
:1051600002462A4804F054FB0121334807F07CF83A
:10517000264804F029FB1321304807F075F823482E
:1051800004F022FB06232360FEF780BF14212C4885
:1051900007F06AF896E704212A4807F065F891E7D6
:1051A0000B21294807F060F88CE70D21274807F00C
:1051B0005BF887E70D21264807F056F882E70C21B7
:1051C000244807F051F87DE70D21234807F04CF8FB
:1051D00078E70C21214807F047F873E7D82200212F
:1051E0000B481F4E04F04CFD2B6800210122732B4D
:1051F000216032607EF44AAFFEF7D5BF044EFFF760
:10520000A7B906F067FB024E2EE000BFFC89FF1F26
:10521000D8D0FF1FD4460100E84601000447010032
:105220000847010024470100504701007047010072
:1052300074470100CDCCCC3D6C4B0100AC45010066
:10524000BC460100B4460100A84601009846010092
:105250008846010078460100584601006846010072
:105260004C88FF1F06F092FF06F0CCFF0546002891
:10527000F8D1C24804F0A8FAC04804F0A5FABF4823
:1052800004F0A2FABD4804F09FFABC4804F09CFA6E
:105290001521BB4806F0E8FFB84804F095FA142140
:1052A000B84806F0E1FFB54804F08EFA1B21B64875
:1052B00006F0DAFFB14804F087FA1321B34806F08C
:1052C000D3FFAE4804F080FAAC4804F07DFAAB4856
:1052D00004F07AFA2021AE4806F0C6FFF068AD4926
:1052E00007F0A2FE07F07CFC009502460B46A3489F
:1052F00004F08EFA0221A84806F0B6FF0221A74862
:1053000006F0B2FF9D4804F05FFA2121A44806F0A0
:10531000ABFF30699F4907F087FE07F061FC0095FD
:1053200002460B46954804F073FA02219A4806F0AB
:105330009BFF0221994806F097FF904804F044FA39
:105340001F21984806F090FFB06A07F049FC022739
:1053500002460B468948009704F05AFA0121924808
:1053600006F082FF39468D4806F07EFF834804F040
:105370002BFA20218D4806F077FFF06A07F030FC09
:10538000009702460B467D4804F042FA0121864808
:1053900006F06AFF3946814806F066FF774804F058
:1053A00013FA2321824806F05FFFB06C794907F0B9
:1053B0003BFE07F015FC009502460B466F4804F0D3
:1053C00027FA3946744806F04FFF3946734806F00D
:1053D0004BFF6A4804F0F8F91F21764806F044FFB5
:1053E000F06C6C4907F020FE07F0FAFB00950246CE
:1053F0000B46624804F00CFA3946674806F034FF61
:105400003946664806F030FF5C4804F0DDF91921A2
:10541000694806F029FFF16D584804F0CDF9394686
:10542000664806F021FF39465C4806F01DFF5348E8
:1054300004F0CAF91821624806F016FFB06E07F0B2
:105440009FFD604907F0F0FD07F0CAFB0097024698
:105450000B464A4804F0DCF901215B4806F004FFE2
:1054600039464E4806F000FF444804F0ADF92B21C0
:10547000564806F0F9FEB069464907F0D5FD07F039
:10548000AFFB009502460B463C4804F0C1F9394693
:10549000414806F0E9FE3946404806F0E5FE374847
:1054A00004F092F91F214A4806F0DEFEB16D334840
:1054B00004F082F93946394806F0D6FE2F4804F048
:1054C00083F92021434806F0CFFE716D2B4804F08C
:1054D00073F93946314806F0C7FE284804F074F9DC
:1054E00010213D4806F0C0FEF16E244804F064F936
:1054F0003946294806F0B8FE3946284806F0B4FE79
:105500001E4804F061F91321344806F0ADFE316FF6
:105510001A4804F051F90121314806F0A5FE394638
:105520001E4806F0A1FE154804F04EF910212D4842
:1055300006F09AFE716F114804F03EF9394616489C
:1055400006F092FE3946154806F08EFE0B4804F030
:105550003BF91421244806F087FEB16F074804F098
:105560002BF901211E4806F07FFE39460B4806F054
:105570007BFE024804F028F9162137E0FC89FF1F62
:10558000504C0100684C0100804C0100AC4501000A
:105590009C4C010000007A44A84501007C500100A9
:1055A000C04C0100E44C0100044D0100084D010015
:1055B0002C4D0100504D0100704D01008C4D01003B
:1055C000904D0100CDCCCC3D6C4B0100AC4D0100A9
:1055D000D84D0100F84D01001C4E0100304E010075
:1055E000444E0100484E01005C4E0100B84806F0F0
:1055F0003BFE306AB74907F017FD07F0F1FA009556
:1056000002460B46B44804F003F93946B34806F0A5
:105610002BFE3946B24806F027FEAF4804F0D4F816
:105620002421B04806F020FED6F8C400A94907F0AE
:10563000FBFC07F0D5FA009502460B46A64804F09D
:10564000E7F83946A54806F00FFE3946A44806F0AB
:105650000BFEA14804F0B8F82B21A34806F004FE85
:10566000706B07F0BDFA009702460B469A4804F0AB
:10567000CFF801219D4806F0F7FD3946984806F01D
:10568000F3FD954804F0A0F82721994806F0ECFDB9
:10569000D6F8CC008F4907F0C7FC07F0A1FA0095B7
:1056A0000B4602468C4804F0B3F839468B4806F0A6
:1056B000DBFD894804F088F803232360FEF7E6BC8D
:1056C00071287FF4CFA98B4A0023732013602360D5
:1056D0002860FEF7D2BC06F095FD00280DDD7E485F
:1056E000854E04F0D1F907F04BFC7A4907F050FDE4
:1056F00001226223306222602B6006F083FD0028C5
:105700000EDD75487C4E04F0BFF907F039FC714995
:1057100007F03EFD01226223C6F8C40022602B6020
:1057200006F070FD002818DC23682868012B7EF441
:10573000A4ACFEF7ABBF072B3FF4DAA8062B4FF063
:1057400064003FF4B8AC052B3FF48CA9FFF725BAF1
:1057500014216A4806F088FDDBE45F48664E04F0D9
:1057600093F9F0660122622322602B607CE51C2104
:10577000634806F079FDD6F89400624907F054FCBE
:1057800007F02EFA009702460B46534804F040F803
:1057900005215D4806F068FD4F4804F015F8D6F87D
:1057A0008050012D19D11D21584806F05DFDD6F815
:1057B0009000544907F038FC07F012FA00950246B1
:1057C0000B46454804F024F805214F4806F04CFDEF
:1057D000414803F0F9FFD6F8805025F00203012B71
:1057E0007FF40EA91C214A4806F03EFDB6F8C2100F
:1057F000394803F0E1FF0321464806F035FD3648FD
:1058000003F0E2FFD6F88050012D7FF4F9A81F21A4
:10581000414806F029FDD6F88C0007F0B1FB3F495E
:1058200007F002FC07F0DCF9022502460B46009562
:10583000294803F0EDFF2946394806F015FD2648B2
:1058400003F0C2FFD6F88050FFF7DAB822482A4E9C
:1058500004F01AF9274BC6F8B0000322FFF73BBA51
:10586000304B1F48022101221A6006F0FDFC1A4845
:1058700003F0AAFF2C480B2106F0F6FC0221184881
:105880001D4E06F0F1FC144803F09EFF6AE706F097
:10589000B9FC00287FF748AF0F48174E04F0F4F822
:1058A00030675FE706F0AEFC00287FF73DAF0A489F
:1058B000114E04F0E9F8B06754E706F0A3FC0028A5
:1058C0007FF732AF04480C4E04F0DEF8706749E70A
:1058D000744E010000007A44FC89FF1FA8450100B6
:1058E0007C5001008C4E0100B44E0100044D0100BB
:1058F000E04E0100DCCFFF1FD8D0FF1F384701006A
:10590000484B0100CDCCCC3D684B0100704B0100F1
:10591000904B0100B04B0100B44B01006F12833A71
:10592000D44B0100C891FF1F54450100FCF7B8FD9E
:105930000221B84806F098FCB74803F045FF022161
:10594000B44806F091FCB44803F03EFF0221B14890
:1059500006F08AFCB04803F037FF1721AF4806F085
:1059600083FCAD4803F030FF88E700227323AC4E80
:1059700022602B60FEF717BC06F044FC00287FF77E
:10598000D3AEA548A74E04F07FF807F0F9FAA64970
:1059900007F0FEFBC6F8CC00E4E606F033FC002876
:1059A0007FF7C2AE9C489F4E04F06EF807F0E8FA0D
:1059B0009D4907F0EDFB3061D4E606F023FC00289A
:1059C0007FF7B2AE9448974E04F05EF8012301468B
:1059D00023609648B16562232B60FBF7F1FF2368D3
:1059E0002868A3E606F00EFC00287FF79DAE8A48E3
:1059F0008C4E04F049F807F0C3FA8B4907F0C8FB56
:105A0000F060AFE606F0FEFB00287FF78DAE82481F
:105A1000844E04F039F87065A4E606F0F3FB002824
:105A20007FF782AE7C487F4E04F02EF807F0A8FA8C
:105A30007D4907F0ADFBB06194E606F0E3FB00287A
:105A40007FF772AE7448774E04F01EF800EB8000CA
:105A50004000B06686E606F0D5FB00287FF764AE0E
:105A60006D48704E04F010F8F0657BE606F0CAFB56
:105A700000287FF759AE68486A4E04F005F807F031
:105A80007FFA694907F084FB01230146F064674807
:105A90002360FBF7C5F923686222012B2A607EF49C
:105AA000F5AAFFF7E1BB06F0ADFB00287FF73CAE9F
:105AB00059485C4E03F0E8FF07F062FA5A4907F0D4
:105AC00067FBB0644EE606F09DFB00287FF72CAE26
:105AD0005148544E03F0D8FF07F052FAF06241E605
