:1000000000800020BD01000009A00000C59F000085
:10001000C59F0000C59F0000C59F0000C59F000050
:10002000C59F0000C59F0000C59F000009A00000FB
:1000300009A00000C59F0000D1940000D5940000E5
:1000400009A0000009A0000009A0000009A000000C
:1000500009A0000009A0000009A0000009A00000FC
:1000600009A0000009A0000009A0000009A00000EC
:1000700009A0000009A0000009A0000009A00000DC
:1000800009A0000009A0000009A0000009A00000CC
:100090007D24000009A0000009A0000009A00000C4
:1000A00009A0000009A0000009A0000009A00000AC
:1000B00009A00000718A00007D8A0000818A00008A
:1000C0008D8A0000918A0000958A000009A0000036
:1000D00009A0000009A0000009A0000009A000007C
:1000E00009A0000009A0000009A0000009A000006C
:1000F00009A0000009A0000009A000003DAF000019
:1001000009A0000065B6000009A0000009A00000D9
:1001100009A0000009A0000009A0000009A000003B
:1001200009A0000009A0000009A0000009A000002B
:1001300009A0000009A0000009A0000009A000001B
:1001400009A0000009A0000009A0000009A000000B
:1001500009A0000009A0000009A0000009A00000FB
:1001600009A0000069B9000009A0000009A0000072
:1001700009A0000009A0000009A0000009A00000DB
:1001800009A0000009A0000009A0000009A00000CB
:1001900009A0000009A0000009A0000009A00000BB
:1001A00009A0000009A0000009A0000009A00000AB
:1001B00009A0000009A0000009A00000574B4CF264
:1001C000205210B5DA814DF62812DA8100BF00BF47
:1001D00009F01EFF524B4FF010621A63514A9A63A6
:1001E000514ADA63514A136913F4807303D153619E
:1001F0004FF4A85313614E4B9A78110703D59A78A0
:1002000042F008029A704B4B4B482A221A704B4B13
:10021000DA1C121AC11E22F00302994288BF002282
:10022000474909F0FBFD474B4748DA1C121AC11E2B
:1002300022F00302994288BF002200210DF0BEFF88
:10024000424943484FF4DE7209F0E8FD414B424A0F
:10025000802103F8011B9342FBD14FF0E0233C4A7D
:10026000C3F8082D3D4B8A221A70A3F5805324222F
:100270005A70A0221A709A799207FCD59A79D406FE
:10028000FCD4374B9A7902F00C02082AFAD10322E7
:100290001A7140225A719A799006FCD5304A9379A6
:1002A0005906FCD51E4B2F4959640221996420211F
:1002B0001170917901F00C010C29FAD12A4A5A6087
:1002C0004FF0E023294A5A6100229A6107221A61FD
:1002D000274AC3F8202D62B609F0CCFF134B5B69A7
:1002E000DA0705D5234809F0B9FF234B234ADA6121
:1002F000234B1B785B0609D51F4C204BE2699A42C1
:1003000004D11C4809F0AAFF0023E36109F086FE2E
:100310000EF04AF809F07AFDFEE700BF0020054024
:1003200000800440823F04000100002B00D0034005
:1003300000D0074000E007402087FF1F6891FF1FA3
:10034000F45B010010D9FF1F6891FF1F000000003F
:100350000082FF1F00E400E05FE400E00050064080
:100360000040064000000301C0100500FF760100B8
:100370000000202066ED066600E00340A5C3945A05
:1003800000F00740FFFFFFFFFFFFFFFFFFFFFFFF42
:10039000FFFFFFFFFFFFFFFFFFFFFFFFFFFFFFFF6D
:1003A000FFFFFFFFFFFFFFFFFFFFFFFFFFFFFFFF5D
:1003B000FFFFFFFFFFFFFFFFFFFFFFFFFFFFFFFF4D
:1003C000FFFFFFFFFFFFFFFFFFFFFFFFFFFFFFFF3D
:1003D000FFFFFFFFFFFFFFFFFFFFFFFFFFFFFFFF2D
:1003E000FFFFFFFFFFFFFFFFFFFFFFFFFFFFFFFF1D
:1003F000FFFFFFFFFFFFFFFFFFFFFFFFFFFFFFFF0D
:10040000FFFFFFFFFFFFFFFFFFFFFFFFDEF9FFFF23
:100410000548064B1B1AD90F01EBA301491002D066
:10042000034B03B1184770476891FF1F6891FF1F86
:100430000000000008B5054B1BB105490548AFF3A6
:100440000080BDE80840FFF7E3BF00BF00000000E8
:100450006891FF1FF45B010010B5342200210446AF
:100460000DF0ACFE184904F1300304F1640243F8C6
:10047000041F9A42FBD13422002104F168000DF0E0
:100480009DFE0023002211481149C4F89C30C4F895
:10049000A030C4F8A430C4F8A830C4F8B000C4F840
:1004A000B83047F23050012384F8DC20C4F8F00063
:1004B000C4F8AC10C4F8B410C4F8E420A4F8C42004
:1004C000C4F8F430204610BD0000A0400000C8C2AF
:1004D000000048430023C0F8E4308B7A91F809C04B
:1004E000CA7A1B0143EA1C1343EA0233C0F8E43022
:1004F000704700BF012A38B505460C4614D00223C8
:10050000C0F8F4304B7B087B1B01DBB243EA1010D0
:100510000CF07EFD4FF07C510CF0CEFD2C490CF020
:10052000C1FCC5F8A00038BDC0F8F420CB7BFD2B82
:1005300049D0087ADE2828D9C87A0CF069FD4FF036
:100540007C510CF0B9FD23490CF0ACFCC5F8A000BF
:10055000207BEF282DD80CF05BFD4FF07C510CF088
:10056000ABFD1C490CF09EFCC5F8A400607BEF2895
:1005700025D80CF04DFD4FF07C510CF09DFD154938
:100580000CF090FCC5F8A80038BD0CF041FD4FF010
:100590007C510CF091FD0F490CF084FCC5F8A000D3
:1005A000E27AA37A03EB0223C5F8E430207BEF283C
:1005B000D1D90020C5F8A400607BEF28D9D9002349
:1005C000C5F8A83038BD887AFD28A1D138BD00BF54
:1005D0000000204200002C4290F8CC00704700BF81
:1005E00090F8C800704700BF90F8D000704700BF77
:1005F00090F8D400704700BF0D2994BF50F8210037
:10060000002070472DE9F0410C4E8046051F00F197
:10061000300755F8044F314620460CF0EBFE0346F8
:1006200020462BB1D8F8BC100CF002FF00B12646D2
:10063000BD42EED13046BDE8F08100BF0000204150
:100640002DE9F843D0F8BC800F4F4FF00009051F8B
:1006500000F1300655F8044F414620460CF0E8FE04
:100660000346394620464BB10CF0C4FE03464946CA
:1006700020461BB10CF0DCFE00B1A146B542E9D129
:100680004846BDE8F88300BF0000A0402DE9F84FC0
:10069000D0F8BC90174F83460026051F00F13008A4
:1006A0004FF0000A55F8044F494620460CF0C0FEB2
:1006B0000346394620464BB10CF09CFE30B1304623
:1006C00021460CF0F1FB0AF1010A06464545E9D145
:1006D000CBF8E0A0BAF1000F08D050460CF098FC1F
:1006E000014630460CF09CFDBDE8F88F0020BDE8C7
:1006F000F88F00BF0000A040D0F8E000704700BFB6
:1007000038B5D0F8F430012B0ED1D0F8D8307BB901
:10071000D0F8A440D0F8A050214628460CF06AFE3C
:1007200020B92C46204638BDD0F8A040204638BD20
:10073000273350F82340204638BD00BFD0F8F430AE
:10074000012B2DE9F041044647D1D0F8D830002BD9
:1007500048D1D0F8A050D0F8A460284631460CF01B
:10076000A3FBD4F8A870394680460CF09DFB5F4986
:100770000CF056FD4FF07C51044628460CF058FE14
:100780004FF07C51002833D128460CF033FE30B1B5
:100790004FF07C5130460CF04BFE002872D14FF0E8
:1007A0007C5128460CF044FE002834D14FF07C5197
:1007B00030460CF03DFE38B14FF07C5138460CF01D
:1007C00019FE002840F090804FF07C5138460CF024
:1007D0002FFE00286DD03C4601E0D0F8A040204616
:1007E000BDE8F081273350F823402046BDE8F08172
:1007F00030460CF01DFE4FF07C51002836D03846B4
:100800000CF016FE0028EAD14FF07C5128460CF07F
:10081000F1FD00284FD14FF07C5130460CF0EAFD3D
:100820004FF07C5100283ED038460CF001FE0028E5
:1008300049D14FF07C5130460CF0FAFD68B14FF0D1
:100840007C5138460CF0D6FD002846D14FF07C5143
:1008500030460CF0CFFD0028A8D04FF07C51384630
:100860000CF0C8FD0028A1D02C46B8E728460CF0B3
:10087000C1FD0028CFD04FF07C5130460CF0D8FDA0
:100880000028C8D04FF07C5138460CF0D1FD00282C
:1008900085D0394630460CF007FB4FF07C510CF008
:1008A0000BFC04469BE730460CF0C2FD0028CDD07F
:1008B000C5E70F4C93E74FF07C5138460CF0B8FD7C
:1008C0000028A8D0E5E7394628460CF0EDFA4FF0AD
:1008D0007C510CF0F1FB044681E74FF07C5140461F
:1008E0000CF0EAFB04467AE7344678E70000404023
:1008F0000000A0C2D0F8F430012B70B5044620D11E
:10090000D0F8D8300BBBD0F8A0604FF07C51304607
:100910000CF08EFDD4F8A450E0B9D4F8A8404FF004
:100920007C5128460CF084FD68B1314628460CF015
:1009300061FD40B1214628460CF05CFD18B12C4603
:1009400001E0D0F8A040204670BD273350F8234086
:10095000204670BD304629460CF04CFDD4F8A84026
:100960000028DCD0304621460CF044FD0028D6D0CB
:100970003446E8E72DE9F041064684B014460329E1
:100980003ED8DFE811F004003201F800E700002350
:1009900080F8EC30907A537A000100EB131000F5E8
:1009A0007A700CF035FBAE490CF086FB3060207B92
:1009B000637B000900EB031000F57A700CF028FB54
:1009C000A7490CF079FBB060207BE37A000200F4C9
:1009D0007060184400F57A700CF01AFBA0490CF016
:1009E0006BFB7060E07BA37B000200F47060184436
:1009F00000F57A700CF00CFB99490CF05DFBF0608F
:100A00003046FFF777FFD6F8AC1004460CF0F2FC46
:100A100008B1C6F8AC40D6F8F430012B0FD1D6F8A7
:100A2000D830002B40F09280D6F8A050D6F8A440E1
:100A3000284621460CF0DEFC18B92C4601E0D6F819
:100A4000A040D6F8B00021460CF0D4FC08B1C6F89E
:100A5000B040DFF81082341F06F13007A06B54F865
:100A6000045F29460CF0E4FC034628462BB1D6F877
:100A7000BC100CF0D3FC00B16563A16E28460CF0ED
:100A8000D7FC0346414628461BB10CF0D1FC00B10F
:100A9000A566A742E2D196F8EC3043B9724B1B68C9
:100AA0000093009BC6F8E83004B0BDE8F0816E4CBE
:100AB000D6F8E83022680192019AD6F8F010D21ADE
:100AC0008A4232D222680292029A0B449B1A41F265
:100AD00087329342E8D8022164480BF00DFC644849
:100AE00008F0BAFE062163480BF006FC96F8DC100D
:100AF0005F4800230A2208F0C7FE19215E480BF068
:100B0000FBFB2168D6F8E830D6F8F0200391039C6F
:100B100057489918091B00230A2208F0B5FE5448CB
:100B200004B0BDE8F04108F097BE20220021304615
:100B30000DF044FB0023C6F89C30C6F8A030C6F880
:100B4000A430C6F8A83004B0BDE8F081273356F8C9
:100B5000234076E7002380F8EC30907A537A000146
:100B600000EB131000F57A700CF052FA3C490CF0CF
:100B7000A3FA306344E7002380F8EC30907A537A8C
:100B8000000100EB131000F57A700CF041FA3449C3
:100B90000CF092FA3062207B637B000900EB0310BB
:100BA00000F57A700CF034FA2D490CF085FAB06239
:100BB000207BE37A000200F47060184400F57A703C
:100BC0000CF026FA26490CF077FA7062E07BA37BE2
:100BD000000200F47060184400F57A700CF018FA06
:100BE0001F490CF069FAF0620AE7002380F8EC3044
:100BF000907A537A000100EB131000F57A700CF034
:100C000007FA17490CF058FA3061207B637B000922
:100C100000EB031000F57A700CF0FAF910490CF0B3
:100C20004BFAB061207BE37A000200F47060184454
:100C300000F57A700CF0ECF909490CF03DFA70619E
:100C4000E07BA37B000200F47060184400F57A702A
:100C50000CF0DEF902490CF02FFAF061D0E600BF8B
:100C60006F12833A0000A040C4D3FF1F005101005F
:100C7000FC89FF1FCC3D0100D43D01002DE9F04768
:100C80000026D0F8BC90104FC0F89C608246051F2B
:100C900000F1300855F8044F494620460CF0C8FBD7
:100CA00003463946204653B10CF0A4FB03462146C7
:100CB000304623B10CF0F8F80646CAF89C004545CA
:100CC000E8D13046BDE8F0870000A04002299ABF75
:100CD000283150F821000020704700BF3E2998BFFE
:100CE00080F8DC10704700BFD0F8F400704700BFF8
:100CF000D0F8E400704700BF90F8C400704700BF10
:100D000090F8C500704700BFC0F8D810704700BF0A
:100D100080F8C410704700BFC0F8C010704700BF13
:100D200080F8C510704700BF30B50F4CC0F8BC103C
:100D300083B020460D4608F08FFD204608F08CFD5C
:100D400028460BF095FF0B460221024600912046F3
:100D500008F0A6FD204608F07FFD204603B0BDE860
:100D6000304008F079BD00BFFC89FF1F70B500F569
:100D70007455064600F12C0434352046F834FFF74C
:100D80006BFBAC42F9D106F592750124284600218F
:100D9000FFF7BEFF214628460134FFF79FFF3F2C97
:100DA00005F1F805F2D106F54053074830610021FE
:100DB0007161002205480649B061F16183F83E2D5A
:100DC0003046A3F83C2D70BD00007A440000484333
:100DD0000000C8C270B500F59274012500260DE030
:100DE000012620460021FFF79BFF294620460135BA
:100DF000FFF774FF3F2D04F1F8040FD02046FFF7F2
:100E00007BFF03462046002BEBD0FFF779FF064619
:100E10000028E5D101462046FFF77AFF304670BD35
:100E2000816270472DE9F04F00F5405383B093F88D
:100E30003E4D01933C2C00910ED9DFF89C8201239A
:100E400098F8062001996FF3000281F83E3D88F87A
:100E5000062003B0BDE8F08F0A2C40F27D81142CEF
:100E600005460ED9A4F11903DBB21E2B04D89B4A08
:100E700022FA03F3DA070CD4631CDFF85C82DBB2DE
:100E8000DEE7A4F10B02D2B240F21123D340DB071C
:100E9000F2D5019ADFF84082002382F83D3D05F546
:100EA0009276012705E001373F2F06F1F80600F0A2
:100EB00097803046FFF720FF0028F4D04FF0000B5A
:100EC0005C464FF00109A96AA8680BF0EDFF59468E
:100ED00082463046FFF790FB014650460CF08AFAF6
:100EE00018B109FA0BF323439CB20BF1010BBBF1D0
:100EF0000D0FE8D11CB1019A012382F83D3D009B02
:100F0000012B00F0D0800023754AC8F80830C8F8DB
:100F10000C30994644FA09F303F0010309F1010981
:100F2000DB00B9F1080F02F8013FF3D107F1FF3BF5
:100F3000BBF10B0F0AD8DFE80BF096928E8AA6A2BF
:100F40009E9AAEAAB206674BC8F80030B8F80630D1
:100F50006149654803F0FE0343F4006343F0010375
:100F6000A8F8063007F0A8FB012009F0E1FB5F4973
:100F7000082044FA09F313F0010309F1010914BF31
:100F800008700B70B9F10D0F01F10101F1D1FE23D1
:100F900088F80D304FF6FE63A8F80E30BBF10B0F4A
:100FA0000AD8DFE80BF04C504844403C3834302C31
:100FB00028064F4BC8F80030B8F8063046494A4872
:100FC00003F0FE0343F4006343F001030137A8F884
:100FD000063007F071FB3F2F06F1F8067FF469AF8A
:100FE000019A92F83D3D002B3FF429AF92F83E3D27
:100FF0000133DBB224E73F4BC8F80030DCE73E4B5F
:10100000C8F80030D8E73D4BC8F80030D4E73C4B77
:10101000C8F80030D0E73B4BC8F80030CCE73A4B7B
:10102000C8F80030C8E7394BC8F80030C4E7384B7F
:10103000C8F80030C0E7374BC8F80030BCE7364B83
:10104000C8F80030B8E7354BC8F80030B4E7344B87
:10105000C8F800307AE7334BC8F8003076E7324BF7
:10106000C8F8003072E7314BC8F800306EE7304BFB
:10107000C8F800306AE72F4BC8F8003066E72E4BFF
:10108000C8F8003062E72D4BC8F800305EE72C4B03
:10109000C8F800305AE72B4BC8F8003056E72A4B07
:1010A000C8F8003052E7294808F0D6FB0721284845
:1010B0000BF022F93946254808F0C6FB03212548E4
:1010C0000BF01AF9002310222146204808F0DCFB1F
:1010D0001E4808F0C1FB16E78091FF1F21841042D3
:1010E0008791FF1FAF54551AD0D1FF1F8891FF1F62
:1010F000B054551AAE54551AAC54551A1B54551ABF
:101100001954551A1754551A1554551A1354551A7B
:101110001154551A0F54551A0B54551A0D54551A8B
:101120001054551A0E54551A0C54551A0A54551A7F
:101130001854551A1654551A1454551A1254551A4F
:10114000AB54551A1A54551AAD54551AFC89FF1F41
:10115000F03D0100F83D0100012C7FF48DAEDFF879
:101160001C828748B8F8063003F0FE0343F400639E
:1011700043F0010300254146A8F80630814BC8F82A
:101180000030C8F80850C8F80C5007F095FA20460F
:1011900009F0CEFA7C4B7A48C8F80030414607F097
:1011A0008BFA204609F0C4FA784B7548C8F800302D
:1011B000414607F081FA204609F0BAFA744B7048AC
:1011C000C8F80030414607F077FA204609F0B0FA37
:1011D000704B6B48C8F80030414607F06DFA204666
:1011E00009F0A6FA6C4B6648C8F80030414607F093
:1011F00063FA204609F09CFA684B6148C8F8003051
:10120000414607F059FA204609F092FA644B5C48CF
:10121000C8F80030414607F04FFA204609F088FA36
:10122000604B5748C8F80030414607F045FA204661
:1012300009F07EFA5C4B5248C8F80030414607F08E
:101240003BFA204609F074FA584B4D48C8F8003074
:10125000414607F031FA204609F06AFA544B4848F3
:10126000C8F80030414607F027FA204609F060FA36
:101270004FF0FE334146C8F80C3041484D4BC8F89A
:101280000030C8F8085007F017FA204609F050FA65
:10129000494B3B48C8F80030414607F00DFA20465C
:1012A00009F046FA454B3648C8F80030414607F089
:1012B00003FA204609F03CFA414B3148C8F80030A7
:1012C000414607F0F9F9204609F032FA3D4B2C4827
:1012D000C8F80030414607F0EFF9204609F028FA37
:1012E000394B2748C8F80030414607F0E5F9204659
:1012F00009F01EFA354B2248C8F80030414607F085
:10130000DBF9204609F014FA314B1D48C8F80030CB
:10131000414607F0D1F9204609F00AFA2D4B18484A
:10132000C8F80030414607F0C7F9204609F000FA36
:10133000294B1348C8F80030414607F0BDF9204654
:1013400009F0F6F9254B0E48C8F80030414607F081
:10135000B3F9204609F0ECF9214B0948C8F80030F0
:10136000414607F0A9F9204609F0E2F9019A92F8FE
:101370003E3D82F83D5D0133DBB261E58091FF1FA8
:10138000D0D1FF1F0A54551A0C54551A0E54551A31
:101390001054551A1254551A1454551A1654551AF5
:1013A0001854551A1A54551AAB54551AAD54551AA7
:1013B000AF54551A0B54551A0D54551A0F54551A4B
:1013C0001154551A1354551A1554551A1754551AC1
:1013D0001954551A1B54551AAC54551AAE54551A73
:1013E000B054551A38B50C6804F00F0C15460CF1C2
:1013F000FF320D2A00D938BD0CEB0304C4EB4413B3
:1014000000EBC3002C30FFF765F8012DF3D106483F
:1014100008F022FA2146044808F016FABDE83840E0
:1014200002480B210AF068BFFC89FF1FFC3D010048
:10143000F8B500F54057002300F57456C7F8403D55
:1014400000F59274343602E0F834B4420FD02046EE
:10145000FFF752FC0028F7D02046D7F8405DFFF791
:101460004BF9F8340544B442C7F8405DEFD1D7F8E2
:10147000400DF8BD012B2DE9F04105460E461746FB
:1014800008D0022B1C4603D14A7B0B68DF2A38D1D7
:10149000BDE8F08108685FFA80F8A8F10B03302BF3
:1014A0000ED800F00F000BF0B3FD4FF07C510BF0A5
:1014B00003FE4FF07E510BF0F7FC0BF0C3FF8046AC
:1014C000C8EB481405EBC4042C3401212046FFF777
:1014D0001FFC01212046FFF723FC01223146204654
:1014E000FFF708F8012FD3D1184808F0B5F94146A5
:1014F000164808F0A9F9BDE8F04115480D210AF099
:10150000FBBE03F00F0808F10108C8EB481300EB1D
:10151000C3052C3501212846FFF7FAFB0121284697
:10152000FFF7FEFB224631462846FEF7E3FF012F78
:10153000AED1064808F090F94146044808F084F915
:10154000BDE8F04103480D210AF0D6BEFC89FF1F1B
:10155000083E0100183E010000F5405393F83D3D60
:1015600003B17047F0B50B68A3F5D87383B0054697
:101570000C463E2B2CD8DFE803F020504A4D535642
:10158000595C5F6265686B6E7174777A7D80838663
:10159000898C8F9295989B9EA1A4E3E9A7ECAAADB4
:1015A000E62BB0B3B62BB9BCBF2BC2C5C82BCBCE74
:1015B000D12BD4D7DA2BDDE02D0000270126A37A2A
:1015C000FF2B05D0637BFF2B02D0E37BFF2B06D1E3
:1015D00003B0F0BD02271026A37AFF2BF8D0012A12
:1015E00000F0BA80C6EB461605EBC6052C3528463A
:1015F0000121FFF78DFB28460121FFF791FB2246D1
:101600003946284603B0BDE8F040FFF7B3B90227DA
:101610000126E1E703270126DEE701273E46CEE764
:1016200000270226CBE701270226C8E702273E460D
:10163000D2E703270226CFE700270326BFE70127CB
:101640000326BCE702270326C6E703273E46C3E777
:1016500000270426B3E701270426B0E70227042663
:10166000BAE703270426B7E700270526A7E70127DF
:101670000526A4E702270526AEE703270526ABE7E4
:10168000002706269BE70127062698E7022706265D
:10169000A2E7032706269FE7002707268FE70127F3
:1016A00007268CE70227072696E70327072693E7F6
:1016B0000027082683E70127082680E70227082657
:1016C0008AE70327082687E70227092684E70027F9
:1016D0000A2674E701270A2671E700270B266EE722
:1016E00001270B266BE702270B2675E700270C2640
:1016F00065E701270C2662E702270C266CE7002726
:101700000D265CE701270D2659E702270D2663E722
:1017100000270E2653E701270E2650E702270E2644
:101720005AE700270F264AE701270F2647E7022737
:101730000F2651E70027102641E7012710263EE734
:10174000002709263BE702270A2645E70127092645
:1017500035E7032709263FE70A48019208F07CF89D
:101760003146084808F070F8019A074811460AF017
:10177000C3FD3946034808F067F8032103480AF01F
:10178000BBFD2FE7FC89FF1F283E0100F83D01004B
:101790002DE9F04F0023DFF86491DFF86481594FA1
:1017A000036083B0064600F59274012504E001351C
:1017B0003F2D04F1F80468D02046FFF79DFA002879
:1017C000F5D0484600F0B2FD2946404600F0AEFD97
:1017D0002046FFF753FA0BF04BFA02460B46384609
:1017E00000F0A4FD2046FEF70DFF82462046FEF7DE
:1017F00027FF834650460BF03BFA02465846924676
:101800008B460BF035FA5B465246CDE900013E4867
:1018100000F08CFD00212046FFF758FA0121824696
:101820002046FFF753FA834650460BF021FA024652
:10183000584692468B460BF01BFA5246CDE9000102
:101840005B46324800F072FD2046FFF717FA01466A
:1018500030680BF029FB30602046FFF74BF8B16988
:101860000BF0C8FD002833D12046FEF749FFF1698F
:101870000BF0DEFD00289AD02046FEF741FF01352F
:101880003F2DF06104F1F80496D170680BF0C0FBB5
:10189000014630680BF0C4FC7169306004460BF0FF
:1018A000C7FD00B17461316920460BF0A3FD00B1A2
:1018B00034610B2008F0D2FE06F5405696F83C3D08
:1018C00058B9B3B1012386F83C3D03B0BDE8F08FB1
:1018D0002046FFF70FF8B061C6E72BB9002386F862
:1018E0003C3D03B0BDE8F08F094800F031FD002316
:1018F000F5E7084800F040FDE4E700BF944401002C
:101900002C3E0100683E01007C3E0100A83E010023
:10191000FC3E0100C43E010070B5114B836000F530
:101920007455064600F59274343502E0F834AC4242
:1019300013D02046FFF7E0F90028F7D02046FEF745
:1019400061FEB1680BF056FD0028EFD02046FEF78F
:1019500059FEF834AC42B060EBD1B06870BD00BF46
:101960000000A04070B5002300F574550646C36022
:1019700000F59274343502E0F834AC4213D02046BE
:10198000FFF7BAF90028F7D02046FEF759FEF168B4
:101990000BF04EFD0028EFD02046FEF751FEF83444
:1019A000AC42F060EBD1F06870BD00BF00687047DA
:1019B00000F54050D0F8380D704700BF41607047C7
:1019C0002DE9F04100F57455884617461E4600F58E
:1019D0009274343502E0F834AC4213D02046FFF75D
:1019E0008BF90028F7D020464146FFF78DF92046B5
:1019F0003946FFF799F920463146F834FFF78CF95C
:101A0000AC42EBD1BDE8F0812DE9F8432A4A2B4BDB
:101A1000DFF8AC90426200F574558046036200F531
:101A2000927434350026002702E0F834A54210D025
:101A30002046FFF761F90028F7D02046FEF77EFE2A
:101A400049460BF0F5FC88B9F834A54206F10106C9
:101A5000EED108F54058D8F8380D801B0BF0D8FAB5
:101A6000014638460BF0DCFBBDE8F8832046FEF764
:101A700065FE014638460BF017FA07462046FEF78A
:101A80003FFED8F820100BF0D3FC70B92046FEF7CB
:101A900031FFD8F824100BF0ADFC0028C5D020464B
:101AA000FEF728FFC8F82400BFE72046FEF728FE0F
:101AB000C8F82000EAE700BF00C0794400C079C43C
:101AC00000008CC2006A7047406A70472DE9F041FF
:101AD00000F540580026002300F57455C8F8383D3D
:101AE00000F592743435374602E0F834AC421DD02C
:101AF0002046FFF701F90028F7D02046FEF7C6FD83
:101B000039460BF095FC03462046002BEDD0FEF73E
:101B1000BDFD014630460BF0C7F9D8F8383DF83422
:101B20000133AC420646C8F8383DE1D1D8F8380D4B
:101B30000BF06EFA014630460BF072FBBDE8F08107
:101B40002DE9F04F91B00446A4480E9100F094FBAB
:101B5000A24800F091FB04F54058A04804F57457E2
:101B600000F08AFB04F5927500233437D8F838BDAD
:101B7000C8F8403D2E46B94602E0F836B1450FD0D0
:101B80003046FFF7B9F80028F7D03046D8F8407D46
:101B9000FEF7B2FDF8360744B145C8F8407DEFD1F5
:101BA000D8F8402D20680F920BF062F863680D930F
:101BB000064620460F46FFF789FF80462046D4F8A8
:101BC0000890D4F80CA0FFF71FFF0BF051F8CDE9F7
:101BD0000A01494650460BF065F981490BF06CFA51
:101BE0000BF046F8CDE9080150460BF041F8CDE97D
:101BF000060148460BF03CF8CDE9040140460BF0E5
:101C000037F80D9B0F9ACDE90201CDE900677548C1
:101C1000754E594600F030FB704800F02DFB002354
:101C20004FF001080D9307E008F10108B8F13F0FEC
:101C300005F1F80500F09D802846FFF75DF80028C3
:101C4000F2D02846FEF7C8FC2846FEF7C9FC284615
:101C5000FEF7CAFC2846FEF7CBFC082163480AF0D1
:101C60004BFB4146304607F0EFFDB8F1090F40F35A
:101C7000B08002215E48DFF87CA10AF03DFB2846D7
:101C8000FEF7FCFF0AF0F4FF9DF83890CDF80090C5
:101C90000B460246304607F003FE574801210AF082
:101CA0002BFB2B46DDF834B04D46002499461FE04F
:101CB000062152480AF020FB5946304607F0C4FD81
:101CC00002214F480AF018FB21464846FEF794FCD3
:101CD0000AF0CEFF009502460B46304607F0E0FDC5
:101CE0000134454801210AF007FB0D2C0AD0BB4600
:101CF000BBF1090F0BF10107DADC012150460AF0B4
:101D0000FBFAD5E7304607F0A7FD4846FEF7ECFFA3
:101D10000D9B04460D33012C3A480D934D464FF070
:101D2000090129D00AF0E8FA00214846FEF7CEFF63
:101D30000AF09EFF0B46022102460091304607F052
:101D4000AFFD0E2130480AF0D7FA2846FEF7D0FF43
:101D5000002301461022304607F096FD08F10108E5
:101D6000304607F079FDB8F13F0F05F1F8057FF433
:101D700063AF11B0BDE8F08F0AF0BEFA002148460B
:101D8000FEF7A4FF0AF074FF022702460B460097F5
:101D9000304607F085FD0A211C480AF0ADFA2146BD
:101DA0004846FEF793FF0AF063FF009702460B4692
:101DB000304607F075FD0A2115480AF09DFA3946AC
:101DC0004846FEF783FF0AF053FF009702460B4692
:101DD000B4E7012107480AF08FFA4AE7944401006A
:101DE00000007A44AC410100FC89FF1F4C42010015
:101DF0000051010018430100584201005C420100FB
:101E00000843010064420100884201007042010061
:101E10007C4201002DE9F04F87B000F59274DFF8A5
:101E20004882DFF84892039104929B462646012798
:101E30000594924604E001373F2F06F1F80675D06D
:101E40003046FEF759FF0028F5D000230A220399F7
:101E5000404607F019FD012148460AF04DFA504668
:101E60000AF006FF0B46002102460091404607F0AB
:101E700017FD012148460AF03FFA5946404607F04F
:101E8000E3FC012148460AF037FA3946404607F09C
:101E9000DBFC012148460AF02FFA002402252146E6
:101EA0003046FEF7A9FB0AF0E3FE009502460B461A
:101EB000404607F0F5FC0134012148460AF01CFABF
:101EC000082CECD100213046FEF700FF0AF0D0FECE
:101ED000009502460B46404607F0E2FC01214846C9
:101EE0000AF00AFA01213046FEF7F0FE0AF0C0FEC1
:101EF000009502460B46404607F0D2FC01214846B9
:101F00000AF0FAF902213046FEF7E0FE0AF0B0FED0
:101F1000009502460B46404607F0C2FC013740469A
:101F200007F09AFC3F2F06F1F80689D1059C504F27
:101F3000DFF8388101264FF0000A04E001363F2E19
:101F400004F1F8045CD02046FEF7D6FE0028F5D058
:101F500000230A220399384607F096FC01214046E7
:101F600008F09CFE04980AF083FECDF800A002461B
:101F70000B46384607F094FC0121404608F08EFEDF
:101F80005946384607F060FC0121404608F086FEBD
:101F90003146384607F058FC0121404608F07EFEE5
:101FA00000254FF0020929462046FEF725FB0AF0DE
:101FB0005FFECDF8009002460B46384607F070FCF5
:101FC00001350121404608F069FE0D2DEBD1204678
:101FD000FEF78AFE0546012D4FF00001204612D083
:101FE000FEF774FE0AF044FE013602460B46CDF8B9
:101FF0000090384607F054FC3F2E04F1F804A2D1BB
:1020000007B0BDE8F08FFEF761FE0AF031FECDF8B3
:10201000009002460B46384607F042FC29464046EF
:1020200008F03CFE29462046FEF750FE0AF020FE4E
:10203000CDF8009002460B46384607F031FC2946A1
:10204000404608F02BFE02212046FEF73FFE0AF034
:102050000FFECDF8009002460B46384607F020FCF4
:10206000384607F0F9FB69E7FC89FF1F283E0100AD
:10207000BC88FF1F70B500F54054002300F574556F
:10208000C4F8443D00F59276343502E0F836B542A6
:102090001AD03046FEF730FE0028F7D03046FEF763
:1020A00027FE202310F0010F03F1FF334FEA500009
:1020B00004D0D4F8442D0132C4F8442D13F0FF03AA
:1020C000F0D1F836B542E4D1D4F8440D70BD00BF6C
:1020D000014B1870704700BF2488FF1F0278002A48
:1020E00000F0B8802DE9F0435C4FDFF874815D4E5D
:1020F00083B003460D46252A34D158785C1C00284D
:1021000038D0A0F12503552B2ED8DFE803F09F2D02
:102110002D2D2D2D2D2D2D2D2D2D2D2D2D2D2D2DEF
:102120002D2D2D2D2D2D2D2D2D2D2D932D2D2D2D79
:102130002D2D2D2D2D2D2D2D2D2D2D2D2D882D2D74
:102140002D7C2D2D2D2D2D2D2D2D2D7439392D5EE0
:102150002D2D392D2D392D2D2D2D2D2D493F2D2D69
:102160002D562D6918781C460AF04AF96278631CCE
:10217000002AC0D13C4803B0BDE8F04307F06CBB77
:1021800055F8041B384807F05FFBEFE755F8041BD0
:1021900001290EBF3548012130460AF0ADF8E5E7C8
:1021A00055F8049BB9F1000FE0D048460CF028F92F
:1021B000014648460AF0A0F8D8E755F8041B2A481B
:1021C0000023102207F060FBD0E7073525F0070554
:1021D0000321F5E802232448009107F061FBC5E7DD
:1021E000073525F007050021F5E802231E48009178
:1021F00007F056FBBAE755F8041B1B4800230222E0
:1022000007F042FBB2E7022119480AF075F855F8C9
:10221000041B15480023102207F036FBA6E755F8EB
:10222000043B012B07BF04214046052138460AF034
:1022300063F89BE702210F480AF05EF855F8041B8B
:1022400009480023022207F01FFB8FE725200AF030
:10225000D7F88BE7044807F0FFBA00BFB04201008F
:10226000A8420100A4420100FC89FF1FA042010016
:10227000984201009C4201000FB400B583B004A94C
:1022800051F8040B0191FFF729FF03B05DF804EB4F
:1022900004B07047F0B51C4B1C4F1B6883B004465C
:1022A0000193019B3B600D46164619460A22002306
:1022B000174807F0E9FA032116480AF01DF8032C25
:1022C00007D8DFE804F01B160211134807210AF0B3
:1022D00013F8022111480AF00FF83146284603B0DE
:1022E000BDE8F040FFF7FABE05210D480AF004F8FA
:1022F000EFE704210B4809F0FFFFEAE705210A4850
:1023000009F0FAFFE5E700BFC4D3FF1F9091FF1F5C
:10231000FC89FF1FB8420100CC42010008430100C4
:10232000D4420100C4420100BC4201000FB400B518
:10233000064B187883B020B905AA04990192FFF7DB
:10234000A9FF03B05DF804EB04B070472488FF1FB9
:102350000FB4084B00B51B78012B83B005D805AA34
:10236000049901920120FFF795FF03B05DF804EB9B
:1023700004B070472488FF1F0FB4084B00B51B78CA
:10238000032B83B005D805AA049901920320FFF717
:1023900081FF03B05DF804EB04B070472488FF1F91
:1023A00030B4074D074C084900232B7023600365A8
:1023B00030BC4365836580F85C300B60704700BFBC
:1023C0009891FF1F9491FF1F9C91FF1F70B51320E0
:1023D00008F044F958B9114C08F08AF92268104BFA
:1023E000801A80B2188008F083F9206070BD0C4D0F
:1023F0000A4B2C881E6808F07BF9A4B23444201ADA
:102400002A880849C0EB00139B0092B2A3F634035C
:10241000B3FBF2F39BB20B8070BD00BFD4D0FF1FA3
:10242000D4CFFF1FD891FF1FDDF800C0521AACEBCC
:10243000030C1CD0401ABCF1000F0CFB00F002EBA7
:10244000D27109DB00EB610000FB02F1002990FB77
:10245000F2F0184410DB7047A0EB610000FB02F1C2
:10246000002990FBF2F01844F5DB013070470CEBCB
:10247000DC7C03EB6C00704701387047114B10B5E2
:102480004FF47A701C7807F003FC844204D0214694
:102490004FF47A7007F016FC0B4B0C485A7842F058
:1024A00040025A701A7842F040021A7007F0D4F9CC
:1024B0000748072109F020FFBDE81040034807F056
:1024C000CBB900BF2888FF1F00D00740FC89FF1F41
:1024D000DC42010038B5044649B108460D460BF010
:1024E0008FFF236802465B682946204698472046AE
:1024F000BDE8384007F0B0B92DE9F0474048414EFB
:10250000414CDFF80891DFF80881424FFFF7B4FE35
:10251000414B4249D9604249196142495961424996
:10252000596242499961DE624FF07C51002659643C
:1025300019651E634FF496713D4E196699665E6388
:1025400040F61C413B4ED9669E630A213A4E1967FC
:1025500040F2122541F204015E60384E1D80596739
:10256000374D1E625A21374EDC61002201209D62E8
:10257000DC6364250C2499679E643221324E83F813
:10258000402040F2012AC3F8D4005C659865596682
:10259000DE64DD652D4EA3F808A0DA67C3F8842059
:1025A000C3F8A820FF220224DFF8A4E0DFF8A4C0CB
:1025B000C3F8B400C3F89C10C3F8AC10C3F8B02043
:1025C00044F6206041F288314FF47A72C3F8C86053
:1025D000C3F88890C3F89080C3F894E0C3F8BC5067
:1025E000C3F8C070C3F8C4C0C3F88040C3F8B84093
:1025F000C3F88C00C3F89810C3F8A020BDE8F0879A
:10260000E4420100000020C1CDCC4C3ED606D606E7
:102610000000684288130500DCD0FF1F6666864014
:102620000000404033338340CDCCCC3DCDCC4C403A
:10263000000020420000A04020A107003333734077
:10264000000082429A9979400AD7233D0101F401A2
:1026500000C020449A99993EF8B5504D504C5148CD
:10266000E66800232B70FFF77DF9014630460AF03B
:10267000C1FE002814BF042308232B704948FFF72C
:102680004BF921690AF0B6FE2B78002879D043F087
:1026900010032B704348FFF715FAA16A0AF0C8FE31
:1026A0002B78002876D043F0400300272B706F7002
:1026B0003C48FFF709FAE16A0AF09CFEB84214BFF1
:1026C000012302236B70EF703648FFF74BF9064683
:1026D0003448FFF721F9014630460AF0E3FBE16B8D
:1026E000314E0AF0A5FEB84214BF01230223EB705D
:1026F0002C483770FFF736F9616A0546E0680AF042
:10270000D1FB014628460AF093FEB84214BF0423C9
:10271000082333702348FFF7FFF8616A05462069F4
:102720000AF0C2FB014628460AF064FE337870B313
:1027300043F0100333701B48FFF7C4F9A16B054643
:10274000A06A0AF0AFFB014628460AF071FE337812
:10275000D0B143F040030022727033701148FFF78C
:10276000B3F9A16B0346E06A1C460AF09DFB0146E3
:1027700020460AF03FFE002814BF01230223737095
:10278000F8BD43F0200384E743F08003E3E743F020
:102790002003CFE743F0800387E700BFE091FF1FEE
:1027A000DCD0FF1FF091FF1FC8D1FF1F2DE9F041C2
:1027B0007F4C2368012B82B049D0022B00F0C380EC
:1027C000032B03D02BB302B0BDE8F081794B7A4ED6
:1027D0004FF47A721A60D6F8AC000AF019FC05467C
:1027E000D6F8B0000AF014FC29460AF05BFB7349E6
:1027F0000AF062FC71490AF013FD29460AF054FB05
:102800000AF020FE0146062007F086FD2368002B13
:10281000D9D1694B6A48D3F8AC10D3F8B02003681B
:102820006848521A002A02FB03F3C0F2B280323326
:1028300080FB0320DA17C2EB6012002B1144C0F2B8
:10284000B480062002B0BDE8F04107F065BD594FE5
:1028500038680A30B0F57A7F00F3968038600AF065
:10286000D7FB59490AF028FC8046534ED6F8AC00F5
:102870000AF0CEFB0546D6F8B0000AF0C9FB29469F
:102880000AF010FB41460AF017FC4C490AF0C8FC5C
:1028900029460AF009FB0AF0D5FD0146062007F09B
:1028A0003BFD0221494809F027FD494806F0D4FFC5
:1028B0000621484809F020FD38680AF0A9FB424982
:1028C0000AF0FAFB0AF0D4F94FF0020802460B4670
:1028D0003F48CDF8008006F0E3FF0D213E4809F0A7
:1028E0000BFDD6F8AC000AF093FB054638680AF0F9
:1028F0008FFB35490AF0E0FB0346D6F8B0001E46D0
:102900000AF086FB29460AF0CDFA014630460AF065
:10291000D3FB2A490AF084FC29460AF0C5FA0AF0DA
:10292000A7F9CDF800800B460246294806F0B8FF0B
:102930004146264809F0E0FC254806F08DFF236853
:10294000022B7FF43DAF1B4B1B4E00221A60D6F8C2
:10295000AC000AF05DFB0546D6F8B0000AF058FB63
:1029600029460AF09FFA00210AF0A6FB13490AF053
:1029700057FC29460AF098FA0AF064FD0146062041
:1029800007F0CAFC23681BE700234FF000083B60F8
:102990006BE7323B80FB0320DA17C2EB6012002B9F
:1029A0001144FFF64EAF01314BE7013949E700BF53
:1029B000E0CFFF1FD091FF1FDCD0FF1F0000C842F7
:1029C0002888FF1F1F85EB51CDCCCC3D0051010065
:1029D000FC89FF1F044301000C43010070B5B3489C
:1029E000B34C06F039FFB14806F036FFAF4806F0A9
:1029F00033FFB0480D2109F07FFCD4F8A830012B3B
:102A000011D0AD4CA948217800230A2206F03CFFE2
:102A10002378052B57D8DFE813F00D0112011701B9
:102A20001C01210108010921A44809F065FCA44802
:102A3000FEF772FF21690AF0DDFC002840F070818A
:102A40009F48FEF78FFFE1680AF0F2FC002840F093
:102A500071819B48FEF786FF05469948FEF75CFFAB
:102A6000014628460AF01EFAE16B0AF0E1FC002854
:102A700040F05B819248FEF7C7FFA16A0AF0D8FCDC
:102A8000002840F061818E48FEF7BEFFE16A0AF03F
:102A9000B1FC002840F053818A4B89481B68012B08
:102AA00000F0F380FEF738FF21690AF0C1FC00282E
:102AB00040F0D9800721844809F01EFC834B7B48F5
:102AC000196806F0C1FE0221814809F015FC1220A8
:102AD00007F0C4FD012800F0A380112007F0BEFD1F
:102AE000012800F098807B4B1B68012B00F0878049
:102AF00002217748784C09F0FFFB784B6B48196846
:102B000006F0A2FE694806F0A7FE0421744809F009
:102B1000F3FB0B2007F0A2FD002301460A226348C5
:102B200006F0B2FE0C2007F099FD002301460A22B0
:102B30005E4806F0A9FE142007F090FD0023014630
:102B40000A225A4806F0A0FE152007F087FD0A2247
:102B500001460023554806F097FE0621614809F01A
:102B6000CBFB2368D8074BBF012101215E485F489A
:102B700009F0C2FB236899074BBF012101215A4884
:102B80005A4809F0B9FB23685A074BBF01210121BC
:102B90005548564809F0B0FB23681B074BBF01217D
:102BA00001215148514809F0A7FB0421504809F080
:102BB000A3FB112007F052FD002301460A223B48E7
:102BC00006F062FE102007F049FD002301460A22AC
:102BD000364806F059FE122007F040FD002301465A
:102BE0000A22324806F050FE132007F037FDBDE8F8
:102BF0007040014600232D480A2206F045BE1421EC
:102C00003C4809F079FB2E48FFF734FA0146274883
:102C100006F01AFE6CE70A21374809F06DFB62E7FF
:102C20000E21364809F068FB57E70721344809F0C0
:102C300063FB48E70621334809F05EFB43E70721C1
:102C4000314809F059FB3EE70721304809F054FBB1
:102C500039E708212E4809F04FFB34E70B212D48B6
:102C600009F04AFB2FE71648FEF77CFEE1680AF000
:102C7000C1FB00283FF41EAF0F4B1B78052B68D11A
:102C80000A21254809F038FB14E7FEF745FE216AC2
:102C90000AF0CEFB00285CD01621204809F02CFB5E
:102CA0000A211D4809F028FB04E700BFFC89FF1F2B
:102CB000DCD0FF1F1C43010038CFFF1F2C43010055
:102CC000F091FF1FB4D1FF1FBC430100B091FF1F63
:102CD00000510100E891FF1FB8CFFF1F40CFFF1F39
:102CE00030440100384401004044010044440100E4
:102CF00048440100184401000C440100FC43010059
:102D0000F4430100C4430100CC430100E04301004F
:102D1000E8430100D4430100A44301008C430100B7
:102D20000F210E4809F0E8FA8AE611210C4809F053
:102D3000E3FA9FE60E210B4809F0DEFA89E60D2141
:102D4000094809F0D9FAA7E60C21084809F0D4FA95
:102D500099E60821064809F0CFFAABE638430100AE
:102D600058430100484301007C4301006C430100CB
:102D7000B04301002DE9F047B54CD4F88060012E36
:102D80008CB000F04481032E5CD0DFF8C882B24FD3
:102D9000B24EE36FB248012B09BF3168316801F1CF
:102DA0000041316006F0FCFA3B68002B40F01581D1
:102DB000AB4806F0C9FA3B68C8F800000546002B8E
:102DC00040F0FB80D4F88030012B00F0BA80A54998
:102DD00028460AF02DFB30B9A34928460AF00AFB21
:102DE000002800F0E081DFF884A2DFF88492DAF8AE
:102DF00000300A930A98D9F800309E4FC01A0AF0A2
:102E000003F929460AF058F99B490AF009FA9A4948
:102E10000AF006FA39680AF047F8DAF80030099340
:102E2000099B3860C9F80030D4F8B4000AF0F0F813
:102E300029460AF041F90023C8F8000033600CB0BD
:102E4000BDE8F0878D4D8E4F2A68DFF80882D2F8F2
:102E5000840001230F213B6006F060F93B687E4F40
:102E6000012B3B6800F02C81002B40F0AF812B68D8
:102E7000DFF81092D3F88400436B1E69B6B2C9F82C
:102E8000006005F093FEB4F88A2040F6E44306FBA8
:102E900003F3B3FBF0F0801A00B20AF0B9F87A49F4
:102EA0000646D4F890000AF007F9014630460AF0C9
:102EB000B7F9D9F80030694E632B306000F37A819E
:102EC000002333603B68002B3FF463AF02216F485F
:102ED00009F012FA2B68D9F80050D3F8840040F6B4
:102EE000E44303FB05F505F061FEB5FBF0F00AF0E5
:102EF0008BF80546B4F88A000AF08AF8014628469D
:102F000009F0D0FF09F0B4FE022502460B460095F9
:102F10005F4806F0C5FC29465C4809F0EDF93068C9
:102F200009F0A6FE009502460B46594806F0B8FC8B
:102F30002946584809F0E0F92946544809F0DCF9D7
:102F400027E74F4B1B68012B00F07581022B7FF4A4
:102F50006BAFD4F88C7038460AF05AF829460AF05C
:102F600049FA40B978420AF053F829460AF060FA63
:102F7000002800F0CE81DFF8F4A0DFF8F490DAF852
:102F8000003007930798D9F800303A4FC01A0AF07A
:102F90003BF829460AF090F837490AF041F93649DA
:102FA0000AF03EF9396809F07FFFDAF8003006933D
:102FB000069B3860C9F8003036E709F059FE0B4629
:102FC000022102460091324806F06AFC3248042190
:102FD00009F092F9D8F80050F4E6214806F0B4F967
:102FE00009F046FE0B46022102460091284806F0F1
:102FF00057FC0321294809F07FF9D4F88C102448A4
:1030000006F022FC0321254809F076F9D0E6DFF826
:103010004480D4F88C70D8F80050384609F0F8FF96
:1030200029460AF005FA00283AD0784209F0F0FF64
:10303000014628460AF0FCF990B3104D104F28685D
:103040003E604FF0FF320F2105F05AFD06E700BF4A
:10305000DCD0FF1FC8CFFF1FCCCFFF1FC091FF1FC9
:1030600010D0FF1F0000FA430000FAC3C4D3FF1FB3
:1030700004D0FF1FE491FF1F00007A44DC91FF1F82
:103080007888FF1FBCD1FF1FACC527370051010056
:10309000FC89FF1F8C44010090440100F83D0100B1
:1030A0009F4FA04D02233B602B680E21D3F8840074
:1030B00006F034F83B689C4F012B3B687FF4D4AE9C
:1030C000002B40F0E5802B68DFF86092D3F8840095
:1030D000436B1E69B6B2C9F8006005F067FDB4F82D
:1030E000883040F6E44A0AFB06F6B6FBF0F6F01A22
:1030F00000B209F08DFF8E490646D4F8940009F01D
:10310000DBFF014630460AF08BF82B68894E0246F9
:10311000D3F88400D9F8003032600AFB03FA05F0D6
:1031200045FDB4F88820BAFBF0F31BB29B1A002BC4
:10313000B4F8C220B8BF5B429A42C4BF00233360D8
:103140003B68002B3FF425AE02217B4809F0D4F800
:103150002B68D9F80050D3F8840040F6E44303FB11
:1031600005F505F023FDB4F88810B5FBF0F52DB298
:10317000691A724806F068FB02216F4809F0BCF832
:10318000306809F075FD022502460B4600956B4834
:1031900006F086FB03216A4809F0AEF82946664826
:1031A00009F0AAF8F5E5674B1B680B93664B0B9A81
:1031B0001A6039E62B68D3F8840005F0F7FCD9F8DB
:1031C000003064389842FFF47BAE7BE65B48DFF862
:1031D0005C9106F041FB0C215C4809F08DF85C48DD
:1031E0000C2109F089F82B683A68D3F88400436B06
:1031F0001E69B6B2C9F80060002A3FF442AE05F07D
:10320000D5FC40F6E442002306FB02F2B2FBF0F1EB
:103210000A224A4806F038FB0221474809F06CF8B8
:10322000B4F88A10454806F00FFB2B68D9F8006007
:10323000D3F8840025E6474928460AF0F9F828B96A
:10324000454928460AF0D6F800285BD0DFF8F4A0FC
:10325000DFF8F490DAF8003004930498D9F80030DD
:103260003E4FC01A09F0D0FE294609F025FF3C491F
:1032700009F0D6FF3A4909F0D3FF396809F014FE86
:10328000DAF800300393039B3860C9F80030CBE5CF
:103290002A48DFF8989006F0DFFAD4F88030012B46
:1032A0000CBF304830480B2109F026F828480C2183
:1032B00009F022F82A683B68D2F88400426B16694C
:1032C000B6B2C9F80060002B3FF407AF05F06EFC02
:1032D00040F6E44306FB03F30A22B3FBF0F10023BC
:1032E000164806F0D1FA0121204809F005F8B4F893
:1032F0008810124806F0A8FA2B68D9F80060D3F8B5
:103300008400EAE60F4B1B6805930F4B059A1A6081
:103310008AE50C4B1B6808930B4B089A1A6083E5EF
:103320007888FF1FDC91FF1FCCCFFF1FBCD1FF1F90
:10333000ACC52737C091FF1F00510100FC89FF1F5A
:1033400078440100C4D3FF1F04D0FF1F7C44010058
:10335000684401000000FA430000FAC3E491FF1F33
:1033600000007A44504401005C440100184301000D
:103370002DE9F04FA94DAA4C2B68012B87B000F026
:103380000A81A84EA84FDFF8A492D9F80030002B8C
:1033900000F0A680D4F85CB0A56DDFF89482A54952
:1033A000386809F089FE05FB0BF581464FF47A7009
:1033B00005FB00F009F02CFE0146484609F030FFFD
:1033C0009D4909F079FE0AF03DF8D4F88430306068
:1033D000012B054656D0D4F88030002B52D0632DF7
:1033E00073DDA36DE06D03FB00F04FF47A7303FB14
:1033F00000F009F00DFE8F4909F012FF64233360DD
:10340000D8F800303860002B67D0D4F88030012B1A
:1034100000F0E880032B00F0F380022B00F0F9802D
:103420000221864808F068FF854B186809F020FCE7
:10343000022402460B460094824806F031FA2146E7
:10344000814808F059FF21467C4808F055FF316853
:103450007C4806F0F9F906217C4808F04DFF3868F1
:10346000744909F029FE09F003FC009402460B465A
:10347000744806F015FA7648032107B0BDE8F04F0E
:1034800008F03ABF7348FEF747FA734909F014FE93
:1034900009F0FEFFA56F626FE16E236F009580B2A9
:1034A000FEF7C2FF05463060E06DA36D05FB00F03E
:1034B00003FB00F000EB8000400009F0A9FD5D492E
:1034C00009F0AEFE632D38608BDC002DBCBF0023FD
:1034D0003360D8F80030002B97D107B0BDE8F08FEB
:1034E000DFF878A1DAF80030002B37D0D4F85CB0E0
:1034F000A56DDFF83C81012B7FF451AF306800FBF4
:103500000BF005FB00F000EB8000554D400009F08A
:103510007FFD484909F084FE2B680493049A3860C3
:1035200042F228339A4200F2E2802B680593059A12
:1035300042F210739A420DD9D8F800300122C9F82E
:103540000020002B40F0DB80D4F8A830012B04BF12
:10355000444A1370D4F85CB0A56D20E7404D2A684A
:103560000292029A42F228339A4200F2B8802B6803
:103570000393039A42F210739A427FD8D9F800302D
:10358000D4F85CB0A56DDFF8A880002B7FF407AFFE
:10359000DAF80030AFE72F48FEF7BEF92E49666F24
:1035A000276F09F089FD09F073FF3246A66FE16EBF
:1035B00000963B4680B2FEF737FF1A4EE36D30604F
:1035C00003FB00F0A36D184F03FB00F000EB80003D
:1035D000400009F01DFD174909F022FE0023386064
:1035E0002B60D0E6204B1B68012B0CBF1F482048E6
:1035F0000A2108F081FED4F88030032B7FF40DAF50
:103600001C48102108F078FED4F88030022B7FF49B
:1036100007AF0721184808F06FFE01E7C891FF1FA8
:10362000DCD0FF1F2888FF1FE491FF1FCC91FF1FF4
:103630004C88FF1FE4388E3E0000C8420051010054
:10364000C8CFFF1FFC89FF1F8C44010028450100E3
:1036500030450100F091FF1F00007A44C491FF1F24
:10366000C4D3FF1F38CFFF1F7888FF1FF444010029
:10367000004501000C450100204501003448DFF8F9
:10368000D480FEF749F9344909F016FD09F000FF2E
:10369000A56F236F626FE16E009580B2FEF7C4FEE6
:1036A000D4F85CB0A56D30600BFB00F005FB00F0BA
:1036B00000EB8000400009F0ABFC284909F0B0FDA8
:1036C000D8F8003038600122C9F8002033BBD4F8A4
:1036D000A830012B7FF463AE214A13705FE6236D9F
:1036E000626C94F840101A48FEF76AF93FE7236DC0
:1036F000626C94F840101648FEF762F915E7022153
:10370000184808F0F9FD184806F0A6F8592117489E
:1037100008F0F2FD144806F09FF815E70221114861
:1037200008F0EAFD104806F097F859210F4808F014
:10373000E3FD0D4806F090F8D4F8A830D4F85CB05A
:10374000A56D012B04BF064A1370D9F800301CE7A1
:10375000F091FF1F4C88FF1F00007A44E4388E3E32
:1037600038CFFF1F00510100FC89FF1F9844010062
:1037700030B5112083B006F071FF012804D012206B
:1037800006F06CFF012822D10121152006F040FF30
:103790002A4B2B4A2B4C1B682B4D1168019302229C
:1037A000D4F898302A60019A0B44934208D8D4F890
:1037B000A00009F02DFC254B196809F01BFED0B1C3
:1037C00001210C2003B0BDE8304006F021BF0021EC
:1037D0000B2006F01DFF00210C2006F019FF002130
:1037E000152006F015FF1A49174B0120002208701A
:1037F0001A6003B030BD01210B2006F009FF94F8D8
:10380000C83003242C604BB1114B02221A700021E6
:103810000C2003B0BDE8304006F0FABE122006F0DE
:103820001DFF012808BF0A4B4FF0110008BF1C7094
:1038300006F014FF0128EAD1E6E700BFC4D3FF1F5A
:10384000B891FF1FDCD0FF1FB4CFFF1FC8CFFF1FF1
:1038500038CFFF1FF0B5714E714C33682568AB420D
:1038600087B02DD013F001014BD013F002015FD0CF
:1038700013F0040151D0DA070ED52268D7070BD414
:10388000684D2A68002A00F09380674B1B680193FB
:10389000019B93427FD833689D0714D4590722D5E2
:1038A000226852070DD4614F3A68002A00F09E80CA
:1038B0005D4B1B680593059B934200F2868035683B
:1038C000A5B107B0F0BD226890073DD4584D2A68D5
:1038D000002A49D0544B1B680393039B9A4236D36A
:1038E00033685907DCD41D46002DEAD1294616203D
:1038F00006F012FD2946172007B0BDE8F04006F09B
:103900000BBD162006F008FD2268336802F0FE02A7
:1039100013F002012260ABD10AE0052006F0FCFCA6
:103920002268336802F0FB022260DA07B4D5A4E70C
:10393000172006F0F1FC2268336802F0FD0213F054
:103940000401226097D1E8E75B07AAD4B9E7394BB5
:103950001720D3F89C1006F0DFFC2368002243F008
:10396000020323602A60BBE7334805F075FF0C2192
:10397000324808F0C1FC304805F06EFFFF211720E7
:1039800006F0CAFC284B2E491A680292029A09686E
:103990000A442A609FE7274B1620D3F89C1006F0B4
:1039A000BBFC2368002243F0010323602A6072E716
:1039B000FF21162006F0B0FC1B4B21491A6800922B
:1039C000009A09680A442A6060E71A4B0520D3F878
:1039D0009C1006F0A1FC23683568002243F0040324
:1039E00023603A60002D7FF46CAF7FE7124805F04A
:1039F00033FF0C21134808F07FFC0F4805F02CFF23
:103A0000FF21052006F088FC074B0D491A68049237
:103A1000049A09680A443A604BE700BFB4CFFF1F1D
:103A2000B8CFFF1FBCCFFF1FC4D3FF1FC4CFFF1FE2
:103A3000C0CFFF1FDCD0FF1FFC89FF1F34450100F2
:103A40006888FF1F444501002DE9F84F544EDFF808
:103A500054A13368DFF85091D3F88400534D0F21FF
:103A600005F05CFB0123CAF80030514800232221F5
:103A7000C9F8003008F040FCD9F80030132B21DCE5
:103A80004C4F40F6E4483368B5F888B0D3F884006A
:103A9000436B1C6905F08AF8A4B2012108FB04F409
:103AA000B4FBF0F43846A344A5F888B008F024FC31
:103AB000642006F03DFED9F800300133132BC9F81D
:103AC0000030E0DDB5F888303B493C48A1FB0321DC
:103AD0005B1A01EB5301C1F30F11A5F8881005F033
:103AE000B3FE1D21364808F007FC0221354808F0D6
:103AF00003FC324805F0B0FE0023C9F800303368FB
:103B00000E21D3F8840005F009FB02232848CAF8E7
:103B10000030222108F0F0FBD9F80030132B22DC12
:103B2000DFF8908040F6E4473368B5F88AA0D3F810
:103B30008400436B1C6905F039F8A4B2012107FB2E
:103B400004F4B4FBF0F44046A244A5F88AA008F0BF
:103B5000D3FB642006F0ECFDD9F800300133132BC1
:103B6000C9F80030E0DDB5F88A3013491348A1FBED
:103B700003215B1A01EB5301C1F30F11A5F88A1061
:103B800005F062FE1D21104808F0B6FB0D48022129
:103B900008F0B2FBBDE8F84F084805F05DBE00BF75
:103BA000DC91FF1F7888FF1FCCD1FF1FDCD0FF1FE7
:103BB000544501007845010087611886FC89FF1F84
:103BC0007C450100005101009C450100F8B59F4D66
:103BD000D5F8B830072B00F05D819D4B9D4C1B68DC
:103BE000686D40F2513108222160E271002B00F033
:103BF000288109F00DFA296A064609F05DFA96490E
:103C000009F05AFA09F044FCC2B22272934AA96937
:103C1000C0F30723637213886381914B30461B887E
:103C2000A38109F049FA8C4909F046FA09F030FC01
:103C3000884903468B48E38104F03EFD8A4A89485F
:103C400013681288228103EB8303884A08265B00ED
:103C500040F255311288216000277E492373334199
:103C600062816373E671E78104F026FD40F256330A
:103C70007F482360E671FDF799FE7E4909F01CFA42
:103C800009F006FC20727A48FDF790FE794909F0A8
:103C900013FA09F0FDFB784B7649C0F307206072F8
:103CA000186809F0BDFA09F0CDFB60817048FDF796
:103CB000ABFE694909F000FA09F0C4FB20736C48B7
:103CC000FDF7A2FE644909F0F7F909F0BBFB40F3E8
:103CD0000720604960736348E78104F0EDFC02202F
:103CE00006F026FD40F25A332360644B59491B68A5
:103CF000A360634B5B481B68E360E67104F0DCFC87
:103D000040F25E3323605F4B52491A6855485B6846
:103D1000A260E360E67104F0CFFC022006F008FD2B
:103D20004FF45C732360584B4A491A684D485B68EE
:103D3000A260E360E67104F0BFFC022006F0F8FC2C
:103D400040F273334A482360E671FDF7E5FD4F49C1
:103D500009F0B2F909F09CFB20724548FDF7DCFD43
:103D60004A4909F0A9F909F093FBC0F307206072F2
:103D70003F48FDF7F7FD454909F09EF909F088FB3A
:103D8000A0723B48FDF7EEFD404909F095F909F0B6
:103D90007FFBC0F30720E0723548FDF795FE3C49F4
:103DA00009F082F809F074FB20733148FDF78CFEAE
:103DB000374909F079F809F06BFBC0F3072060730D
:103DC0002B48FDF77FFE324909F06EF809F060FBE1
:103DD000A0732748FDF776FE2D4909F065F809F034
:103DE00057FBC0F307201B49E0731E4804F064FC36
:103DF000022006F09DFC40F27933EA6D2360AB6D42
:103E000013FB02F302202372C3F30723E0716372F2
:103E100006F08EFC40F2723315482360E671FDF720
:103E2000C7FD034612482372FDF7C2FD40FA06F3B0
:103E300063726781E76007490A48BDE8F84004F00B
:103E40003BBC09F0E5F86969D6E600BFDCD0FF1F8E
:103E5000B4D1FF1F38D0FF1F0000204144CFFF1F07
:103E6000D0CFFF1FD0D1FF1F2888FF1F2C88FF1F36
:103E7000F091FF1F0000C842C8CFFF1FE091FF1F55
:103E8000C8D1FF1F3888FF1F3088FF1F00007A4409
:103E900033938843554C564BE36040F2593200232C
:103EA0000826214653482260A360E67104F004FC12
:103EB000022006F03DFC504B686D1B68E67140F235
:103EC00051322260002B00F08D8009F0A1F8296AA0
:103ED00009F0F2F8494909F0EFF809F0D9FA484A2F
:103EE000484B12881B886281C1B2C0F307200025AD
:103EF000217260723D493F48A381E58104F0DCFBFB
:103F0000022006F015FC404B404A1B8812883749B6
:103F10006381082640F25533364822812360E560EC
:103F2000E67104F0C9FB022006F002FC40F25633B1
:103F300037482360E671FDF739FD364909F0BCF8D2
:103F400009F0A6FA034632482372FDF72FFD3149E6
:103F500009F0B2F809F09CFA2F4A2E490346C3F340
:103F600007231068637209F05BF909F06BFA0346E6
:103F700027486381FDF748FD204909F09DF809F0C5
:103F800061FA034622482373FDF73EFD1B4909F001
:103F900093F809F057FA1549E58140F307231548CE
:103FA000637304F089FB022006F0C2FB4FF45773E1
:103FB00002250E4923600F48E571C023238104F0D8
:103FC0007BFB284606F0B4FB144B154AE57140F222
:103FD0005E3121602272637204490648BDE8F840F0
:103FE00004F06ABB09F014F8696971E738D0FF1F63
:103FF00001504E00D0D1FF1FB4D1FF1F000020415F
:1040000044CFFF1FD0CFFF1F2C88FF1F2888FF1F22
:10401000F091FF1F0000C842C8CFFF1FBC45010040
:10402000A04201002DE9F041A64CA74D82B008F056
:10403000F5F823682860042B5DD0022B40F06681E0
:10404000A0F13102422A4AD8DFE812F09E041A0594
:104050005005270541056A0577055D0549004900BA
:104060004900490049004900490049004900490008
:1040700049004900490049004900490049004900F8
:1040800049004900490049004900490049004900E8
:1040900049004900490049004900490049004900D8
:1040A00049004900490049004900490049004900C8
:1040B0005C014900490049004900490049004900A4
:1040C00049004900490049004900490045004900AC
:1040D0008505712803D10023732023602860002BFD
:1040E00008BF73280CBF01230023002B40F08C80F5
:1040F00002B0BDE8F081A0F13102402AEFD801A161
:1041000051F822F08549000077480000014900007D
:104110001D490000214900003B4900005B490000A7
:104120005F49000063490000DF400000DF400000FD
:10413000DF400000DF400000DF400000DF40000003
:10414000DF400000DF400000DF400000DF400000F3
:10415000DF400000DF400000DF400000DF400000E3
:10416000DF400000DF400000DF400000DF400000D3
:10417000DF400000DF400000DF400000DF400000C3
:10418000DF400000DF400000DF400000DF400000B3
:10419000DF400000DF400000DF400000DF400000A3
:1041A000DF400000DF400000DF400000DF40000093
:1041B000DF400000DF400000DF400000DF40000083
:1041C000DF400000DF400000DD460000DF4000006F
:1041D000DF400000DF400000DF400000DF40000063
:1041E000DF400000DF400000DF400000DF40000053
:1041F000DF400000DF400000DF400000DF40000043
:10420000DF400000D7400000304E314805F024FB6D
:104210000421304808F070F82D4805F01DFB1021EE
:104220002D4808F069F82A4805F016FB13212B48A1
:1042300008F062F82A4B2648196805F005FB244867
:1042400005F00AFB1421274808F056F8204805F02D
:1042500003FB1E21244808F04FF81D4805F0FCFA26
:104260001521224808F048F8194805F0F5FA1E21F2
:104270001F4808F041F8164805F0EEFA20211D48C5
:1042800008F03AF8124805F0E7FA19211A4808F040
:1042900033F80F4805F0E0FA1221184808F02CF81E
:1042A0000B4805F0D9FA0D21154808F025F8084803
:1042B00005F0D2FA002201233260236002B0BDE88B
:1042C000F08100BF34D0FF1FF8CFFF1F4C88FF1FC5
:1042D000FC89FF1F8C4F0100944F0100A84F010083
:1042E0005888FF1FBC4F0100D44F0100F44F01005C
:1042F0000C5001002C500100505001006C50010086
:1043000080500100FFF7A0FB23682868082B71D1BB
:10431000322868D071283FF4DEAE31287FF4DFAE5A
:1043200007F0B8FF002800F3C581974E96F84010BB
:10433000336D726C032984BF002186F840109348C6
:10434000FDF73EFB0122692322602B6001E007F0AC
:1043500065FF07F09FFF05460028F8D18C4805F05F
:104360007BFA8B4805F078FA894805F075FA884899
:1043700005F072FA864805F06FFA1521854807F0B6
:10438000BBFF834805F068FA1821834807F0B4FFA3
:104390002B460A2296F840107D4805F075FA7C48B5
:1043A00005F05AFA28217D4807F0A6FF706C7C4979
:1043B00008F082FE08F05CFC00950B46024674484B
:1043C00005F06EFA0221774807F096FF704805F075
:1043D00043FA1321744807F08FFF6D4805F03CFA4B
:1043E0000823236084E607F055FF002800F353817B
:1043F00023682868072B14D134283FF76AAE302889
:104400007FF76DAE3238022801F29384DFE800F0C6
:104410009802AC0007F03EFF002800F353812368A8
:104420002868062B40F0AC83A0F13003412B00F24A
:10443000748601A252F823F0CB4F0000774E0000A3
:10444000734B0000F7500000D3500000B75000003D
:1044500097500000815000001B5100005150000097
:104460001B5100001B5100001B5100001B5100009C
:104470001B5100001B5100001B5100001B5100008C
:104480001B5100001B5100001B5100001B5100007C
:104490001B5100001B5100001B5100001B5100006C
:1044A0001B5100001B5100001B5100001B5100005C
:1044B0001B5100001B5100001B5100001B5100004C
:1044C0001B5100001B5100001B5100001B5100003C
:1044D0001B5100001B5100001B5100001B5100002C
:1044E0001B5100001B5100001B5100001B5100001C
:1044F0001B5100001B5100001B5100001B5100000C
:104500001B5100001B5100001B5100001B510000FB
:104510001B5100001B5100001B5100001B510000EB
:104520001B5100001B5100001B5100001B510000DB
:104530001B5100001B5100001B510000D740000020
:1045400007F0A8FE00287FF76AAF11480E4E05F06D
:10455000E3FA08F05DFD154908F0AEFD0123236084
:104560006123F0632B6025E007F094FE00287FF7BD
:1045700056AF0748044E05F0CFFA012323606123AC
:10458000A6F8CA002B6015E0DCD0FF1FF091FF1FDA
:10459000FC89FF1F54500100E44501000046010062
:1045A00000007A442C460100304601006F12833A25
:1045B00007F034FE07F06EFE05460028F8D1AF483C
:1045C00005F04AF9AD4805F047F9AC4805F044F963
:1045D000AA4805F041F9A94805F03EF91F21A8486D
:1045E00007F08AFEA54805F037F91C21A54807F019
:1045F00083FE706AA44908F05FFD08F039FB00955E
:1046000002460B469D4805F04BF902219F4807F0F2
:1046100073FE9A4805F020F923219D4807F06CFEAF
:10462000F06B994908F048FD08F022FB009502461E
:104630000B46924805F034F90221944807F05CFEDD
:104640008E4805F009F91921924807F055FEB06B24
:1046500008F00EFB02250B4602460095874805F040
:104660001FF929468C4807F047FE844805F0F4F806
:1046700022218A4807F040FEB6F8CA107F4805F0AC
:10468000E3F80321864807F037FE7C4805F0E4F89C
:10469000072323602CE57948824E05F03DFA08F0A7
:1046A000B7FC814908F008FD336D96F8401070643E
:1046B000024644E671487B4E05F02EFAC1B286F8F8
:1046C000401035E66D48774E05F026FA08F0A0FC5C
:1046D000012323606123B0632B606BE7734A136887
:1046E000B3FA83F3642001215B0921601360286021
:1046F000A0F152031F2B00F2BC80DFE813F0B405D9
:10470000BA00BA00BA00BA00BA00BA00BA00BA00D9
:10471000BA00BA00BA00BA00BA00BA00B105B605CC
:10472000030B2200FA0ABA00BA00BA00F70ABA006C
:10473000060BBA00BA00BA00BA00BA00A10507F029
:104740006DFD07F0A7FD0028F9D14C4805F084F86D
:104750004A4805F081F8494805F07EF8474805F0D9
:104760007BF8464805F078F81321514807F0C4FD5E
:10477000424805F071F80D214E4807F0BDFD3F4855
:1047800005F06AF80F214C4807F0B6FD4B4B3B484B
:10479000196805F059F8394805F05EF813214848C2
:1047A00007F0AAFD474B3548196805F04DF8334826
:1047B00005F052F81221444807F09EFD434B2F4864
:1047C000196805F041F82D4805F046F811214048D8
:1047D00007F092FD3F4B2948196805F035F8274846
:1047E00005F03AF80E213C4807F086FD2D4B234892
:1047F000D3F8A81005F028F8204805F02DF8192165
:10480000364807F079FD364B1C48196805F01CF84E
:104810001A4805F021F81121324807F06DFD324B9E
:104820001648196805F010F8144805F015F810211D
:104830002E4807F061FD2E4B1048196805F004F86A
:104840000E4805F009F81C212A4807F055FD2A4BAF
:104850000A48196804F0F8FF084804F0FDFF132126
:10486000264807F049FD054804F0F6FF04232360BD
:104870003EE4236833E4134A31E700BFFC89FF1F9D
:10488000184801003848010000007A442C46010015
:10489000584801007C480100F44701009848010095
:1048A000BC480100DCD0FF1F6F12833AEC91FF1F60
:1048B000CC490100E0490100F04901003CCFFF1F55
:1048C000004A0100CCCFFF1F144A0100C8D0FF1FCF
:1048D000284A0100FCCFFF1F3C4A01004C4A01005E
:1048E00040CFFF1F684A0100E0CFFF1F7C4A010054
:1048F000A491FF1F904A01005088FF1F304601001D
:10490000A94B1A680121002A0CBF0A460022216027
:104910001A6041F0508164202860E9E6A34ADEE68F
:10492000A34ED6F8A830B3FA83F3642001225B09C2
:104930002260C6F8A8302860DAE601239D4823608B
:10494000FCF776FD9C4B6422186023682A60082BD4
:1049500040F023876420FFF7C2BB984ABFE6984A1D
:10496000BDE60123236007F095FC002801F31481C4
:10497000944B18680428C4BF02221A60642223687A
:104980002A60E4E7904AAAE6894EF36FB3FA83F30C
:104990005B090122F367632322602B6001E007F0CB
:1049A0003DFC07F077FC0028F9D1884804F054FF5B
:1049B000864804F051FF854804F04EFF834804F018
:1049C0004BFF824804F048FF1F21814807F094FC08
:1049D0007E4804F041FF1E217E4807F08DFC7B4895
:1049E00004F03AFF7C481A2107F086FCD6F88030A4
:1049F000022B01F00A81032B01F0FE80012B01F054
:104A0000F2807648092107F077FC704804F024FF13
:104A10001421734807F070FCF16F6C4804F014FF28
:104A20006A4804F019FF1C216E4807F065FCD6F8AF
:104A30008410664804F008FF644804F00DFF1C2150
:104A4000694807F059FCD6F8B410604804F0FCFE41
:104A50005E4804F001FFD6F8805025F00207012FD0
:104A600000F0B786022D01F0D98013215F4807F0CE
:104A700043FC564804F0F0FE02232360FFF738BBE6
:104A80004B4ED6F88430B3FA83F35B090122C6F8A3
:104A90008430632322602B6083E70123236007F0C7
:104AA000F9FB002807DD4948414E05F035F808F0CC
:104AB000AFFAC6F8940023686320072B28603FF400
:104AC0000EAB052B41F018810523FFF708BB01232E
:104AD000236007F0DFFB0028EDDD3C48344E05F095
:104AE0001BF808F095FAC6F89000E4E7012323606C
:104AF00007F0D0FB002801F356802D4E01226323DE
:104B000022602B604DE70123236007F0C3FB0028E0
:104B1000F3DD2E48264E04F0FFFFC6F88C00EDE7CB
:104B20000123236007F0B6FB0028C4DD2748204E90
:104B300004F0F2FFA6F8C200BDE71D4ED6F8D4304F
:104B400001221344052BA8BF134622606322C6F836
:104B5000D4302A6025E7164ED6F88030012213445F
:104B6000042B2260A8BF00236322C6F880302A608D
:104B700017E707F08FFB002800F3FE8723682868FB
:104B8000052B3CD1362800F3CD8530287FF7A7AA26
:104B90003238042801F2BC80DFE810F05D014001EA
:104BA000C2002A00500100BFC8D0FF1FFCCFFF1F6A
:104BB000DCD0FF1FF091FF1F40CFFF1FE0CFFF1F92
:104BC000A491FF1F5088FF1F3CCFFF1FFC89FF1FD0
:104BD000B04A0100D04A0100F04A0100684B0100D0
:104BE000744B01008C4B0100AC4B010030460100BE
:104BF00007F050FB002800F35B8623682868032B2E
:104C000040F0C685A0F13002422A3FF668AA01A111
:104C100051F822F01F5A0000495A0000FF590000C5
:104C2000455B00002B5B00000B5B0000D15A0000CD
:104C3000BB5A00009F5A00007F5A0000DF4000006E
:104C4000DF400000DF400000DF400000DF400000E8
:104C5000DF400000DF400000DF400000DF400000D8
:104C6000DF400000DF400000DF400000DF400000C8
:104C7000DF400000DF400000DF400000DF400000B8
:104C8000DF400000DF400000DF400000DF400000A8
:104C9000DF400000DF400000DF400000DF40000098
:104CA000DF400000DF400000DF400000DF40000088
:104CB000DF400000DF400000DF400000DF40000078
:104CC000DF400000DF400000DF400000DF40000068
:104CD000DF400000DF400000695A000085570000F7
:104CE000F35800001F5900000959000091590000B5
:104CF0003B5700005F570000DF4000005F5B000093
:104D0000DD590000DF400000DF400000DF40000010
:104D1000DF400000DF400000CF590000C558000010
:104D200007F0B8FA00287FF768AFB448B44E04F033
:104D3000F3FEB44BC6F8AC0002221A60FDF736FD54
:104D400001226B2322602B6001E007F067FA07F075
:104D5000A1FA0028F9D1A94804F07EFDA74804F083
:104D60007BFDA64804F078FDA44804F075FDA34837
:104D700004F072FD2121A44807F0BEFA9F4804F018
:104D80006BFD1521A14807F0B7FAD6F898109B489B
:104D900004F05AFD02219E4807F0AEFA974804F04D
:104DA0005BFD1E219B4807F0A7FAD6F8A010934898
:104DB00004F04AFD0321984807F09EFA8F4804F05A
:104DC0004BFD1E21954807F097FAD6F89C108B48AA
:104DD00004F03AFD894804F03FFD1D21904807F09A
:104DE0008BFAD6F8AC10854804F02EFD834804F009
:104DF00033FD1E218B4807F07FFAD6F8B0107F48AC
:104E000004F022FD7D4804F027FDD6F8A830012BE0
:104E100000F0198705232360FFF76AB907F03AFA13
:104E200000287FF7EAAE7548754E04F075FE012341
:104E300023606B23C6F89C002B6088E7704E96F8C1
:104E4000C9300122B3FA83F322605B096B2286F832
:104E5000C9302A607BE707F01DFA00287FF7CDAE46
:104E60006648674E04F058FE012323606B23C6F8A2
:104E7000A0002B606BE707F00DFA00287FF77EAEED
:104E80005E485F4E04F048FE08F0C2F8664908F03C
:104E9000C7F901232360652370612B6001E007F0EF
:104EA000BDF907F0F7F905460028F8D1534804F09A
:104EB000D3FC524804F0D0FC504804F0CDFC4F48DD
:104EC00004F0CAFC4D4804F0C7FC1121574807F014
:104ED00013FA4A4804F0C0FC2821554807F00CFAA0
:104EE0007069514908F0E8F807F0C2FE00950246E3
:104EF0000B46424804F0D4FC02214E4807F0FCF96E
:104F00003E4804F0A9FC16214B4807F0F5F9F0697A
:104F1000454908F0D1F807F0ABFE00950B46024674
:104F2000364804F0BDFC0221424807F0E5F9334859
:104F300004F092FCD6F8B830002B32DD1D213F483A
:104F400007F0DAF9306E08F063F83D4908F0B4F87C
:104F500007F08EFE022502460B462848009504F015
:104F60009FFC0121374807F0C7F9244804F074FC7E
:104F70001F21354807F0C0F9706E08F049F8304934
:104F800008F09AF807F074FE009502460B461B489D
:104F900004F086FC2B48012107F0AEF9174804F015
:104FA0005BFC2A48112107F0A7F9D6F8B830082B86
:104FB00000F2BA80DFE813F03A013F013501300119
:104FC0002B01260121011C01B40007F063F9002820
:104FD0007FF7D4AD09480A4E04F09EFD00EB800037
:104FE000326E43001BB29342A6F8D030C8BFA6F879
:104FF000D0206523012222602B6052E7FC89FF1F2D
:10500000DCD0FF1FE0CFFF1FC0480100E4480100D3
:1050100088470100FC480100784401001C49010058
:105020003C4901005C49010000007A44F84F01004E
:10503000444601002C4601007046010088460100EC
:10504000CDCCCC3DF04B0100A8460100C846010084
:1050500007F020F900287FF791AD8548854E04F0D0
:105060005BFD07F0D5FFF76A3946804608F0C2F9C4
:1050700000B9474601232360652337632B6010E79F
:105080007C4E96F8C830012253402260652286F893
:10509000C8302A6005E707F0FDF800287FF76EADFD
:1050A0007348744E04F038FD012323606523C6F86D
:1050B000BC002B60F5E66F4ED6F8B83001221344E1
:1050C000092B2260A8BF00236522C6F8B8302A60E9
:1050D000E7E607F0DFF800287FF750AD6448654E3B
:1050E00004F01AFD00EB8000400001226523706689
:1050F00022602B60D5E607F0CDF800287FF73EADA3
:105100005B485C4E04F008FD00EB8000400001228B
:105110006523306622602B60C3E60623FEF7DFBFFF
:105120005548112107F0E8F8514804F095FBD6F8EE
:10513000B830002B12DD1821504807F0DDF8D6F802
:10514000BC104B4804F080FB02214D4807F0D4F816
:10515000474804F081FB464804F07EFB49481B2188
:1051600007F0CAF896F8C830002B40F02383464871
:10517000122107F0C1F83E4804F06EFB1F2143489E
:1051800007F0BAF8306B07F073FD022502460B46B4
:105190003748009504F084FB29463D4807F0ACF8F9
:1051A000334804F059FB1E213A4807F0A5F8B6F938
:1051B000D00007F02DFF384907F07EFF07F058FDBB
:1051C00000950B4602462A4804F06AFB0121334849
:1051D00007F092F8264804F03FFB1321304807F00F
:1051E0008BF8234804F038FB06232360FEF780BFCA
:1051F00014212C4807F080F896E704212A4807F08C
:105200007BF891E70B21294807F076F88CE70D2110
:10521000274807F071F887E70D21264807F06CF85A
:1052200082E70C21244807F067F87DE70D21234829
:1052300007F062F878E70C21214807F05DF873E782
:10524000D82200210B481F4E04F062FD2B6800217C
:105250000122732B216032607EF44AAFFEF7D5BF86
:10526000044EFFF7A7B906F07DFB024E2EE000BF0B
:10527000FC89FF1FDCD0FF1F584701006C4701006D
:10528000884701008C470100A8470100D44701006E
:10529000F4470100F8470100CDCCCC3DF04B0100B4
:1052A0003046010040470100384701002C4701000B
:1052B0001C4701000C470100FC460100DC460100D0
:1052C000EC4601004C88FF1F06F0A8FF06F0E2FF45
:1052D00005460028F8D1C24804F0BEFAC04804F0E0
:1052E000BBFABF4804F0B8FABD4804F0B5FABC48B0
:1052F00004F0B2FA1521BB4806F0FEFFB84804F0EE
:10530000ABFA1421B84806F0F7FFB54804F0A4FA48
:105310001B21B64806F0F0FFB14804F09DFA1321B6
:10532000B34806F0E9FFAE4804F096FAAC4804F042
:1053300093FAAB4804F090FA2021AE4806F0DCFF67
:10534000F068AD4907F0B8FE07F092FC0095024600
:105350000B46A34804F0A4FA0221A84806F0CCFFAB
:105360000221A74806F0C8FF9D4804F075FA2121E4
:10537000A44806F0C1FF30699F4907F09DFE07F081
:1053800077FC009502460B46954804F089FA022105
:105390009A4806F0B1FF0221994806F0ADFF904807
:1053A00004F05AFA1F21984806F0A6FFB06A07F0E9
:1053B0005FFC022702460B468948009704F070FA0A
:1053C0000121924806F098FF39468D4806F094FF77
:1053D000834804F041FA20218D4806F08DFFF06AE1
:1053E00007F046FC009702460B467D4804F058FA49
:1053F0000121864806F080FF3946814806F07CFF8F
:10540000774804F029FA2321824806F075FFB06C32
:10541000794907F051FE07F02BFC009502460B4638
:105420006F4804F03DFA3946744806F065FF394686
:10543000734806F061FF6A4804F00EFA1F217648AF
:1054400006F05AFFF06C6C4907F036FE07F010FCCE
:10545000009502460B46624804F022FA3946674836
:1054600006F04AFF3946664806F046FF5C4804F0FD
:10547000F3F91921694806F03FFFF16D584804F02F
:10548000E3F93946664806F037FF39465C4806F0CE
:1054900033FF534804F0E0F91821624806F02CFF6E
:1054A000B06E07F0B5FD604907F006FE07F0E0FBBF
:1054B000009702460B464A4804F0F2F901215B4886
:1054C00006F01AFF39464E4806F016FF444804F02D
:1054D000C3F92B21564806F00FFFB069464907F083
:1054E000EBFD07F0C5FB009502460B463C4804F077
:1054F000D7F93946414806F0FFFE3946404806F0E4
:10550000FBFE374804F0A8F91F214A4806F0F4FED4
:10551000B16D334804F098F93946394806F0ECFE8D
:105520002F4804F099F92021434806F0E5FE716DFB
:105530002B4804F089F93946314806F0DDFE284849
:1055400004F08AF910213D4806F0D6FEF16E244899
:1055500004F07AF93946294806F0CEFE3946284843
:1055600006F0CAFE1E4804F077F91321344806F00D
:10557000C3FE316F1A4804F067F90121314806F083
:10558000BBFE39461E4806F0B7FE154804F064F924
:1055900010212D4806F0B0FE716F114804F054F947
:1055A0003946164806F0A8FE3946154806F0A4FE0E
:1055B0000B4804F051F91421244806F09DFEB16F08
:1055C000074804F041F901211E4806F095FE3946CE
:1055D0000B4806F091FE024804F03EF9162137E030
:1055E000FC89FF1FD44C0100EC4C0100044D01006C
:1055F00030460100204D010000007A442C46010095
:1056000000510100444D0100684D0100884D01002A
:105610008C4D0100B04D0100D44D0100F44D01004E
:10562000104E0100144E0100CDCCCC3DF04B0100DA
:10563000304E01005C4E01007C4E0100A04E010086
:10564000B44E0100C84E0100CC4E0100E04E0100F6
:10565000B84806F051FE306AB74907F02DFD07F053
:1056600007FB009502460B46B44804F019F9394689
:10567000B34806F041FE3946B24806F03DFEAF4859
:1056800004F0EAF82421B04806F036FED6F8C4004B
:10569000A94907F011FD07F0EBFA009502460B4609
:1056A000A64804F0FDF83946A54806F025FE39461F
:1056B000A44806F021FEA14804F0CEF82B21A3480F
:1056C00006F01AFE706B07F0D3FA009702460B46FD
:1056D0009A4804F0E5F801219D4806F00DFE394690
:1056E000984806F009FE954804F0B6F82721994835
:1056F00006F002FED6F8CC008F4907F0DDFC07F07B
:10570000B7FA00950B4602468C4804F0C9F83946B2
:105710008B4806F0F1FD894804F09EF803232360CE
:10572000FEF7E6BC71287FF4CFA98B4A00237320D3
:10573000136023602860FEF7D2BC06F0ABFD0028A2
:105740000DDD7E48854E04F0E7F907F061FC7A49EB
:1057500007F066FD01226223306222602B6006F0B2
:1057600099FD00280EDD75487C4E04F0D5F907F050
:105770004FFC714907F054FD01226223C6F8C400B2
:1057800022602B6006F086FD002818DC236828685C
:10579000012B7EF4A4ACFEF7ABBF072B3FF4DAA8D5
:1057A000062B4FF064003FF4B8AC052B3FF48CA9F6
:1057B000FFF725BA14216A4806F09EFDDBE45F4836
:1057C000664E04F0A9F9F0660122622322602B6084
:1057D0007CE51C21634806F08FFDD6F894006249F1
:1057E00007F06AFC07F044FA009702460B4653485C
:1057F00004F056F805215D4806F07EFD4F4804F0A0
:105800002BF8D6F88050012D19D11D21584806F0EB
:1058100073FDD6F89000544907F04EFC07F028FAC3
:10582000009502460B46454804F03AF805214F48DA
:1058300006F062FD414804F00FF8D6F8805025F0DC
:105840000203012B7FF40EA91C214A4806F054FDE7
:10585000B6F8C210394803F0F7FF0321464806F0B6
:105860004BFD364803F0F8FFD6F88050012D7FF449
:10587000F9A81F21414806F03FFDD6F88C0007F03B
:10588000C7FB3F4907F018FC07F0F2F90225024672
:105890000B460095294804F003F82946394806F0DC
:1058A0002BFD264803F0D8FFD6F88050FFF7DAB872
:1058B00022482A4E04F030F9274BC6F8B0000322E4
:1058C000FFF73BBA304B1F48022101221A6006F055
:1058D00013FD1A4803F0C0FF2C480B2106F00CFD05
:1058E000022118481D4E06F007FD144803F0B4FFCE
:1058F0006AE706F0CFFC00287FF748AF0F48174E45
:1059000004F00AF930675FE706F0C4FC00287FF76F
:105910003DAF0A48114E04F0FFF8B06754E706F0B7
:10592000B9FC00287FF732AF04480C4E04F0F4F8BD
:10593000706749E7F84E010000007A44FC89FF1FB8
:105940002C46010000510100104F0100384F0100AA
:10595000884D0100644F0100E0CFFF1FDCD0FF1F26
:10596000BC470100CC4B0100CDCCCC3DEC4B010041
:10597000F44B0100144C0100344C0100384C010080
:105980006F12833A584C0100C891FF1FD84501009F
:10599000FCF7B2FD0221B84806F0AEFCB74803F0B0
:1059A0005BFF0221B44806F0A7FCB44803F054FFA3
:1059B0000221B14806F0A0FCB04803F04DFF1721CA
:1059C000AF4806F099FCAD4803F046FF88E7002297
:1059D0007323AC4E22602B60FEF717BC06F05AFC16
:1059E00000287FF7D3AEA548A74E04F095F807F03E
:1059F0000FFBA64907F014FCC6F8CC00E4E606F05D
:105A000049FC00287FF7C2AE9C489F4E04F084F802
:105A100007F0FEFA9D4907F003FC3061D4E606F07A
:105A200039FC00287FF7B2AE9448974E04F074F822
:105A30000123014623609648B16562232B60FBF782
:105A4000BDFF23682868A3E606F024FC00287FF742
:105A50009DAE8A488C4E04F05FF807F0D9FA8B4966
:105A600007F0DEFBF060AFE606F014FC00287FF7DD
:105A70008DAE8248844E04F04FF87065A4E606F0BF
:105A800009FC00287FF782AE7C487F4E04F044F882
:105A900007F0BEFA7D4907F0C3FBB06194E606F05B
:105AA000F9FB00287FF772AE7448774E04F034F8A3
:105AB00000EB80004000B06686E606F0EBFB0028B5
:105AC0007FF764AE6D48704E04F026F8F0657BE613
:105AD00006F0E0FB00287FF759AE68486A4E04F0F4
