:1000000000800020BD010000F99F0000B59F0000A6
:10001000B59F0000B59F0000B59F0000B59F000090
:10002000B59F0000B59F0000B59F0000F99F00003C
:10003000F99F0000B59F0000C5940000C99400001E
:10004000F99F0000F99F0000F99F0000F99F000050
:10005000F99F0000F99F0000F99F0000F99F000040
:10006000F99F0000F99F0000F99F0000F99F000030
:10007000F99F0000F99F0000F99F0000F99F000020
:10008000F99F0000F99F0000F99F0000F99F000010
:100090007D240000F99F0000F99F0000F99F0000F7
:1000A000F99F0000F99F0000F99F0000F99F0000F0
:1000B000F99F0000658A0000718A0000758A0000BF
:1000C000818A0000858A0000898A0000F99F00006B
:1000D000F99F0000F99F0000F99F0000F99F0000C0
:1000E000F99F0000F99F0000F99F0000F99F0000B0
:1000F000F99F0000F99F0000F99F00002DAF00005C
:10010000F99F000055B60000F99F0000F99F00001C
:10011000F99F0000F99F0000F99F0000F99F00007F
:10012000F99F0000F99F0000F99F0000F99F00006F
:10013000F99F0000F99F0000F99F0000F99F00005F
:10014000F99F0000F99F0000F99F0000F99F00004F
:10015000F99F0000F99F0000F99F0000F99F00003F
:10016000F99F000059B90000F99F0000F99F0000B5
:10017000F99F0000F99F0000F99F0000F99F00001F
:10018000F99F0000F99F0000F99F0000F99F00000F
:10019000F99F0000F99F0000F99F0000F99F0000FF
:1001A000F99F0000F99F0000F99F0000F99F0000EF
:1001B000F99F0000F99F0000F99F0000574B4CF297
:1001C000205210B5DA814DF62812DA8100BF00BF47
:1001D00009F016FF524B4FF010621A63514A9A63AE
:1001E000514ADA63514A136913F4807303D153619E
:1001F0004FF4A85313614E4B9A78110703D59A78A0
:1002000042F008029A704B4B4B482A221A704B4B13
:10021000DA1C121AC11E22F00302994288BF002282
:10022000474909F0F3FD474B4748DA1C121AC11E33
:1002300022F00302994288BF002200210DF0B6FF90
:10024000424943484FF4DE7209F0E0FD414B424A17
:10025000802103F8011B9342FBD14FF0E0233C4A7D
:10026000C3F8082D3D4B8A221A70A3F5805324222F
:100270005A70A0221A709A799207FCD59A79D406FE
:10028000FCD4374B9A7902F00C02082AFAD10322E7
:100290001A7140225A719A799006FCD5304A9379A6
:1002A0005906FCD51E4B2F4959640221996420211F
:1002B0001170917901F00C010C29FAD12A4A5A6087
:1002C0004FF0E023294A5A6100229A6107221A61FD
:1002D000274AC3F8202D62B609F0C4FF134B5B69AF
:1002E000DA0705D5234809F0B1FF234B234ADA6129
:1002F000234B1B785B0609D51F4C204BE2699A42C1
:1003000004D11C4809F0A2FF0023E36109F07EFE3E
:100310000EF042F809F072FDFEE700BF0020054034
:1003200000800440823F04000100002B00D0034005
:1003300000D0074000E007402087FF1F6891FF1FA3
:10034000F45B010010D9FF1F6891FF1F000000003F
:100350000082FF1F00E400E05FE400E00050064080
:100360000040064000000301C0100500FF760100B8
:100370000000202055E7066600E00340A5C3945A1C
:1003800000F00740FFFFFFFFFFFFFFFFFFFFFFFF42
:10039000FFFFFFFFFFFFFFFFFFFFFFFFFFFFFFFF6D
:1003A000FFFFFFFFFFFFFFFFFFFFFFFFFFFFFFFF5D
:1003B000FFFFFFFFFFFFFFFFFFFFFFFFFFFFFFFF4D
:1003C000FFFFFFFFFFFFFFFFFFFFFFFFFFFFFFFF3D
:1003D000FFFFFFFFFFFFFFFFFFFFFFFFFFFFFFFF2D
:1003E000FFFFFFFFFFFFFFFFFFFFFFFFFFFFFFFF1D
:1003F000FFFFFFFFFFFFFFFFFFFFFFFFFFFFFFFF0D
:10040000FFFFFFFFFFFFFFFFFFFFFFFFDEF9FFFF23
:100410000548064B1B1AD90F01EBA301491002D066
:10042000034B03B1184770476891FF1F6891FF1F86
:100430000000000008B5054B1BB105490548AFF3A6
:100440000080BDE80840FFF7E3BF00BF00000000E8
:100450006891FF1FF45B010010B5342200210446AF
:100460000DF0A4FE184904F1300304F1640243F8CE
:10047000041F9A42FBD13422002104F168000DF0E0
:1004800095FE0023002211481149C4F89C30C4F89D
:10049000A030C4F8A430C4F8A830C4F8B000C4F840
:1004A000B83047F23050012384F8DC20C4F8F00063
:1004B000C4F8AC10C4F8B410C4F8E420A4F8C42004
:1004C000C4F8F430204610BD0000A0400000C8C2AF
:1004D000000048430023C0F8E4308B7A91F809C04B
:1004E000CA7A1B0143EA1C1343EA0233C0F8E43022
:1004F000704700BF012A38B505460C4614D00223C8
:10050000C0F8F4304B7B087B1B01DBB243EA1010D0
:100510000CF076FD4FF07C510CF0C6FD2C490CF030
:10052000B9FCC5F8A00038BDC0F8F420CB7BFD2B8A
:1005300049D0087ADE2828D9C87A0CF061FD4FF03E
:100540007C510CF0B1FD23490CF0A4FCC5F8A000CF
:10055000207BEF282DD80CF053FD4FF07C510CF090
:10056000A3FD1C490CF096FCC5F8A400607BEF28A5
:1005700025D80CF045FD4FF07C510CF095FD154948
:100580000CF088FCC5F8A80038BD0CF039FD4FF020
:100590007C510CF089FD0F490CF07CFCC5F8A000E3
:1005A000E27AA37A03EB0223C5F8E430207BEF283C
:1005B000D1D90020C5F8A400607BEF28D9D9002349
:1005C000C5F8A83038BD887AFD28A1D138BD00BF54
:1005D0000000204200002C4290F8CC00704700BF81
:1005E00090F8C800704700BF90F8D000704700BF77
:1005F00090F8D400704700BF0D2994BF50F8210037
:10060000002070472DE9F0410C4E8046051F00F197
:10061000300755F8044F314620460CF0E3FE034600
:1006200020462BB1D8F8BC100CF0FAFE00B12646DB
:10063000BD42EED13046BDE8F08100BF0000204150
:100640002DE9F843D0F8BC800F4F4FF00009051F8B
:1006500000F1300655F8044F414620460CF0E0FE0C
:100660000346394620464BB10CF0BCFE03464946D2
:1006700020461BB10CF0D4FE00B1A146B542E9D131
:100680004846BDE8F88300BF0000A0402DE9F84FC0
:10069000D0F8BC90174F83460026051F00F13008A4
:1006A0004FF0000A55F8044F494620460CF0B8FEBA
:1006B0000346394620464BB10CF094FE30B130462B
:1006C00021460CF0E9FB0AF1010A06464545E9D14D
:1006D000CBF8E0A0BAF1000F08D050460CF090FC27
:1006E000014630460CF094FDBDE8F88F0020BDE8CF
:1006F000F88F00BF0000A040D0F8E000704700BFB6
:1007000038B5D0F8F430012B0ED1D0F8D8307BB901
:10071000D0F8A440D0F8A050214628460CF062FE44
:1007200020B92C46204638BDD0F8A040204638BD20
:10073000273350F82340204638BD00BFD0F8F430AE
:10074000012B2DE9F041044647D1D0F8D830002BD9
:1007500048D1D0F8A050D0F8A460284631460CF01B
:100760009BFBD4F8A870394680460CF095FB5F4996
:100770000CF04EFD4FF07C51044628460CF050FE24
:100780004FF07C51002833D128460CF02BFE30B1BD
:100790004FF07C5130460CF043FE002872D14FF0F0
:1007A0007C5128460CF03CFE002834D14FF07C519F
:1007B00030460CF035FE38B14FF07C5138460CF025
:1007C00011FE002840F090804FF07C5138460CF02C
:1007D00027FE00286DD03C4601E0D0F8A04020461E
:1007E000BDE8F081273350F823402046BDE8F08172
:1007F00030460CF015FE4FF07C51002836D03846BC
:100800000CF00EFE0028EAD14FF07C5128460CF087
:10081000E9FD00284FD14FF07C5130460CF0E2FD4D
:100820004FF07C5100283ED038460CF0F9FD0028EE
:1008300049D14FF07C5130460CF0F2FD68B14FF0D9
:100840007C5138460CF0CEFD002846D14FF07C514B
:1008500030460CF0C7FD0028A8D04FF07C51384638
:100860000CF0C0FD0028A1D02C46B8E728460CF0BB
:10087000B9FD0028CFD04FF07C5130460CF0D0FDB0
:100880000028C8D04FF07C5138460CF0C9FD002834
:1008900085D0394630460CF0FFFA4FF07C510CF011
:1008A00003FC04469BE730460CF0BAFD0028CDD08F
:1008B000C5E70F4C93E74FF07C5138460CF0B0FD84
:1008C0000028A8D0E5E7394628460CF0E5FA4FF0B5
:1008D0007C510CF0E9FB044681E74FF07C51404627
:1008E0000CF0E2FB04467AE7344678E7000040402B
:1008F0000000A0C2D0F8F430012B70B5044620D11E
:10090000D0F8D8300BBBD0F8A0604FF07C51304607
:100910000CF086FDD4F8A450E0B9D4F8A8404FF00C
:100920007C5128460CF07CFD68B1314628460CF01D
:1009300059FD40B1214628460CF054FD18B12C4613
:1009400001E0D0F8A040204670BD273350F8234086
:10095000204670BD304629460CF044FDD4F8A8402E
:100960000028DCD0304621460CF03CFD0028D6D0D3
:100970003446E8E72DE9F041064684B014460329E1
:100980003ED8DFE811F004003201F800E700002350
:1009900080F8EC30907A537A000100EB131000F5E8
:1009A0007A700CF02DFBAE490CF07EFB3060207BA2
:1009B000637B000900EB031000F57A700CF020FB5C
:1009C000A7490CF071FBB060207BE37A000200F4D1
:1009D0007060184400F57A700CF012FBA0490CF01E
:1009E00063FB7060E07BA37B000200F4706018443E
:1009F00000F57A700CF004FB99490CF055FBF0609F
:100A00003046FFF777FFD6F8AC1004460CF0EAFC4E
:100A100008B1C6F8AC40D6F8F430012B0FD1D6F8A7
:100A2000D830002B40F09280D6F8A050D6F8A440E1
:100A3000284621460CF0D6FC18B92C4601E0D6F821
:100A4000A040D6F8B00021460CF0CCFC08B1C6F8A6
:100A5000B040DFF81082341F06F13007A06B54F865
:100A6000045F29460CF0DCFC034628462BB1D6F87F
:100A7000BC100CF0CBFC00B16563A16E28460CF0F5
:100A8000CFFC0346414628461BB10CF0C9FC00B11F
:100A9000A566A742E2D196F8EC3043B9724B1B68C9
:100AA0000093009BC6F8E83004B0BDE8F0816E4CBE
:100AB000D6F8E83022680192019AD6F8F010D21ADE
:100AC0008A4232D222680292029A0B449B1A41F265
:100AD00087329342E8D8022164480BF005FC644851
:100AE00008F0B4FE062163480BF0FEFB96F8DC101C
:100AF0005F4800230A2208F0C1FE19215E480BF06E
:100B0000F3FB2168D6F8E830D6F8F0200391039C77
:100B100057489918091B00230A2208F0AFFE5448D1
:100B200004B0BDE8F04108F091BE2022002130461B
:100B30000DF03CFB0023C6F89C30C6F8A030C6F888
:100B4000A430C6F8A83004B0BDE8F081273356F8C9
:100B5000234076E7002380F8EC30907A537A000146
:100B600000EB131000F57A700CF04AFA3C490CF0D7
:100B70009BFA306344E7002380F8EC30907A537A94
:100B8000000100EB131000F57A700CF039FA3449CB
:100B90000CF08AFA3062207B637B000900EB0310C3
:100BA00000F57A700CF02CFA2D490CF07DFAB06249
:100BB000207BE37A000200F47060184400F57A703C
:100BC0000CF01EFA26490CF06FFA7062E07BA37BF2
:100BD000000200F47060184400F57A700CF010FA0E
:100BE0001F490CF061FAF0620AE7002380F8EC304C
:100BF000907A537A000100EB131000F57A700CF034
:100C0000FFF917490CF050FA3061207B637B000933
:100C100000EB031000F57A700CF0F2F910490CF0BB
:100C200043FAB061207BE37A000200F4706018445C
:100C300000F57A700CF0E4F909490CF035FA7061AE
:100C4000E07BA37B000200F47060184400F57A702A
:100C50000CF0D6F902490CF027FAF061D0E600BF9B
:100C60006F12833A0000A040C4D3FF1FFC50010064
:100C7000FC89FF1FCC3D0100D43D01002DE9F04768
:100C80000026D0F8BC90104FC0F89C608246051F2B
:100C900000F1300855F8044F494620460CF0C0FBDF
:100CA00003463946204653B10CF09CFB03462146CF
:100CB000304623B10CF0F0F80646CAF89C004545D2
:100CC000E8D13046BDE8F0870000A04002299ABF75
:100CD000283150F821000020704700BF3E2998BFFE
:100CE00080F8DC10704700BFD0F8F400704700BFF8
:100CF000D0F8E400704700BF90F8C400704700BF10
:100D000090F8C500704700BFC0F8D810704700BF0A
:100D100080F8C410704700BFC0F8C010704700BF13
:100D200080F8C510704700BF30B50F4CC0F8BC103C
:100D300083B020460D4608F089FD204608F086FD68
:100D400028460BF08DFF0B460221024600912046FB
:100D500008F09EFD204608F079FD204603B0BDE86E
:100D6000304008F073BD00BFFC89FF1F70B500F56F
:100D70007455064600F12C0434352046F834FFF74C
:100D80006BFBAC42F9D106F592750124284600218F
:100D9000FFF7BEFF214628460134FFF79FFF3F2C97
:100DA00005F1F805F2D106F54053074830610021FE
:100DB0007161002205480649B061F16183F83E2D5A
:100DC0003046A3F83C2D70BD00007A440000484333
:100DD0000000C8C270B500F59274012500260DE030
:100DE000012620460021FFF79BFF294620460135BA
:100DF000FFF774FF3F2D04F1F8040FD02046FFF7F2
:100E00007BFF03462046002BEBD0FFF779FF064619
:100E10000028E5D101462046FFF77AFF304670BD35
:100E2000816270472DE9F04F00F5405383B093F88D
:100E30003E4D01933C2C00910ED9DFF89C8201239A
:100E400098F8062001996FF3000281F83E3D88F87A
:100E5000062003B0BDE8F08F0A2C40F27D81142CEF
:100E600005460ED9A4F11903DBB21E2B04D89B4A08
:100E700022FA03F3DA070CD4631CDFF85C82DBB2DE
:100E8000DEE7A4F10B02D2B240F21123D340DB071C
:100E9000F2D5019ADFF84082002382F83D3D05F546
:100EA0009276012705E001373F2F06F1F80600F0A2
:100EB00097803046FFF720FF0028F4D04FF0000B5A
:100EC0005C464FF00109A96AA8680BF0E5FF594696
:100ED00082463046FFF790FB014650460CF082FAFE
:100EE00018B109FA0BF323439CB20BF1010BBBF1D0
:100EF0000D0FE8D11CB1019A012382F83D3D009B02
:100F0000012B00F0D0800023754AC8F80830C8F8DB
:100F10000C30994644FA09F303F0010309F1010981
:100F2000DB00B9F1080F02F8013FF3D107F1FF3BF5
:100F3000BBF10B0F0AD8DFE80BF096928E8AA6A2BF
:100F40009E9AAEAAB206674BC8F80030B8F80630D1
:100F50006149654803F0FE0343F4006343F0010375
:100F6000A8F8063007F0A2FB012009F0D9FB5F4981
:100F7000082044FA09F313F0010309F1010914BF31
:100F800008700B70B9F10D0F01F10101F1D1FE23D1
:100F900088F80D304FF6FE63A8F80E30BBF10B0F4A
:100FA0000AD8DFE80BF04C504844403C3834302C31
:100FB00028064F4BC8F80030B8F8063046494A4872
:100FC00003F0FE0343F4006343F001030137A8F884
:100FD000063007F06BFB3F2F06F1F8067FF469AF90
:100FE000019A92F83D3D002B3FF429AF92F83E3D27
:100FF0000133DBB224E73F4BC8F80030DCE73E4B5F
:10100000C8F80030D8E73D4BC8F80030D4E73C4B77
:10101000C8F80030D0E73B4BC8F80030CCE73A4B7B
:10102000C8F80030C8E7394BC8F80030C4E7384B7F
:10103000C8F80030C0E7374BC8F80030BCE7364B83
:10104000C8F80030B8E7354BC8F80030B4E7344B87
:10105000C8F800307AE7334BC8F8003076E7324BF7
:10106000C8F8003072E7314BC8F800306EE7304BFB
:10107000C8F800306AE72F4BC8F8003066E72E4BFF
:10108000C8F8003062E72D4BC8F800305EE72C4B03
:10109000C8F800305AE72B4BC8F8003056E72A4B07
:1010A000C8F8003052E7294808F0D0FB072128484B
:1010B0000BF01AF93946254808F0C0FB03212548F2
:1010C0000BF012F9002310222146204808F0D6FB2D
:1010D0001E4808F0BBFB16E78091FF1F21841042D9
:1010E0008791FF1FAF54551AD0D1FF1F8891FF1F62
:1010F000B054551AAE54551AAC54551A1B54551ABF
:101100001954551A1754551A1554551A1354551A7B
:101110001154551A0F54551A0B54551A0D54551A8B
:101120001054551A0E54551A0C54551A0A54551A7F
:101130001854551A1654551A1454551A1254551A4F
:10114000AB54551A1A54551AAD54551AFC89FF1F41
:10115000F03D0100F83D0100012C7FF48DAEDFF879
:101160001C828748B8F8063003F0FE0343F400639E
:1011700043F0010300254146A8F80630814BC8F82A
:101180000030C8F80850C8F80C5007F08FFA204615
:1011900009F0C6FA7C4B7A48C8F80030414607F09F
:1011A00085FA204609F0BCFA784B7548C8F800303B
:1011B000414607F07BFA204609F0B2FA744B7048BA
:1011C000C8F80030414607F071FA204609F0A8FA45
:1011D000704B6B48C8F80030414607F067FA20466C
:1011E00009F09EFA6C4B6648C8F80030414607F09B
:1011F0005DFA204609F094FA684B6148C8F800305F
:10120000414607F053FA204609F08AFA644B5C48DD
:10121000C8F80030414607F049FA204609F080FA44
:10122000604B5748C8F80030414607F03FFA204667
:1012300009F076FA5C4B5248C8F80030414607F096
:1012400035FA204609F06CFA584B4D48C8F8003082
:10125000414607F02BFA204609F062FA544B484801
:10126000C8F80030414607F021FA204609F058FA44
:101270004FF0FE334146C8F80C3041484D4BC8F89A
:101280000030C8F8085007F011FA204609F048FA73
:10129000494B3B48C8F80030414607F007FA204662
:1012A00009F03EFA454B3648C8F80030414607F091
:1012B000FDF9204609F034FA414B3148C8F80030B6
:1012C000414607F0F3F9204609F02AFA3D4B2C4835
:1012D000C8F80030414607F0E9F9204609F020FA45
:1012E000394B2748C8F80030414607F0DFF920465F
:1012F00009F016FA354B2248C8F80030414607F08D
:10130000D5F9204609F00CFA314B1D48C8F80030D9
:10131000414607F0CBF9204609F002FA2D4B184858
:10132000C8F80030414607F0C1F9204609F0F8F945
:10133000294B1348C8F80030414607F0B7F920465A
:1013400009F0EEF9254B0E48C8F80030414607F089
:10135000ADF9204609F0E4F9214B0948C8F80030FE
:10136000414607F0A3F9204609F0DAF9019A92F80C
:101370003E3D82F83D5D0133DBB261E58091FF1FA8
:10138000D0D1FF1F0A54551A0C54551A0E54551A31
:101390001054551A1254551A1454551A1654551AF5
:1013A0001854551A1A54551AAB54551AAD54551AA7
:1013B000AF54551A0B54551A0D54551A0F54551A4B
:1013C0001154551A1354551A1554551A1754551AC1
:1013D0001954551A1B54551AAC54551AAE54551A73
:1013E000B054551A38B50C6804F00F0C15460CF1C2
:1013F000FF320D2A00D938BD0CEB0304C4EB4413B3
:1014000000EBC3002C30FFF765F8012DF3D106483F
:1014100008F01CFA2146044808F010FABDE83840EC
:1014200002480B210AF060BFFC89FF1FFC3D010050
:10143000F8B500F54057002300F57456C7F8403D55
:1014400000F59274343602E0F834B4420FD02046EE
:10145000FFF752FC0028F7D02046D7F8405DFFF791
:101460004BF9F8340544B442C7F8405DEFD1D7F8E2
:10147000400DF8BD012B2DE9F04105460E461746FB
:1014800008D0022B1C4603D14A7B0B68DF2A38D1D7
:10149000BDE8F08108685FFA80F8A8F10B03302BF3
:1014A0000ED800F00F000BF0ABFD4FF07C510BF0AD
:1014B000FBFD4FF07E510BF0EFFC0BF0BBFF8046C5
:1014C000C8EB481405EBC4042C3401212046FFF777
:1014D0001FFC01212046FFF723FC01223146204654
:1014E000FFF708F8012FD3D1184808F0AFF94146AB
:1014F000164808F0A3F9BDE8F04115480D210AF09F
:10150000F3BE03F00F0808F10108C8EB481300EB25
:10151000C3052C3501212846FFF7FAFB0121284697
:10152000FFF7FEFB224631462846FEF7E3FF012F78
:10153000AED1064808F08AF94146044808F07EF921
:10154000BDE8F04103480D210AF0CEBEFC89FF1F23
:10155000083E0100183E010000F5405393F83D3D60
:1015600003B17047F0B50B68A3F5D87383B0054697
:101570000C463E2B2CD8DFE803F020504A4D535642
:10158000595C5F6265686B6E7174777A7D80838663
:10159000898C8F9295989B9EA1A4E3E9A7ECAAADB4
:1015A000E62BB0B3B62BB9BCBF2BC2C5C82BCBCE74
:1015B000D12BD4D7DA2BDDE02D0000270126A37A2A
:1015C000FF2B05D0637BFF2B02D0E37BFF2B06D1E3
:1015D00003B0F0BD02271026A37AFF2BF8D0012A12
:1015E00000F0BA80C6EB461605EBC6052C3528463A
:1015F0000121FFF78DFB28460121FFF791FB2246D1
:101600003946284603B0BDE8F040FFF7B3B90227DA
:101610000126E1E703270126DEE701273E46CEE764
:1016200000270226CBE701270226C8E702273E460D
:10163000D2E703270226CFE700270326BFE70127CB
:101640000326BCE702270326C6E703273E46C3E777
:1016500000270426B3E701270426B0E70227042663
:10166000BAE703270426B7E700270526A7E70127DF
:101670000526A4E702270526AEE703270526ABE7E4
:10168000002706269BE70127062698E7022706265D
:10169000A2E7032706269FE7002707268FE70127F3
:1016A00007268CE70227072696E70327072693E7F6
:1016B0000027082683E70127082680E70227082657
:1016C0008AE70327082687E70227092684E70027F9
:1016D0000A2674E701270A2671E700270B266EE722
:1016E00001270B266BE702270B2675E700270C2640
:1016F00065E701270C2662E702270C266CE7002726
:101700000D265CE701270D2659E702270D2663E722
:1017100000270E2653E701270E2650E702270E2644
:101720005AE700270F264AE701270F2647E7022737
:101730000F2651E70027102641E7012710263EE734
:10174000002709263BE702270A2645E70127092645
:1017500035E7032709263FE70A48019208F076F8A3
:101760003146084808F06AF8019A074811460AF01D
:10177000BBFD3946034808F061F8032103480AF02D
:10178000B3FD2FE7FC89FF1F283E0100F83D010053
:101790002DE9F04F0023DFF86491DFF86481594FA1
:1017A000036083B0064600F59274012504E001351C
:1017B0003F2D04F1F80468D02046FFF79DFA002879
:1017C000F5D0484600F0B2FD2946404600F0AEFD97
:1017D0002046FFF753FA0BF043FA02460B46384611
:1017E00000F0A4FD2046FEF70DFF82462046FEF7DE
:1017F00027FF834650460BF033FA0246584692467E
:101800008B460BF02DFA5B465246CDE900013E486F
:1018100000F08CFD00212046FFF758FA0121824696
:101820002046FFF753FA834650460BF019FA02465A
:10183000584692468B460BF013FA5246CDE900010A
:101840005B46324800F072FD2046FFF717FA01466A
:1018500030680BF021FB30602046FFF74BF8B16990
:101860000BF0C0FD002833D12046FEF749FFF16997
:101870000BF0D6FD00289AD02046FEF741FF013537
:101880003F2DF06104F1F80496D170680BF0B8FBBD
:10189000014630680BF0BCFC7169306004460BF007
:1018A000BFFD00B17461316920460BF09BFD00B1B2
:1018B00034610B2008F0CAFE06F5405696F83C3D10
:1018C00058B9B3B1012386F83C3D03B0BDE8F08FB1
:1018D0002046FFF70FF8B061C6E72BB9002386F862
:1018E0003C3D03B0BDE8F08F094800F031FD002316
:1018F000F5E7084800F040FDE4E700BF9044010030
:101900002C3E0100683E01007C3E0100A83E010023
:10191000FC3E0100C43E010070B5114B836000F530
:101920007455064600F59274343502E0F834AC4242
:1019300013D02046FFF7E0F90028F7D02046FEF745
:1019400061FEB1680BF04EFD0028EFD02046FEF797
:1019500059FEF834AC42B060EBD1B06870BD00BF46
:101960000000A04070B5002300F574550646C36022
:1019700000F59274343502E0F834AC4213D02046BE
:10198000FFF7BAF90028F7D02046FEF759FEF168B4
:101990000BF046FD0028EFD02046FEF751FEF8344C
:1019A000AC42F060EBD1F06870BD00BF00687047DA
:1019B00000F54050D0F8380D704700BF41607047C7
:1019C0002DE9F04100F57455884617461E4600F58E
:1019D0009274343502E0F834AC4213D02046FFF75D
:1019E0008BF90028F7D020464146FFF78DF92046B5
:1019F0003946FFF799F920463146F834FFF78CF95C
:101A0000AC42EBD1BDE8F0812DE9F8432A4A2B4BDB
:101A1000DFF8AC90426200F574558046036200F531
:101A2000927434350026002702E0F834A54210D025
:101A30002046FFF761F90028F7D02046FEF77EFE2A
:101A400049460BF0EDFC88B9F834A54206F10106D1
:101A5000EED108F54058D8F8380D801B0BF0D0FABD
:101A6000014638460BF0D4FBBDE8F8832046FEF76C
:101A700065FE014638460BF00FFA07462046FEF792
:101A80003FFED8F820100BF0CBFC70B92046FEF7D3
:101A900031FFD8F824100BF0A5FC0028C5D0204653
:101AA000FEF728FFC8F82400BFE72046FEF728FE0F
:101AB000C8F82000EAE700BF00C0794400C079C43C
:101AC00000008CC2006A7047406A70472DE9F041FF
:101AD00000F540580026002300F57455C8F8383D3D
:101AE00000F592743435374602E0F834AC421DD02C
:101AF0002046FFF701F90028F7D02046FEF7C6FD83
:101B000039460BF08DFC03462046002BEDD0FEF746
:101B1000BDFD014630460BF0BFF9D8F8383DF8342A
:101B20000133AC420646C8F8383DE1D1D8F8380D4B
:101B30000BF066FA014630460BF06AFBBDE8F08117
:101B40002DE9F04F91B00446A4480E9100F094FBAB
:101B5000A24800F091FB04F54058A04804F57457E2
:101B600000F08AFB04F5927500233437D8F838BDAD
:101B7000C8F8403D2E46B94602E0F836B1450FD0D0
:101B80003046FFF7B9F80028F7D03046D8F8407D46
:101B9000FEF7B2FDF8360744B145C8F8407DEFD1F5
:101BA000D8F8402D20680F920BF05AF863680D9317
:101BB000064620460F46FFF789FF80462046D4F8A8
:101BC0000890D4F80CA0FFF71FFF0BF049F8CDE9FF
:101BD0000A01494650460BF05DF981490BF064FA61
:101BE0000BF03EF8CDE9080150460BF039F8CDE98D
:101BF000060148460BF034F8CDE9040140460BF0ED
:101C00002FF80D9B0F9ACDE90201CDE900677548C9
:101C1000754E594600F030FB704800F02DFB002354
:101C20004FF001080D9307E008F10108B8F13F0FEC
:101C300005F1F80500F09D802846FFF75DF80028C3
:101C4000F2D02846FEF7C8FC2846FEF7C9FC284615
:101C5000FEF7CAFC2846FEF7CBFC082163480AF0D1
:101C600043FB4146304607F0E9FDB8F1090F40F368
:101C7000B08002215E48DFF87CA10AF035FB2846DF
:101C8000FEF7FCFF0AF0ECFF9DF83890CDF80090CD
:101C90000B460246304607F0FBFD574801210AF08B
:101CA00023FB2B46DDF834B04D46002499461FE057
:101CB000062152480AF018FB5946304607F0BEFD8F
:101CC00002214F480AF010FB21464846FEF794FCDB
:101CD0000AF0C6FF009502460B46304607F0D8FDD5
:101CE0000134454801210AF0FFFA0D2C0AD0BB4609
:101CF000BBF1090F0BF10107DADC012150460AF0B4
:101D0000F3FAD5E7304607F0A1FD4846FEF7ECFFB1
:101D10000D9B04460D33012C3A480D934D464FF070
:101D2000090129D00AF0E0FA00214846FEF7CEFF6B
:101D30000AF096FF0B46022102460091304607F05A
:101D4000A7FD0E2130480AF0CFFA2846FEF7D0FF53
:101D5000002301461022304607F090FD08F10108EB
:101D6000304607F073FDB8F13F0F05F1F8057FF439
:101D700063AF11B0BDE8F08F0AF0B6FA0021484613
:101D8000FEF7A4FF0AF06CFF022702460B460097FD
:101D9000304607F07DFD0A211C480AF0A5FA2146CD
:101DA0004846FEF793FF0AF05BFF009702460B469A
:101DB000304607F06DFD0A2115480AF095FA3946BC
:101DC0004846FEF783FF0AF04BFF009702460B469A
:101DD000B4E7012107480AF087FA4AE79044010076
:101DE00000007A44AC410100FC89FF1F4C42010015
:101DF000FC50010018430100584201005C42010000
:101E00000843010064420100884201007042010061
:101E10007C4201002DE9F04F87B000F59274DFF8A5
:101E20004882DFF84892039104929B462646012798
:101E30000594924604E001373F2F06F1F80675D06D
:101E40003046FEF759FF0028F5D000230A220399F7
:101E5000404607F013FD012148460AF045FA504676
:101E60000AF0FEFE0B46002102460091404607F0B4
:101E70000FFD012148460AF037FA5946404607F05F
:101E8000DDFC012148460AF02FFA3946404607F0AA
:101E9000D5FC012148460AF027FA002402252146F4
:101EA0003046FEF7A9FB0AF0DBFE009502460B4622
:101EB000404607F0EDFC0134012148460AF014FACF
:101EC000082CECD100213046FEF700FF0AF0C8FED6
:101ED000009502460B46404607F0DAFC01214846D1
:101EE0000AF002FA01213046FEF7F0FE0AF0B8FED1
:101EF000009502460B46404607F0CAFC01214846C1
:101F00000AF0F2F902213046FEF7E0FE0AF0A8FEE0
:101F1000009502460B46404607F0BAFC01374046A2
:101F200007F094FC3F2F06F1F80689D1059C504F2D
:101F3000DFF8388101264FF0000A04E001363F2E19
:101F400004F1F8045CD02046FEF7D6FE0028F5D058
:101F500000230A220399384607F090FC01214046ED
:101F600008F094FE04980AF07BFECDF800A002462B
:101F70000B46384607F08CFC0121404608F086FEEF
:101F80005946384607F05AFC0121404608F07EFECB
:101F90003146384607F052FC0121404608F076FEF3
:101FA00000254FF0020929462046FEF725FB0AF0DE
:101FB00057FECDF8009002460B46384607F068FC05
:101FC00001350121404608F061FE0D2DEBD1204680
:101FD000FEF78AFE0546012D4FF00001204612D083
:101FE000FEF774FE0AF03CFE013602460B46CDF8C1
:101FF0000090384607F04CFC3F2E04F1F804A2D1C3
:1020000007B0BDE8F08FFEF761FE0AF029FECDF8BB
:10201000009002460B46384607F03AFC29464046F7
:1020200008F034FE29462046FEF750FE0AF018FE5E
:10203000CDF8009002460B46384607F029FC2946A9
:10204000404608F023FE02212046FEF73FFE0AF03C
:1020500007FECDF8009002460B46384607F018FC04
:10206000384607F0F3FB69E7FC89FF1F283E0100B3
:10207000BC88FF1F70B500F54056002300F574556D
:10208000C6F8443D00F59274343502E0F834A542B8
:102090001AD02046FEF730FE0028F7D02046FEF783
:1020A00027FE0D2310F0010F03F1FF334FEA50001C
:1020B00004D0D6F8442D0132C6F8442D13F0FF03A6
:1020C000F0D1F834A542E4D1D6F8440D70BD00BF7C
:1020D000014B1870704700BF2488FF1F0278002A48
:1020E00000F0B8802DE9F0435C4FDFF874815D4E5D
:1020F00083B003460D46252A34D158785C1C00284D
:1021000038D0A0F12503552B2ED8DFE803F09F2D02
:102110002D2D2D2D2D2D2D2D2D2D2D2D2D2D2D2DEF
:102120002D2D2D2D2D2D2D2D2D2D2D932D2D2D2D79
:102130002D2D2D2D2D2D2D2D2D2D2D2D2D882D2D74
:102140002D7C2D2D2D2D2D2D2D2D2D7439392D5EE0
:102150002D2D392D2D392D2D2D2D2D2D493F2D2D69
:102160002D562D6918781C460AF042F96278631CD6
:10217000002AC0D13C4803B0BDE8F04307F066BB7D
:1021800055F8041B384807F059FBEFE755F8041BD6
:1021900001290EBF3548012130460AF0A5F8E5E7D0
:1021A00055F8049BB9F1000FE0D048460CF028F92F
:1021B000014648460AF098F8D8E755F8041B2A4823
:1021C0000023102207F05AFBD0E7073525F007055A
:1021D0000321F5E802232448009107F059FBC5E7E5
:1021E000073525F007050021F5E802231E48009178
:1021F00007F04EFBBAE755F8041B1B4800230222E8
:1022000007F03CFBB2E7022119480AF06DF855F8D7
:10221000041B15480023102207F030FBA6E755F8F1
:10222000043B012B07BF04214046052138460AF034
:102230005BF89BE702210F480AF056F855F8041B9B
:1022400009480023022207F019FB8FE725200AF036
:10225000CFF88BE7044807F0F9BA00BFB04201009D
:10226000A8420100A4420100FC89FF1FA042010016
:10227000984201009C4201000FB400B583B004A94C
:1022800051F8040B0191FFF729FF03B05DF804EB4F
:1022900004B07047F0B51C4B1C4F1B6883B004465C
:1022A0000193019B3B600D46164619460A22002306
:1022B000174807F0E3FA032116480AF015F8032C33
:1022C00007D8DFE804F01B160211134807210AF0B3
:1022D0000BF8022111480AF007F83146284603B0EE
:1022E000BDE8F040FFF7FABE05210D4809F0FCFFFC
:1022F000EFE704210B4809F0F7FFEAE705210A4858
:1023000009F0F2FFE5E700BFC4D3FF1F9091FF1F64
:10231000FC89FF1FB8420100CC42010008430100C4
:10232000D4420100C4420100BC4201000FB400B518
:10233000064B187883B020B905AA04990192FFF7DB
:10234000A9FF03B05DF804EB04B070472488FF1FB9
:102350000FB4084B00B51B78012B83B005D805AA34
:10236000049901920120FFF795FF03B05DF804EB9B
:1023700004B070472488FF1F0FB4084B00B51B78CA
:10238000032B83B005D805AA049901920320FFF717
:1023900081FF03B05DF804EB04B070472488FF1F91
:1023A00030B4074D074C084900232B7023600365A8
:1023B00030BC4365836580F85C300B60704700BFBC
:1023C0009891FF1F9491FF1F9C91FF1F70B51320E0
:1023D00008F03CF958B9114C08F082F92268104B0A
:1023E000801A80B2188008F07BF9206070BD0C4D17
:1023F0000A4B2C881E6808F073F9A4B23444201AE2
:102400002A880849C0EB00139B0092B2A3F634035C
:10241000B3FBF2F39BB20B8070BD00BFD4D0FF1FA3
:10242000D4CFFF1FD891FF1FDDF800C0521AACEBCC
:10243000030C1CD0401ABCF1000F0CFB00F002EBA7
:10244000D27109DB00EB610000FB02F1002990FB77
:10245000F2F0184410DB7047A0EB610000FB02F1C2
:10246000002990FBF2F01844F5DB013070470CEBCB
:10247000DC7C03EB6C00704701387047114B10B5E2
:102480004FF47A701C7807F0FBFB844204D021469D
:102490004FF47A7007F00EFC0B4B0C485A7842F060
:1024A00040025A701A7842F040021A7007F0CEF9D2
:1024B0000748072109F018FFBDE81040034807F05E
:1024C000C5B900BF2888FF1F00D00740FC89FF1F47
:1024D000DC42010038B5044649B108460D460BF010
:1024E0008FFF236802465B682946204698472046AE
:1024F000BDE8384007F0AAB92DE9F0474048414E01
:10250000414CDFF80891DFF80881424FFFF7B4FE35
:10251000414B4249D9604249196142495961424996
:10252000596242499961DE624FF07C51002659643C
:1025300019651E634FF496713D4E196699665E6388
:1025400040F61C413B4ED9669E630A213A4E1967FC
:1025500040F2122541F204015E60384E1D80596739
:10256000374D1E625A21374EDC61002201209D62E8
:10257000DC6364250C2499679E643221324E83F813
:10258000402040F2012AC3F8D4005C659865596682
:10259000DE64DD652D4EA3F808A0DA67C3F8842059
:1025A000C3F8A820FF220224DFF8A4E0DFF8A4C0CB
:1025B000C3F8B400C3F89C10C3F8AC10C3F8B02043
:1025C00044F6206041F288314FF47A72C3F8C86053
:1025D000C3F88890C3F89080C3F894E0C3F8BC5067
:1025E000C3F8C070C3F8C4C0C3F88040C3F8B84093
:1025F000C3F88C00C3F89810C3F8A020BDE8F0879A
:10260000E4420100000020C1CDCC4C3ED606D606E7
:102610000000684288130500DCD0FF1F6666864014
:102620000000404033338340CDCCCC3DCDCC4C403A
:10263000000020420000A04020A107003333734077
:10264000000082429A9979400AD7233D0101F401A2
:1026500000C020449A99993EF8B5504D504C5148CD
:10266000E66800232B70FFF77DF9014630460AF03B
:10267000B9FE002814BF042308232B704948FFF734
:102680004BF921690AF0AEFE2B78002879D043F08F
:1026900010032B704348FFF715FAA16A0AF0C0FE39
:1026A0002B78002876D043F0400300272B706F7002
:1026B0003C48FFF709FAE16A0AF094FEB84214BFF9
:1026C000012302236B70EF703648FFF74BF9064683
:1026D0003448FFF721F9014630460AF0DBFBE16B95
:1026E000314E0AF09DFEB84214BF01230223EB7065
:1026F0002C483770FFF736F9616A0546E0680AF042
:10270000C9FB014628460AF08BFEB84214BF0423D9
:10271000082333702348FFF7FFF8616A05462069F4
:102720000AF0BAFB014628460AF05CFE337870B323
:1027300043F0100333701B48FFF7C4F9A16B054643
:10274000A06A0AF0A7FB014628460AF069FE337822
:10275000D0B143F040030022727033701148FFF78C
:10276000B3F9A16B0346E06A1C460AF095FB0146EB
:1027700020460AF037FE002814BF0123022373709D
:10278000F8BD43F0200384E743F08003E3E743F020
:102790002003CFE743F0800387E700BFE091FF1FEE
:1027A000DCD0FF1FF091FF1FC8D1FF1F2DE9F041C2
:1027B0007F4C2368012B82B049D0022B00F0C380EC
:1027C000032B03D02BB302B0BDE8F081794B7A4ED6
:1027D0004FF47A721A60D6F8AC000AF011FC054684
:1027E000D6F8B0000AF00CFC29460AF053FB7349F6
:1027F0000AF05AFC71490AF00BFD29460AF04CFB1D
:102800000AF018FE0146062007F07EFD2368002B23
:10281000D9D1694B6A48D3F8AC10D3F8B02003681B
:102820006848521A002A02FB03F3C0F2B280323326
:1028300080FB0320DA17C2EB6012002B1144C0F2B8
:10284000B480062002B0BDE8F04107F05DBD594FED
:1028500038680A30B0F57A7F00F3968038600AF065
:10286000CFFB59490AF020FC8046534ED6F8AC0005
:102870000AF0C6FB0546D6F8B0000AF0C1FB2946AF
:102880000AF008FB41460AF00FFC4C490AF0C0FC74
:1028900029460AF001FB0AF0CDFD0146062007F0AB
:1028A00033FD0221494809F01FFD494806F0CEFFDB
:1028B0000621484809F018FD38680AF0A1FB424992
:1028C0000AF0F2FB0AF0CCF94FF0020802460B4680
:1028D0003F48CDF8008006F0DBFF0D213E4809F0AF
:1028E00003FDD6F8AC000AF08BFB054638680AF009
:1028F00087FB35490AF0D8FB0346D6F8B0001E46E0
:102900000AF07EFB29460AF0C5FA014630460AF075
:10291000CBFB2A490AF07CFC29460AF0BDFA0AF0F2
:102920009FF9CDF800800B460246294806F0B0FF1B
:102930004146264809F0D8FC254806F087FF236861
:10294000022B7FF43DAF1B4B1B4E00221A60D6F8C2
:10295000AC000AF055FB0546D6F8B0000AF050FB73
:1029600029460AF097FA00210AF09EFB13490AF063
:102970004FFC29460AF090FA0AF05CFD0146062059
:1029800007F0C2FC23681BE700234FF000083B6000
:102990006BE7323B80FB0320DA17C2EB6012002B9F
:1029A0001144FFF64EAF01314BE7013949E700BF53
:1029B000E0CFFF1FD091FF1FDCD0FF1F0000C842F7
:1029C0002888FF1F1F85EB51CDCCCC3DFC5001006A
:1029D000FC89FF1F044301000C43010070B5B2489D
:1029E000B24C06F033FFB04806F030FFAE4806F0B8
:1029F0002DFFAF480D2109F077FCD4F8A830012B4A
:102A000011D0AC4CA848217800230A2206F036FFEA
:102A10002378052B57D8DFE813F006010B011001CE
:102A200015011A0101010921A34809F05DFCA34821
:102A3000FEF772FF21690AF0D5FC002840F02E81D4
:102A40009E48FEF78FFFE1680AF0EAFC002840F09C
:102A50006C819A48FEF786FF05469848FEF75CFFB2
:102A6000014628460AF016FAE16B0AF0D9FC002864
:102A700040F056819148FEF7C7FFA16A0AF0D0FCEA
:102A8000002840F05C818D48FEF7BEFFE16A0AF045
:102A9000A9FC002840F04E81894B88481B68012B17
:102AA00000F0EC80FEF738FF21690AF0B9FC00283D
:102AB00040F0D2800721834809F016FC824B7A4807
:102AC000196806F0BBFE0221804809F00DFC1220B7
:102AD00007F0BCFD012800F09C80112007F0B6FD36
:102AE000012800F091807A4B1B68012B00F0878051
:102AF00002217648774C09F0F7FB774B6A48196852
:102B000006F09CFE684806F0A1FE0421734809F017
:102B1000EBFB0B2007F09AFD002301460A226248D6
:102B200006F0ACFE0C2007F091FD002301460A22BE
:102B30005D4806F0A3FE142007F088FD002301463F
:102B40000A22594806F09AFE152007F07FFD0A2256
:102B500001460023544806F091FE0621604809F022
:102B6000C3FB2368D8074BBF012101215D485E48A4
:102B700009F0BAFB236899074BBF0121012159488D
:102B8000594809F0B1FB23685A074BBF01210121C5
:102B90005448554809F0A8FB23681B074BBF012187
:102BA00001215048504809F09FFB04214F4809F08B
:102BB0009BFB112007F04AFD002301460A223A48F8
:102BC00006F05CFE102007F041FD002301460A22BA
:102BD000354806F053FE122007F038FD0023014669
:102BE0000A22314806F04AFE132007F02FFDBDE807
:102BF0007040014600232C480A2206F03FBE1121F6
:102C00003B4809F071FB73E70A213A4809F06CFB75
:102C100069E70E21384809F067FB5EE7072137486E
:102C200009F062FB4FE70621354809F05DFB4AE7F2
:102C30000721344809F058FB45E70721324809F0DD
:102C400053FB40E70821314809F04EFB3BE70B21DD
:102C50002F4809F049FB36E71848FEF783FEE16884
:102C60000AF0C0FB00283FF425AF124B1B78052B60
:102C70006AD10A21274809F037FB1BE7FEF74CFE13
:102C8000216A0AF0CDFB00285ED01621224809F007
:102C90002BFB0A211F4809F027FB0BE70F211F48D8
:102CA00009F022FBCCE600BFFC89FF1FDCD0FF1F30
:102CB0001C43010038CFFF1F2C430100F091FF1F80
:102CC000B4D1FF1FBC430100B091FF1FFC500100B5
:102CD000E891FF1FB8CFFF1F40CFFF1F2C4401001A
:102CE000344401003C4401004044010044440100DC
:102CF000184401000C440100FC430100F4430100AE
:102D0000C4430100CC430100E0430100E84301005B
:102D1000D4430100A44301008C4301003843010067
:102D200011210C4809F0E0FAA4E60E210A4809F046
:102D3000DBFA8EE60D21094809F0D6FAACE60C2143
:102D4000074809F0D1FA9EE60821064809F0CCFAB6
:102D5000B0E600BF58430100484301007C43010036
:102D60006C430100B04301002DE9F047B54CD4F8A5
:102D70008060012E8CB000F04481032E5CD0DFF81F
:102D8000C882B24FB24EE36FB248012B09BF31681F
:102D9000316801F10041316006F0FCFA3B68002B1C
:102DA00040F01581AB4806F0C9FA3B68C8F800004E
:102DB0000546002B40F0FB80D4F88030012B00F05A
:102DC000BA80A54928460AF02BFB30B9A34928460A
:102DD0000AF008FB002800F0E081DFF884A2DFF8A9
:102DE0008492DAF800300A930A98D9F800309E4F9E
:102DF000C01A0AF001F929460AF056F99B490AF06F
:102E000007FA9A490AF004FA39680AF045F8DAF83C
:102E100000300993099B3860C9F80030D4F8B40039
:102E20000AF0EEF829460AF03FF90023C8F800003E
:102E300033600CB0BDE8F0878D4D8E4F2A68DFF807
:102E40000882D2F8840001230F213B6006F060F96C
:102E50003B687E4F012B3B6800F02C81002B40F03B
:102E6000AF812B68DFF81092D3F88400436B1E69A2
:102E7000B6B2C9F8006005F093FEB4F88A2040F6B7
:102E8000E44306FB03F3B3FBF0F0801A00B20AF050
:102E9000B7F87A490646D4F890000AF005F90146D9
:102EA00030460AF0B5F9D9F80030694E632B30602E
:102EB00000F37A81002333603B68002B3FF463AF5B
:102EC00002216F4809F010FA2B68D9F80050D3F8A6
:102ED000840040F6E44303FB05F505F061FEB5FB15
:102EE000F0F00AF089F80546B4F88A000AF088F88C
:102EF0000146284609F0CEFF09F0B2FE022502463F
:102F00000B4600955F4806F0C3FC29465C4809F073
:102F1000EBF9306809F0A4FE009502460B465948CB
:102F200006F0B6FC2946584809F0DEF9294654480F
:102F300009F0DAF927E74F4B1B68012B00F0758188
:102F4000022B7FF46BAFD4F88C7038460AF058F837
:102F500029460AF047FA40B978420AF051F8294662
:102F60000AF05EFA002800F0CE81DFF8F4A0DFF866
:102F7000F490DAF8003007930798D9F800303A4F08
:102F8000C01A0AF039F829460AF08EF837490AF0D3
:102F90003FF936490AF03CF9396809F07DFFDAF863
:102FA00000300693069B3860C9F8003036E709F018
:102FB00057FE0B46022102460091324806F068FC9B
:102FC0003248042109F090F9D8F80050F4E621487D
:102FD00006F0B4F909F044FE0B46022102460091C6
:102FE000284806F055FC0321294809F07DF9D4F85A
:102FF0008C10244806F022FC0321254809F074F9BE
:10300000D0E6DFF84480D4F88C70D8F80050384609
:1030100009F0F6FF29460AF003FA00283AD0784270
:1030200009F0EEFF014628460AF0FAF990B3104D78
:10303000104F28683E604FF0FF320F2105F05AFD17
:1030400006E700BFDCD0FF1FC8CFFF1FCCCFFF1F9C
:10305000C091FF1F10D0FF1F0000FA430000FAC309
:10306000C4D3FF1F04D0FF1FE491FF1F00007A4468
:10307000DC91FF1F7888FF1FBCD1FF1FACC527372D
:10308000FC500100FC89FF1F884401008C440100B2
:10309000F83D01009F4FA04D02233B602B680E219D
:1030A000D3F8840006F034F83B689C4F012B3B6852
:1030B0007FF4D4AE002B40F0E5802B68DFF86092FF
:1030C000D3F88400436B1E69B6B2C9F8006005F0FE
:1030D00067FDB4F8883040F6E44A0AFB06F6B6FB12
:1030E000F0F6F01A00B209F08BFF8E490646D4F8CC
:1030F000940009F0D9FF014630460AF089F82B68A0
:10310000894E0246D3F88400D9F8003032600AFBB9
:1031100003FA05F045FDB4F88820BAFBF0F31BB2C2
:103120009B1A002BB4F8C220B8BF5B429A42C4BFBE
:10313000002333603B68002B3FF425AE02217B481F
:1031400009F0D2F82B68D9F80050D3F8840040F683
:10315000E44303FB05F505F023FDB4F88810B5FB47
:10316000F0F52DB2691A724806F068FB02216F482B
:1031700009F0BAF8306809F073FD022502460B46E3
:1031800000956B4806F084FB03216A4809F0ACF80F
:103190002946664809F0A8F8F5E5674B1B680B93CC
:1031A000664B0B9A1A6039E62B68D3F8840005F059
:1031B000F7FCD9F8003064389842FFF47BAE7BE628
:1031C0005B48DFF85C9106F041FB0C215C4809F09C
:1031D0008BF85C480C2109F087F82B683A68D3F823
:1031E0008400436B1E69B6B2C9F80060002A3FF440
:1031F00042AE05F0D5FC40F6E442002306FB02F2A5
:10320000B2FBF0F10A224A4806F038FB0221474897
:1032100009F06AF8B4F88A10454806F00FFB2B68ED
:10322000D9F80060D3F8840025E6474928460AF01B
:10323000F7F828B9454928460AF0D4F800285BD0A9
:10324000DFF8F4A0DFF8F490DAF800300493049883
:10325000D9F800303E4FC01A09F0CEFE294609F0D9
:1032600023FF3C4909F0D4FF3A4909F0D1FF3968FE
:1032700009F012FEDAF800300393039B3860C9F8B6
:103280000030CBE52A48DFF8989006F0DFFAD4F852
:103290008030012B0CBF304830480B2109F024F856
:1032A00028480C2109F020F82A683B68D2F88400ED
:1032B000426B1669B6B2C9F80060002B3FF407AF45
:1032C00005F06EFC40F6E44306FB03F30A22B3FB71
:1032D000F0F10023164806F0D1FA0121204809F048
:1032E00003F8B4F88810124806F0A8FA2B68D9F849
:1032F0000060D3F88400EAE60F4B1B6805930F4B80
:10330000059A1A608AE50C4B1B6808930B4B089AC8
:103310001A6083E57888FF1FDC91FF1FCCCFFF1F69
:10332000BCD1FF1FACC52737C091FF1FFC50010067
:10333000FC89FF1F74440100C4D3FF1F04D0FF1F8A
:1033400078440100644401000000FA430000FAC31D
:10335000E491FF1F00007A444C44010058440100EE
:10336000184301002DE9F04FA94DAA4C2B68012B01
:1033700087B000F00A81A84EA84FDFF8A492D9F8D0
:103380000030002B00F0A680D4F85CB0A56DDFF80B
:103390009482A549386809F087FE05FB0BF5814644
:1033A0004FF47A7005FB00F009F02AFE014648460A
:1033B00009F02EFF9D4909F077FE0AF03BF8D4F89A
:1033C00084303060012B054656D0D4F88030002B75
:1033D00052D0632D73DDA36DE06D03FB00F04FF45D
:1033E0007A7303FB00F009F00BFE8F4909F010FF20
:1033F00064233360D8F800303860002B67D0D4F8ED
:103400008030012B00F0E880032B00F0F380022BCA
:1034100000F0F9800221864808F066FF854B1868A5
:1034200009F01EFC022402460B460094824806F076
:103430002FFA2146814808F057FF21467C4808F0C2
:1034400053FF31687C4806F0F9F906217C4808F002
:103450004BFF3868744909F027FE09F001FC00941D
:1034600002460B46744806F013FA7648032107B06B
:10347000BDE8F04F08F038BF7348FEF74DFA7349C6
:1034800009F012FE09F0FCFFA56F626FE16E236F79
:10349000009580B2FEF7C8FF05463060E06DA36D71
:1034A00005FB00F003FB00F000EB8000400009F09A
:1034B000A7FD5D4909F0ACFE632D38608BDC002D63
:1034C000BCBF00233360D8F80030002B97D107B081
:1034D000BDE8F08FDFF878A1DAF80030002B37D0A4
:1034E000D4F85CB0A56DDFF83C81012B7FF451AFBF
:1034F000306800FB0BF005FB00F000EB8000554D41
:10350000400009F07DFD484909F082FE2B680493D4
:10351000049A386042F228339A4200F2E2802B6823
:103520000593059A42F210739A420DD9D8F80030EB
:103530000122C9F80020002B40F0DB80D4F8A8302D
:10354000012B04BF444A1370D4F85CB0A56D20E78A
:10355000404D2A680292029A42F228339A4200F2BF
:10356000B8802B680393039A42F210739A427FD873
:10357000D9F80030D4F85CB0A56DDFF8A880002B36
:103580007FF407AFDAF80030AFE72F48FEF7C4F951
:103590002E49666F276F09F087FD09F071FF3246EB
:1035A000A66FE16E00963B4680B2FEF73DFF1A4ED5
:1035B000E36D306003FB00F0A36D184F03FB00F0D8
:1035C00000EB8000400009F01BFD174909F020FEC8
:1035D000002338602B60D0E6204B1B68012B0CBF0A
:1035E0001F4820480A2108F07FFED4F88030032BC2
:1035F0007FF40DAF1C48102108F076FED4F880301F
:10360000022B7FF407AF0721184808F06DFE01E791
:10361000C891FF1FDCD0FF1F2888FF1FE491FF1F08
:10362000CC91FF1F4C88FF1FE4388E3E0000C8423B
:10363000FC500100C8CFFF1FFC89FF1F8844010018
:10364000244501002C450100F091FF1F00007A4441
:10365000C491FF1FC4D3FF1F38CFFF1F7888FF1FFF
:10366000F0440100FC440100084501001C45010034
:103670003448DFF8D480FEF74FF9344909F014FDDF
:1036800009F0FEFEA56F236F626FE16E009580B2B8
:10369000FEF7CAFED4F85CB0A56D30600BFB00F0FD
:1036A00005FB00F000EB8000400009F0A9FC284970
:1036B00009F0AEFDD8F8003038600122C9F80020CA
:1036C00033BBD4F8A830012B7FF463AE214A1370CA
:1036D0005FE6236D626C94F840101A48FEF770F9AB
:1036E0003FE7236D626C94F840101648FEF768F9C6
:1036F00015E70221184808F0F7FD184806F0A6F86B
:103700005921174808F0F0FD144806F09FF815E716
:103710000221114808F0E8FD104806F097F85921F9
:103720000F4808F0E1FD0D4806F090F8D4F8A830F5
:10373000D4F85CB0A56D012B04BF064A1370D9F80C
:1037400000301CE7F091FF1F4C88FF1F00007A44F7
:10375000E4388E3E38CFFF1FFC500100FC89FF1F6C
:103760009444010030B5112083B006F06FFF0128AA
:1037700004D0122006F06AFF012822D10121152071
:1037800006F03EFF2A4B2B4A2B4C1B682B4D116831
:1037900001930222D4F898302A60019A0B44934294
:1037A00008D8D4F8A00009F02BFC254B196809F0C3
:1037B00019FED0B101210C2003B0BDE8304006F065
:1037C0001FBF00210B2006F01BFF00210C2006F07C
:1037D00017FF0021152006F013FF1A49174B01208F
:1037E000002208701A6003B030BD01210B2006F0E2
:1037F00007FF94F8C83003242C604BB1114B022210
:103800001A7000210C2003B0BDE8304006F0F8BE6D
:10381000122006F01BFF012808BF0A4B4FF01100D1
:1038200008BF1C7006F012FF0128EAD1E6E700BFCE
:10383000C4D3FF1FB891FF1FDCD0FF1FB4CFFF1F01
:10384000C8CFFF1F38CFFF1FF0B5714E714C3368E2
:103850002568AB4287B02DD013F001014BD013F097
:1038600002015FD013F0040151D0DA070ED52268AF
:10387000D7070BD4684D2A68002A00F09380674B65
:103880001B680193019B93427FD833689D0714D432
:10389000590722D5226852070DD4614F3A68002A91
:1038A00000F09E805D4B1B680593059B934200F2E0
:1038B00086803568A5B107B0F0BD226890073DD479
:1038C000584D2A68002A49D0544B1B680393039B28
:1038D0009A4236D333685907DCD41D46002DEAD10D
:1038E0002946162006F010FD2946172007B0BDE82E
:1038F000F04006F009BD162006F006FD2268336888
:1039000002F0FE0213F002012260ABD10AE00520B2
:1039100006F0FAFC2268336802F0FB022260DA0744
:10392000B4D5A4E7172006F0EFFC2268336802F054
:10393000FD0213F00401226097D1E8E75B07AAD4E7
:10394000B9E7394B1720D3F89C1006F0DDFC23684B
:10395000002243F0020323602A60BBE7334805F0EE
:1039600075FF0C21324808F0BFFC304805F06EFFAF
:10397000FF21172006F0C8FC284B2E491A68029236
:10398000029A09680A442A609FE7274B1620D3F859
:103990009C1006F0B9FC2368002243F00103236069
:1039A0002A6072E7FF21162006F0AEFC1B4B21496E
:1039B0001A680092009A09680A442A6060E71A4B64
:1039C0000520D3F89C1006F09FFC23683568002280
:1039D00043F0040323603A60002D7FF46CAF7FE76F
:1039E000124805F033FF0C21134808F07DFC0F4806
:1039F00005F02CFFFF21052006F086FC074B0D4942
:103A00001A680492049A09680A443A604BE700BFB6
:103A1000B4CFFF1FB8CFFF1FBCCFFF1FC4D3FF1F02
:103A2000C4CFFF1FC0CFFF1FDCD0FF1FFC89FF1FCB
:103A3000304501006888FF1F404501002DE9F84F1F
:103A4000544EDFF854A13368DFF85091D3F8840066
:103A5000534D0F2105F05CFB0123CAF8003051489B
:103A600000232221C9F8003008F03EFCD9F80030CC
:103A7000132B21DC4C4F40F6E4483368B5F888B08E
:103A8000D3F88400436B1C6905F08AF8A4B20121C5
:103A900008FB04F4B4FBF0F43846A344A5F888B05E
:103AA00008F022FC642006F03BFED9F80030013318
:103AB000132BC9F80030E0DDB5F888303B493C48AD
:103AC000A1FB03215B1A01EB5301C1F30F11A5F810
:103AD000881005F0B3FE1D21364808F005FC0221D0
:103AE000354808F001FC324805F0B0FE0023C9F863
:103AF000003033680E21D3F8840005F009FB02235F
:103B00002848CAF80030222108F0EEFBD9F800302E
:103B1000132B22DCDFF8908040F6E4473368B5F8D9
:103B20008AA0D3F88400436B1C6905F039F8A4B26D
:103B3000012107FB04F4B4FBF0F44046A244A5F8CD
:103B40008AA008F0D1FB642006F0EAFDD9F8003025
:103B50000133132BC9F80030E0DDB5F88A30134982
:103B60001348A1FB03215B1A01EB5301C1F30F11B1
:103B7000A5F88A1005F062FE1D21104808F0B4FB7C
:103B80000D48022108F0B0FBBDE8F84F084805F0E9
:103B90005DBE00BFDC91FF1F7888FF1FCCD1FF1FE7
:103BA000DCD0FF1F50450100744501008761188675
:103BB000FC89FF1F78450100FC5001009845010079
:103BC000F8B59F4DD5F8B830072B00F05D819D4BBF
:103BD0009D4C1B68686D40F2513108222160E271F2
:103BE000002B00F0288109F00BFA296A064609F03B
:103BF0005BFA964909F058FA09F042FCC2B2227207
:103C0000934AA969C0F30723637213886381914BB8
:103C100030461B88A38109F047FA8C4909F044FA21
:103C200009F02EFC884903468B48E38104F03EFDF1
:103C30008A4A894813681288228103EB8303884AE1
:103C400008265B0040F255311288216000277E492A
:103C50002373334162816373E671E78104F026FDCB
:103C600040F256337F482360E671FDF79FFE7E49A0
:103C700009F01AFA09F004FC20727A48FDF796FE62
:103C8000794909F011FA09F0FBFB784B7649C0F34A
:103C900007206072186809F0BBFA09F0CBFB60815D
:103CA0007048FDF7B1FE694909F0FEF909F0C2FB61
:103CB00020736C48FDF7A8FE644909F0F5F909F096
:103CC000B9FB40F30720604960736348E78104F063
:103CD000EDFC022006F024FD40F25A332360644BD1
:103CE00059491B68A360634B5B481B68E360E6713E
:103CF00004F0DCFC40F25E3323605F4B52491A68EB
:103D000055485B68A260E360E67104F0CFFC0220D6
:103D100006F006FD4FF45C732360584B4A491A685D
:103D20004D485B68A260E360E67104F0BFFC0220CE
:103D300006F0F6FC40F273334A482360E671FDF763
:103D4000EBFD4F4909F0B0F909F09AFB20724548A4
:103D5000FDF7E2FD4A4909F0A7F909F091FBC0F32C
:103D6000072060723F48FDF7FDFD454909F09CF9C9
:103D700009F086FBA0723B48FDF7F4FD404909F0CD
:103D800093F909F07DFBC0F30720E0723548FDF799
:103D90009BFE3C4909F080F809F072FB2073314822
:103DA000FDF792FE374909F077F809F069FBC0F397
:103DB000072060732B48FDF785FE324909F06CF847
:103DC00009F05EFBA0732748FDF77CFE2D4909F042
:103DD00063F809F055FBC0F307201B49E0731E4848
:103DE00004F064FC022006F09BFC40F27933EA6D9B
:103DF0002360AB6D13FB02F302202372C3F307238E
:103E0000E071637206F08CFC40F272331548236057
:103E1000E671FDF7CDFD034612482372FDF7C8FD9C
:103E200040FA06F363726781E76007490A48BDE814
:103E3000F84004F03BBC09F0E3F86969D6E600BF3E
:103E4000DCD0FF1FB4D1FF1F38D0FF1F000020417E
:103E500044CFFF1FD0CFFF1FD0D1FF1F2888FF1FE7
:103E60002C88FF1FF091FF1F0000C842C8CFFF1F22
:103E7000E091FF1FC8D1FF1F3888FF1F3088FF1F48
:103E800000007A4433938843554C564BE36040F22C
:103E9000593200230826214653482260A360E67168
:103EA00004F004FC022006F03BFC504B686D1B68DC
:103EB000E67140F251322260002B00F08D8009F053
:103EC0009FF8296A09F0F0F8494909F0EDF809F07E
:103ED000D7FA484A484B12881B886281C1B2C0F3A6
:103EE00007200025217260723D493F48A381E5818A
:103EF00004F0DCFB022006F013FC404B404A1B8818
:103F0000128837496381082640F2553336482281AA
:103F10002360E560E67104F0C9FB022006F000FCB6
:103F200040F2563337482360E671FDF73FFD3649CE
:103F300009F0BAF809F0A4FA034632482372FDF7F3
:103F400035FD314909F0B0F809F09AFA2F4A2E49A7
:103F50000346C3F307231068637209F059F909F0A7
:103F600069FA034627486381FDF74EFD204909F0B1
:103F70009BF809F05FFA034622482373FDF744FDDE
:103F80001B4909F091F809F055FA1549E58140F30C
:103F900007231548637304F089FB022006F0C0FB79
:103FA0004FF4577302250E4923600F48E571C02373
:103FB000238104F07BFB284606F0B2FB144B154A24
:103FC000E57140F25E312160227263720449064855
:103FD000BDE8F84004F06ABB09F012F8696971E7BE
:103FE00038D0FF1F01504E00D0D1FF1FB4D1FF1FAA
:103FF0000000204144CFFF1FD0CFFF1F2C88FF1FA0
:104000002888FF1FF091FF1F0000C842C8CFFF1F84
:10401000B8450100A04201002DE9F041A64CA74D92
:1040200082B008F0F3F823682860042B5DD0022BDF
:1040300040F06681A0F13102422A4AD8DFE812F04E
:104040009E041A055005270541056A0577055D059B
:104050004900490049004900490049004900490018
:104060004900490049004900490049004900490008
:1040700049004900490049004900490049004900F8
:1040800049004900490049004900490049004900E8
:1040900049004900490049004900490049004900D8
:1040A000490049005C0149004900490049004900B4
:1040B00049004900490049004900490049004900B8
:1040C000450049008505712803D100237320236032
:1040D0002860002B08BF73280CBF01230023002B8E
:1040E00040F08C8002B0BDE8F081A0F13102402A9E
:1040F000EFD801A151F822F0794900006B48000087
:10410000F548000011490000154900002F49000042
:104110004F4900005349000057490000D3400000B8
:10412000D3400000D3400000D3400000D340000043
:10413000D3400000D3400000D3400000D340000033
:10414000D3400000D3400000D3400000D340000023
:10415000D3400000D3400000D3400000D340000013
:10416000D3400000D3400000D3400000D340000003
:10417000D3400000D3400000D3400000D3400000F3
:10418000D3400000D3400000D3400000D3400000E3
:10419000D3400000D3400000D3400000D3400000D3
:1041A000D3400000D3400000D3400000D3400000C3
:1041B000D3400000D3400000D3400000D1460000AF
:1041C000D3400000D3400000D3400000D3400000A3
:1041D000D3400000D3400000D3400000D340000093
:1041E000D3400000D3400000D3400000D340000083
:1041F000D3400000D3400000CB400000304E314897
:1042000005F024FB0421304808F06EF82D4805F035
:104210001DFB10212D4808F067F82A4805F016FB11
:1042200013212B4808F060F82A4B2648196805F03E
:1042300005FB244805F00AFB1421274808F054F830
:10424000204805F003FB1E21244808F04DF81D48C6
:1042500005F0FCFA1521224808F046F8194805F047
:10426000F5FA1E211F4808F03FF8164805F0EEFA4F
:1042700020211D4808F038F8124805F0E7FA192106
:104280001A4808F031F80F4805F0E0FA12211848F2
:1042900008F02AF80B4805F0D9FA0D21154808F066
:1042A00023F8084805F0D2FA002201233260236087
:1042B00002B0BDE8F08100BF34D0FF1FF8CFFF1F70
:1042C0004C88FF1FFC89FF1F884F0100904F0100A1
:1042D000A44F01005888FF1FB84F0100D04F0100C4
:1042E000F04F010008500100285001004C5001001F
:1042F000685001007C500100FFF7A0FB236828688C
:10430000082B71D1322868D071283FF4DEAE3128F5
:104310007FF4DFAE07F0B6FF002800F3C581974EAB
:1043200096F84010336D726C032984BF002186F823
:1043300040109348FDF744FB0122692322602B6063
:1043400001E007F063FF07F09DFF05460028F8D164
:104350008C4805F07BFA8B4805F078FA894805F01F
:1043600075FA884805F072FA864805F06FFA15214B
:10437000854807F0B9FF834805F068FA182183489B
:1043800007F0B2FF2B460A2296F840107D4805F050
:1043900075FA7C4805F05AFA28217D4807F0A4FFF9
:1043A000706C7C4908F080FE08F05AFC00950B46C2
:1043B0000246744805F06CFA0221774807F094FF32
:1043C000704805F043FA1321744807F08DFF6D48DB
:1043D00005F03CFA0823236084E607F053FF002829
:1043E00000F3538123682868072B14D134283FF742
:1043F0006AAE30287FF76DAE3238022801F293841E
:10440000DFE800F09802AC0007F03CFF002800F362
:10441000538123682868062B40F0AC83A0F1300359
:10442000412B00F2748601A252F823F0BF4F000026
:104430006B4E0000674B0000EB500000C7500000BF
:10444000AB5000008B500000755000000F51000071
:10445000455000000F5100000F5100000F510000A7
:104460000F5100000F5100000F5100000F510000CC
:104470000F5100000F5100000F5100000F510000BC
:104480000F5100000F5100000F5100000F510000AC
:104490000F5100000F5100000F5100000F5100009C
:1044A0000F5100000F5100000F5100000F5100008C
:1044B0000F5100000F5100000F5100000F5100007C
:1044C0000F5100000F5100000F5100000F5100006C
:1044D0000F5100000F5100000F5100000F5100005C
:1044E0000F5100000F5100000F5100000F5100004C
:1044F0000F5100000F5100000F5100000F5100003C
:104500000F5100000F5100000F5100000F5100002B
:104510000F5100000F5100000F5100000F5100001B
:104520000F5100000F5100000F5100000F5100000B
:10453000CB40000007F0A6FE00287FF76AAF1148C5
:104540000E4E05F0E1FA08F05BFD154908F0ACFDF0
:10455000012323606123F0632B6025E007F092FEC6
:1045600000287FF756AF0748044E05F0CDFA012327
:1045700023606123A6F8CA002B6015E0DCD0FF1F82
:10458000F091FF1FFC89FF1F50500100E045010022
:10459000FC45010000007A44284601002C46010039
:1045A0006F12833A07F032FE07F06CFE05460028D2
:1045B000F8D1AF4805F04AF9AD4805F047F9AC48E5
:1045C00005F044F9AA4805F041F9A94805F03EF97B
:1045D0001F21A84807F088FEA54805F037F91C21DF
:1045E000A54807F081FE706AA44908F05DFD08F057
:1045F00037FB009502460B469D4805F049F902211C
:104600009F4807F071FE9A4805F020F923219D4844
:1046100007F06AFEF06B994908F046FD08F020FBB0
:10462000009502460B46924805F032F90221944863
:1046300007F05AFE8E4805F009F91921924807F053
:1046400053FEB06B08F00CFB02250B4602460095AA
:10465000874805F01DF929468C4807F045FE844837
:1046600005F0F4F822218A4807F03EFEB6F8CA1099
:104670007F4805F0E3F80321864807F035FE7C48C3
:1046800005F0E4F8072323602CE57948824E05F015
:104690003BFA08F0B5FC814908F006FD336D96F849
:1046A00040107064024644E671487B4E05F02CFAD7
:1046B000C1B286F8401035E66D48774E05F024FA11
:1046C00008F09EFC012323606123B0632B606BE73D
:1046D000734A1368B3FA83F3642001215B092160F4
:1046E00013602860A0F152031F2B00F2BC80DFE8AA
:1046F00013F0B405BA00BA00BA00BA00BA00BA00A2
:10470000BA00BA00BA00BA00BA00BA00BA00BA00D9
:10471000B105B605030B2200FA0ABA00BA00BA00C6
:10472000F70ABA00060BBA00BA00BA00BA00BA001B
:10473000A10507F06BFD07F0A5FD0028F9D14C4855
:1047400005F084F84A4805F081F8494805F07EF8FC
:10475000474805F07BF8464805F078F813215148A2
:1047600007F0C2FD424805F071F80D214E4807F0F0
:10477000BBFD3F4805F06AF80F214C4807F0B4FD37
:104780004B4B3B48196805F059F8394805F05EF87D
:104790001321484807F0A8FD474B3548196805F034
:1047A0004DF8334805F052F81221444807F09CFDBB
:1047B000434B2F48196805F041F82D4805F046F89D
:1047C0001121404807F090FD3F4B2948196805F03A
:1047D00035F8274805F03AF80E213C4807F084FDEB
:1047E0002D4B2348D3F8A81005F028F8204805F0F1
:1047F0002DF81921364807F077FD364B1C4819680B
:1048000005F01CF81A4805F021F81121324807F08C
:104810006BFD324B1648196805F010F8144805F086
:1048200015F810212E4807F05FFD2E4B104819682F
:1048300005F004F80E4805F009F81C212A4807F095
:1048400053FD2A4B0A48196804F0F8FF084804F0A1
:10485000FDFF1321264807F047FD054804F0F6FF49
:10486000042323603EE4236833E4134A31E700BFA6
:10487000FC89FF1F144801003448010000007A44FD
:10488000284601005448010078480100F047010023
:1048900094480100B8480100DCD0FF1F6F12833A32
:1048A000EC91FF1FC8490100DC490100EC490100FF
:1048B0003CCFFF1FFC490100CCCFFF1F104A010075
:1048C000C8D0FF1F244A0100FCCFFF1F384A010057
:1048D000484A010040CFFF1F644A0100E0CFFF1F9C
:1048E000784A0100A491FF1F8C4A01005088FF1FE5
:1048F0002C460100A94B1A680121002A0CBF0A4668
:10490000002221601A6041F0508164202860E9E6AD
:10491000A34ADEE6A34ED6F8A830B3FA83F36420A8
:1049200001225B092260C6F8A8302860DAE601237C
:104930009D482360FCF77CFD9C4B64221860236833
:104940002A60082B40F023876420FFF7C2BB984AF7
:10495000BFE6984ABDE60123236007F093FC0028D8
:1049600001F31481944B18680428C4BF02221A6012
:10497000642223682A60E4E7904AAAE6894EF36F2E
:10498000B3FA83F35B090122F367632322602B6090
:1049900001E007F03BFC07F075FC0028F9D18848DE
:1049A00004F054FF864804F051FF854804F04EFFA0
:1049B000834804F04BFF824804F048FF1F218148E0
:1049C00007F092FC7E4804F041FF1E217E4807F06C
:1049D0008BFC7B4804F03AFF7C481A2107F084FCEA
:1049E000D6F88030022B01F00A81032B01F0FE8003
:1049F000012B01F0F2807648092107F075FC704820
:104A000004F024FF1421734807F06EFCF16F6C482A
:104A100004F014FF6A4804F019FF1C216E4807F0E7
:104A200063FCD6F88410664804F008FF644804F07C
:104A30000DFF1C21694807F057FCD6F8B4106048F8
:104A400004F0FCFE5E4804F001FFD6F8805025F02B
:104A50000207012F00F0B786022D01F0D980132143
:104A60005F4807F041FC564804F0F0FE0223236043
:104A7000FFF738BB4B4ED6F88430B3FA83F35B09AB
:104A80000122C6F88430632322602B6083E7012370
:104A9000236007F0F7FB002807DD4948414E05F089
:104AA00033F808F0ADFAC6F8940023686320072BAA
:104AB00028603FF40EAB052B41F018810523FFF76A
:104AC00008BB0123236007F0DDFB0028EDDD3C4837
:104AD000344E05F019F808F093FAC6F89000E4E7B0
:104AE0000123236007F0CEFB002801F356802D4EF2
:104AF0000122632322602B604DE70123236007F02E
:104B0000C1FB0028F3DD2E48264E04F0FDFFC6F859
:104B10008C00EDE70123236007F0B4FB0028C4DD1F
:104B20002748204E04F0F0FFA6F8C200BDE71D4E56
:104B3000D6F8D43001221344052BA8BF13462260B7
:104B40006322C6F8D4302A6025E7164ED6F88030A6
:104B500001221344042B2260A8BF00236322C6F85D
:104B600080302A6017E707F08DFB002800F3FE87EE
:104B700023682868052B3CD1362800F3CD853028E2
:104B80007FF7A7AA3238042801F2BC80DFE810F0D2
:104B90005D014001C2002A00500100BFC8D0FF1FC4
:104BA000FCCFFF1FDCD0FF1FF091FF1F40CFFF1F86
:104BB000E0CFFF1FA491FF1F5088FF1F3CCFFF1FB6
:104BC000FC89FF1FAC4A0100CC4A0100EC4A0100FD
:104BD000644B0100704B0100884B0100A84B0100A1
:104BE0002C46010007F04EFB002800F35B8623688B
:104BF0002868032B40F0C685A0F13002422A3FF618
:104C000068AA01A151F822F0135A00003D5A000091
:104C1000F3590000395B00001F5B0000FF5A0000E1
:104C2000C55A0000AF5A0000935A0000735A0000A2
:104C3000D3400000D3400000D3400000D340000028
:104C4000D3400000D3400000D3400000D340000018
:104C5000D3400000D3400000D3400000D340000008
:104C6000D3400000D3400000D3400000D3400000F8
:104C7000D3400000D3400000D3400000D3400000E8
:104C8000D3400000D3400000D3400000D3400000D8
:104C9000D3400000D3400000D3400000D3400000C8
:104CA000D3400000D3400000D3400000D3400000B8
:104CB000D3400000D3400000D3400000D3400000A8
:104CC000D3400000D3400000D34000005D5A0000F4
:104CD00079570000E758000013590000FD58000004
:104CE000855900002F57000053570000D3400000A3
:104CF000535B0000D1590000D3400000D3400000B6
:104D0000D3400000D3400000D3400000C35900004E
:104D1000B958000007F0B6FA00287FF768AFB4482A
:104D2000B44E04F0F1FEB44BC6F8AC0002221A6097
:104D3000FDF73CFD01226B2322602B6001E007F0B0
:104D400065FA07F09FFA0028F9D1A94804F07EFD22
:104D5000A74804F07BFDA64804F078FDA44804F0C1
:104D600075FDA34804F072FD2121A44807F0BCFAA8
:104D70009F4804F06BFD1521A14807F0B5FAD6F85D
:104D800098109B4804F05AFD02219E4807F0ACFAA7
:104D9000974804F05BFD1E219B4807F0A5FAD6F862
:104DA000A010934804F04AFD0321984807F09CFAAC
:104DB0008F4804F04BFD1E21954807F095FAD6F870
:104DC0009C108B4804F03AFD894804F03FFD1D21FA
:104DD000904807F089FAD6F8AC10854804F02EFD0B
:104DE000834804F033FD1E218B4807F07DFAD6F886
:104DF000B0107F4804F022FD7D4804F027FDD6F86E
:104E0000A830012B00F0198705232360FFF76AB94A
:104E100007F038FA00287FF7EAAE7548754E04F0BF
:104E200073FE012323606B23C6F89C002B6088E788
:104E3000704E96F8C9300122B3FA83F322605B0901
:104E40006B2286F8C9302A607BE707F01BFA00283E
:104E50007FF7CDAE6648674E04F056FE012323600F
:104E60006B23C6F8A0002B606BE707F00BFA002855
:104E70007FF77EAE5E485F4E04F046FE08F0C0F855
:104E8000664908F0C5F901232360652370612B6032
:104E900001E007F0BBF907F0F5F905460028F8D165
:104EA000534804F0D3FC524804F0D0FC504804F0BE
:104EB000CDFC4F4804F0CAFC4D4804F0C7FC11215A
:104EC000574807F011FA4A4804F0C0FC2821554819
:104ED00007F00AFA7069514908F0E6F807F0C0FED9
:104EE000009502460B46424804F0D2FC02214E488F
:104EF00007F0FAF93E4804F0A9FC16214B4807F0E8
:104F0000F3F9F069454908F0CFF807F0A9FE0095DC
:104F10000B460246364804F0BBFC0221424807F02B
:104F2000E3F9334804F092FCD6F8B830002B32DDB8
:104F30001D213F4807F0D8F9306E08F061F83D496F
:104F400008F0B2F807F08CFE022502460B4628480E
:104F5000009504F09DFC0121374807F0C5F924486D
:104F600004F074FC1F21354807F0BEF9706E08F09C
:104F700047F8304908F098F807F072FE00950246AD
:104F80000B461B4804F084FC2B48012107F0ACF9C8
:104F9000174804F05BFC2A48112107F0A5F9D6F860
:104FA000B830082B00F2BA80DFE813F03A013F0175
:104FB000350130012B01260121011C01B40007F04D
:104FC00061F900287FF7D4AD09480A4E04F09CFD32
:104FD00000EB8000326E43001BB29342A6F8D03043
:104FE000C8BFA6F8D0206523012222602B6052E7BB
:104FF000FC89FF1FDCD0FF1FE0CFFF1FBC48010072
:10500000E048010084470100F848010074440100B1
:1050100018490100384901005849010000007A444C
:10502000F44F010040460100284601006C46010093
:1050300084460100CDCCCC3DEC4B0100A4460100E0
:10504000C446010007F01EF900287FF791AD85489E
:10505000854E04F059FD07F0D3FFF76A39468046C4
:1050600008F0C0F900B94746012323606523376380
:105070002B6010E77C4E96F8C83001225340226026
:10508000652286F8C8302A6005E707F0FBF800289B
:105090007FF76EAD7348744E04F036FD0123236034
:1050A0006523C6F8BC002B60F5E66F4ED6F8B83025
:1050B00001221344092B2260A8BF00236522C6F8F1
:1050C000B8302A60E7E607F0DDF800287FF750AD3A
:1050D0006448654E04F018FD00EB8000400001229A
:1050E0006523706622602B60D5E607F0CBF80028B8
:1050F0007FF73EAD5B485C4E04F006FD00EB8000A0
:10510000400001226523306622602B60C3E606233F
:10511000FEF7DFBF5548112107F0E6F8514804F0CB
:1051200095FBD6F8B830002B12DD1821504807F057
:10513000DBF8D6F8BC104B4804F080FB02214D4848
:1051400007F0D2F8474804F081FB464804F07EFBA4
:1051500049481B2107F0C8F896F8C830002B40F0EA
:1051600023834648122107F0BFF83E4804F06EFB47
:105170001F21434807F0B8F8306B07F071FD022596
:1051800002460B463748009504F082FB29463D480D
:1051900007F0AAF8334804F059FB1E213A4807F0FB
:1051A000A3F8B6F9D00007F02BFF384907F07CFFD1
:1051B00007F056FD00950B4602462A4804F068FBAE
:1051C0000121334807F090F8264804F03FFB1321F3
:1051D000304807F089F8234804F038FB06232360A1
:1051E000FEF780BF14212C4807F07EF896E70421D3
:1051F0002A4807F079F891E70B21294807F074F85D
:105200008CE70D21274807F06FF887E70D21264826
:1052100007F06AF882E70C21244807F065F87DE77B
:105220000D21234807F060F878E70C21214807F0AA
:105230005BF873E7D82200210B481F4E04F060FD95
:105240002B6800210122732B216032607EF44AAF6B
:10525000FEF7D5BF044EFFF7A7B906F07BFB024E61
:105260002EE000BFFC89FF1FDCD0FF1F5447010068
:10527000684701008447010088470100A4470100F6
:10528000D0470100F0470100F4470100CDCCCC3DF0
:10529000EC4B01002C4601003C4701003447010063
:1052A000284701001847010008470100F84601009F
:1052B000D8460100E84601004C88FF1F06F0A6FF13
:1052C00006F0E0FF05460028F8D1C24804F0BEFA17
:1052D000C04804F0BBFABF4804F0B8FABD4804F077
:1052E000B5FABC4804F0B2FA1521BB4806F0FCFF41
:1052F000B84804F0ABFA1421B84806F0F5FFB548F9
:1053000004F0A4FA1B21B64806F0EEFFB14804F001
:105310009DFA1321B34806F0E7FFAE4804F096FA71
:10532000AC4804F093FAAB4804F090FA2021AE4860
:1053300006F0DAFFF068AD4907F0B6FE07F090FC22
:10534000009502460B46A34804F0A2FA0221A848A1
:1053500006F0CAFF0221A74806F0C6FF9D4804F0E8
:1053600075FA2121A44806F0BFFF30699F4907F074
:105370009BFE07F075FC009502460B46954804F02D
:1053800087FA02219A4806F0AFFF0221994806F0F9
:10539000ABFF904804F05AFA1F21984806F0A4FF8A
:1053A000B06A07F05DFC022702460B468948009769
:1053B00004F06EFA0121924806F096FF39468D48B6
:1053C00006F092FF834804F041FA20218D4806F050
:1053D0008BFFF06A07F044FC009702460B467D48BD
:1053E00004F056FA0121864806F07EFF39468148CE
:1053F00006F07AFF774804F029FA2321824806F064
:1054000073FFB06C794907F04FFE07F029FC009557
:1054100002460B466F4804F03BFA3946744806F0E2
:1054200063FF3946734806F05FFF6A4804F00EFADE
:105430001F21764806F058FFF06C6C4907F034FEE7
:1054400007F00EFC009502460B46624804F020FA75
:105450003946674806F048FF3946664806F044FF7B
:105460005C4804F0F3F91921694806F03DFFF16D3D
:10547000584804F0E3F93946664806F035FF3946E6
:105480005C4806F031FF534804F0E0F91821624807
:1054900006F02AFFB06E07F0B3FD604907F004FE86
:1054A00007F0DEFB009702460B464A4804F0F0F98D
:1054B00001215B4806F018FF39464E4806F014FFFC
:1054C000444804F0C3F92B21564806F00DFFB0699B
:1054D000464907F0E9FD07F0C3FB009502460B467D
:1054E0003C4804F0D5F93946414806F0FDFE3946FE
:1054F000404806F0F9FE374804F0A8F91F214A4851
:1055000006F0F2FEB16D334804F098F93946394897
:1055100006F0EAFE2F4804F099F92021434806F0EE
:10552000E3FE716D2B4804F089F93946314806F0E5
:10553000DBFE284804F08AF910213D4806F0D4FE2D
:10554000F16E244804F07AF93946294806F0CCFE79
:105550003946284806F0C8FE1E4804F077F91321A2
:10556000344806F0C1FE316F1A4804F067F9012192
:10557000314806F0B9FE39461E4806F0B5FE15481A
:1055800004F064F910212D4806F0AEFE716F114849
:1055900004F054F93946164806F0A6FE3946154877
:1055A00006F0A2FE0B4804F051F91421244806F03D
:1055B0009BFEB16F074804F041F901211E4806F037
:1055C00093FE39460B4806F08FFE024804F03EF980
:1055D000162137E0FC89FF1FD04C0100E84C010088
:1055E000004D01002C4601001C4D010000007A44D2
:1055F00028460100FC500100404D0100644D0100AF
:10560000844D0100884D0100AC4D0100D04D0100DA
:10561000F04D01000C4E0100104E0100CDCCCC3DF0
:10562000EC4B01002C4E0100584E0100784E010059
:105630009C4E0100B04E0100C44E0100C84E010056
:10564000DC4E0100B84806F04FFE306AB74907F05B
:105650002BFD07F005FB009502460B46B44804F00D
:1056600017F93946B34806F03FFE3946B24806F00E
:105670003BFEAF4804F0EAF82421B04806F034FEBF
:10568000D6F8C400A94907F00FFD07F0E9FA009524
:1056900002460B46A64804F0FBF83946A54806F03A
:1056A00023FE3946A44806F01FFEA14804F0CEF8B8
:1056B0002B21A34806F018FE706B07F0D1FA009773
:1056C00002460B469A4804F0E3F801219D4806F093
:1056D0000BFE3946984806F007FE954804F0B6F8E8
:1056E0002721994806F000FED6F8CC008F4907F034
:1056F000DBFC07F0B5FA00950B4602468C4804F037
:10570000C7F839468B4806F0EFFD894804F09EF84B
:1057100003232360FEF7E6BC71287FF4CFA98B4AF0
:1057200000237320136023602860FEF7D2BC06F0CC
:10573000A9FD00280DDD7E48854E04F0E5F907F04F
:105740005FFC7A4907F064FD012262233062226027
:105750002B6006F097FD00280EDD75487C4E04F0A6
:10576000D3F907F04DFC714907F052FD0122622385
:10577000C6F8C40022602B6006F084FD002818DC07
:1057800023682868012B7EF4A4ACFEF7ABBF072B7F
:105790003FF4DAA8062B4FF064003FF4B8AC052BB9
:1057A0003FF48CA9FFF725BA14216A4806F09CFD46
:1057B000DBE45F48664E04F0A7F9F066012262233D
:1057C00022602B607CE51C21634806F08DFDD6F835
:1057D0009400624907F068FC07F042FA009702461D
:1057E0000B46534804F054F805215D4806F07CFD53
:1057F0004F4804F02BF8D6F88050012D19D11D2107
:10580000584806F071FDD6F89000544907F04CFC5A
:1058100007F026FA009502460B46454804F038F892
:1058200005214F4806F060FD414804F00FF8D6F816
:10583000805025F00203012B7FF40EA91C214A4859
:1058400006F052FDB6F8C210394803F0F7FF032105
:10585000464806F049FD364803F0F8FFD6F8805078
:10586000012D7FF4F9A81F21414806F03DFDD6F82F
:105870008C0007F0C5FB3F4907F016FC07F0F0F974
:10588000022502460B460095294804F001F82946F6
:10589000394806F029FD264803F0D8FFD6F8805095
:1058A000FFF7DAB822482A4E04F02EF9274BC6F843
:1058B000B0000322FFF73BBA304B1F480221012200
:1058C0001A6006F011FD1A4803F0C0FF2C480B21A6
:1058D00006F00AFD022118481D4E06F005FD144889
:1058E00003F0B4FF6AE706F0CDFC00287FF748AF6D
:1058F0000F48174E04F008F930675FE706F0C2FC66
:1059000000287FF73DAF0A48114E04F0FDF8B0675C
:1059100054E706F0B7FC00287FF732AF04480C4E7E
:1059200004F0F2F8706749E7F44E010000007A4491
:10593000FC89FF1F28460100FC5001000C4F0100AC
:10594000344F0100844D0100604F0100E0CFFF1F84
:10595000DCD0FF1FB8470100C84B0100CDCCCC3DC7
:10596000E84B0100F04B0100104C0100304C0100ED
:10597000344C01006F12833A544C0100C891FF1F50
:10598000D4450100FCF7B8FD0221B84806F0ACFC94
:10599000B74803F05BFF0221B44806F0A5FCB44809
:1059A00003F054FF0221B14806F09EFCB04803F01A
:1059B0004DFF1721AF4806F097FCAD4803F046FFB6
:1059C00088E700227323AC4E22602B60FEF717BCE1
:1059D00006F058FC00287FF7D3AEA548A74E04F088
:1059E00093F807F00DFBA64907F012FCC6F8CC00AF
:1059F000E4E606F047FC00287FF7C2AE9C489F4EC5
:105A000004F082F807F0FCFA9D4907F001FC3061D0
:105A1000D4E606F037FC00287FF7B2AE9448974EE4
:105A200004F072F80123014623609648B1656223B1
:105A30002B60FBF7C3FF23682868A3E606F022FC6F
:105A400000287FF79DAE8A488C4E04F05DF807F081
:105A5000D7FA8B4907F0DCFBF060AFE606F012FCEA
:105A600000287FF78DAE8248844E04F04DF87065B3
:105A7000A4E606F007FC00287FF782AE7C487F4E44
:105A800004F042F807F0BCFA7D4907F0C1FBB061B1
:105A900094E606F0F7FB00287FF772AE7448774E65
:105AA00004F032F800EB80004000B06686E606F0B5
:105AB000E9FB00287FF764AE6D48704E04F024F8CF
:105AC000F0657BE606F0DEFB00287FF759AE6848FC
:105AD0006A4E04F019F807F093FA694907F098FB49
